{
  "contractName": "ISupplyChain",
  "abi": [
    {
      "inputs": [],
      "stateMutability": "nonpayable",
      "type": "constructor"
    },
    {
      "inputs": [
        {
          "internalType": "uint256",
          "name": "",
          "type": "uint256"
        }
      ],
      "name": "Distributors",
      "outputs": [
        {
          "internalType": "address",
          "name": "ethAddress",
          "type": "address"
        },
        {
          "internalType": "uint256",
          "name": "id",
          "type": "uint256"
        },
        {
          "internalType": "string",
          "name": "name",
          "type": "string"
        },
        {
          "internalType": "string",
          "name": "businessAddress",
          "type": "string"
        }
      ],
      "stateMutability": "view",
      "type": "function",
      "constant": true
    },
    {
      "inputs": [
        {
          "internalType": "uint256",
          "name": "",
          "type": "uint256"
        }
      ],
      "name": "Manufacturers",
      "outputs": [
        {
          "internalType": "address",
          "name": "ethAddress",
          "type": "address"
        },
        {
          "internalType": "uint256",
          "name": "id",
          "type": "uint256"
        },
        {
          "internalType": "string",
          "name": "name",
          "type": "string"
        },
        {
          "internalType": "string",
          "name": "businessAddress",
          "type": "string"
        }
      ],
      "stateMutability": "view",
      "type": "function",
      "constant": true
    },
    {
      "inputs": [],
      "name": "Owner",
      "outputs": [
        {
          "internalType": "address",
          "name": "",
          "type": "address"
        }
      ],
      "stateMutability": "view",
      "type": "function",
      "constant": true
    },
    {
      "inputs": [
        {
          "internalType": "uint256",
          "name": "",
          "type": "uint256"
        }
      ],
      "name": "Providers",
      "outputs": [
        {
          "internalType": "address",
          "name": "ethAddress",
          "type": "address"
        },
        {
          "internalType": "uint256",
          "name": "id",
          "type": "uint256"
        },
        {
          "internalType": "string",
          "name": "name",
          "type": "string"
        },
        {
          "internalType": "string",
          "name": "businessAddress",
          "type": "string"
        }
      ],
      "stateMutability": "view",
      "type": "function",
      "constant": true
    },
    {
      "inputs": [
        {
          "internalType": "uint256",
          "name": "",
          "type": "uint256"
        }
      ],
      "name": "Retailers",
      "outputs": [
        {
          "internalType": "address",
          "name": "ethAddress",
          "type": "address"
        },
        {
          "internalType": "uint256",
          "name": "id",
          "type": "uint256"
        },
        {
          "internalType": "string",
          "name": "name",
          "type": "string"
        },
        {
          "internalType": "string",
          "name": "businessAddress",
          "type": "string"
        }
      ],
      "stateMutability": "view",
      "type": "function",
      "constant": true
    },
    {
      "inputs": [
        {
          "internalType": "uint256",
          "name": "",
          "type": "uint256"
        }
      ],
      "name": "Stock",
      "outputs": [
        {
          "internalType": "uint256",
          "name": "id",
          "type": "uint256"
        },
        {
          "internalType": "string",
          "name": "name",
          "type": "string"
        },
        {
          "internalType": "string",
          "name": "description",
          "type": "string"
        },
        {
          "internalType": "uint256",
          "name": "lastModifiedBy",
          "type": "uint256"
        },
        {
          "internalType": "uint256",
          "name": "requireResponseBy",
          "type": "uint256"
        },
        {
          "internalType": "enum ISupplyChain.PHASE",
          "name": "phase",
          "type": "uint8"
        },
        {
          "components": [
            {
              "internalType": "uint256",
              "name": "providerID",
              "type": "uint256"
            },
            {
              "internalType": "uint256",
              "name": "supplierID",
              "type": "uint256"
            },
            {
              "internalType": "uint256",
              "name": "manufacturerID",
              "type": "uint256"
            },
            {
              "internalType": "uint256",
              "name": "distributorID",
              "type": "uint256"
            },
            {
              "internalType": "uint256",
              "name": "retailerID",
              "type": "uint256"
            }
          ],
          "internalType": "struct ISupplyChain.Tracking",
          "name": "tracking",
          "type": "tuple"
        }
      ],
      "stateMutability": "view",
      "type": "function",
      "constant": true
    },
    {
      "inputs": [
        {
          "internalType": "uint256",
          "name": "",
          "type": "uint256"
        }
      ],
      "name": "Suppliers",
      "outputs": [
        {
          "internalType": "address",
          "name": "ethAddress",
          "type": "address"
        },
        {
          "internalType": "uint256",
          "name": "id",
          "type": "uint256"
        },
        {
          "internalType": "string",
          "name": "name",
          "type": "string"
        },
        {
          "internalType": "string",
          "name": "businessAddress",
          "type": "string"
        }
      ],
      "stateMutability": "view",
      "type": "function",
      "constant": true
    },
    {
      "inputs": [
        {
          "internalType": "uint256",
          "name": "_productID",
          "type": "uint256"
        }
      ],
      "name": "getProductPhase",
      "outputs": [
        {
          "internalType": "enum ISupplyChain.PHASE",
          "name": "phase",
          "type": "uint8"
        }
      ],
      "stateMutability": "view",
      "type": "function",
      "constant": true
    },
    {
      "inputs": [],
      "name": "getProductCount",
      "outputs": [
        {
          "internalType": "uint256",
          "name": "count",
          "type": "uint256"
        }
      ],
      "stateMutability": "view",
      "type": "function",
      "constant": true
    },
    {
      "inputs": [],
      "name": "getProductsArray",
      "outputs": [
        {
          "components": [
            {
              "internalType": "uint256",
              "name": "id",
              "type": "uint256"
            },
            {
              "internalType": "string",
              "name": "name",
              "type": "string"
            },
            {
              "internalType": "string",
              "name": "description",
              "type": "string"
            },
            {
              "internalType": "uint256",
              "name": "lastModifiedBy",
              "type": "uint256"
            },
            {
              "internalType": "uint256",
              "name": "requireResponseBy",
              "type": "uint256"
            },
            {
              "internalType": "enum ISupplyChain.PHASE",
              "name": "phase",
              "type": "uint8"
            },
            {
              "components": [
                {
                  "internalType": "uint256",
                  "name": "providerID",
                  "type": "uint256"
                },
                {
                  "internalType": "uint256",
                  "name": "supplierID",
                  "type": "uint256"
                },
                {
                  "internalType": "uint256",
                  "name": "manufacturerID",
                  "type": "uint256"
                },
                {
                  "internalType": "uint256",
                  "name": "distributorID",
                  "type": "uint256"
                },
                {
                  "internalType": "uint256",
                  "name": "retailerID",
                  "type": "uint256"
                }
              ],
              "internalType": "struct ISupplyChain.Tracking",
              "name": "tracking",
              "type": "tuple"
            }
          ],
          "internalType": "struct ISupplyChain.Product[]",
          "name": "",
          "type": "tuple[]"
        }
      ],
      "stateMutability": "view",
      "type": "function",
      "constant": true
    },
    {
      "inputs": [
        {
          "internalType": "uint256",
          "name": "_productID",
          "type": "uint256"
        }
      ],
      "name": "getProductById",
      "outputs": [
        {
          "components": [
            {
              "internalType": "uint256",
              "name": "id",
              "type": "uint256"
            },
            {
              "internalType": "string",
              "name": "name",
              "type": "string"
            },
            {
              "internalType": "string",
              "name": "description",
              "type": "string"
            },
            {
              "internalType": "uint256",
              "name": "lastModifiedBy",
              "type": "uint256"
            },
            {
              "internalType": "uint256",
              "name": "requireResponseBy",
              "type": "uint256"
            },
            {
              "internalType": "enum ISupplyChain.PHASE",
              "name": "phase",
              "type": "uint8"
            },
            {
              "components": [
                {
                  "internalType": "uint256",
                  "name": "providerID",
                  "type": "uint256"
                },
                {
                  "internalType": "uint256",
                  "name": "supplierID",
                  "type": "uint256"
                },
                {
                  "internalType": "uint256",
                  "name": "manufacturerID",
                  "type": "uint256"
                },
                {
                  "internalType": "uint256",
                  "name": "distributorID",
                  "type": "uint256"
                },
                {
                  "internalType": "uint256",
                  "name": "retailerID",
                  "type": "uint256"
                }
              ],
              "internalType": "struct ISupplyChain.Tracking",
              "name": "tracking",
              "type": "tuple"
            }
          ],
          "internalType": "struct ISupplyChain.Product",
          "name": "",
          "type": "tuple"
        }
      ],
      "stateMutability": "view",
      "type": "function",
      "constant": true
    },
    {
      "inputs": [
        {
          "internalType": "uint256",
          "name": "_productID",
          "type": "uint256"
        }
      ],
      "name": "showPhase",
      "outputs": [
        {
          "internalType": "string",
          "name": "",
          "type": "string"
        }
      ],
      "stateMutability": "view",
      "type": "function",
      "constant": true
    },
    {
      "inputs": [],
      "name": "getProvidersCount",
      "outputs": [
        {
          "internalType": "uint256",
          "name": "count",
          "type": "uint256"
        }
      ],
      "stateMutability": "view",
      "type": "function",
      "constant": true
    },
    {
      "inputs": [],
      "name": "getDistributorsCount",
      "outputs": [
        {
          "internalType": "uint256",
          "name": "count",
          "type": "uint256"
        }
      ],
      "stateMutability": "view",
      "type": "function",
      "constant": true
    },
    {
      "inputs": [],
      "name": "getSuppliersCount",
      "outputs": [
        {
          "internalType": "uint256",
          "name": "count",
          "type": "uint256"
        }
      ],
      "stateMutability": "view",
      "type": "function",
      "constant": true
    },
    {
      "inputs": [],
      "name": "getManufacturersCount",
      "outputs": [
        {
          "internalType": "uint256",
          "name": "count",
          "type": "uint256"
        }
      ],
      "stateMutability": "view",
      "type": "function",
      "constant": true
    },
    {
      "inputs": [],
      "name": "getRetailersCount",
      "outputs": [
        {
          "internalType": "uint256",
          "name": "count",
          "type": "uint256"
        }
      ],
      "stateMutability": "view",
      "type": "function",
      "constant": true
    },
    {
      "inputs": [],
      "name": "getRetailersArray",
      "outputs": [
        {
          "components": [
            {
              "internalType": "address",
              "name": "ethAddress",
              "type": "address"
            },
            {
              "internalType": "uint256",
              "name": "id",
              "type": "uint256"
            },
            {
              "internalType": "string",
              "name": "name",
              "type": "string"
            },
            {
              "internalType": "string",
              "name": "businessAddress",
              "type": "string"
            }
          ],
          "internalType": "struct ISupplyChain.Actor[]",
          "name": "",
          "type": "tuple[]"
        }
      ],
      "stateMutability": "view",
      "type": "function",
      "constant": true
    },
    {
      "inputs": [],
      "name": "getSuppliersArray",
      "outputs": [
        {
          "components": [
            {
              "internalType": "address",
              "name": "ethAddress",
              "type": "address"
            },
            {
              "internalType": "uint256",
              "name": "id",
              "type": "uint256"
            },
            {
              "internalType": "string",
              "name": "name",
              "type": "string"
            },
            {
              "internalType": "string",
              "name": "businessAddress",
              "type": "string"
            }
          ],
          "internalType": "struct ISupplyChain.Actor[]",
          "name": "",
          "type": "tuple[]"
        }
      ],
      "stateMutability": "view",
      "type": "function",
      "constant": true
    },
    {
      "inputs": [],
      "name": "getManufacturersArray",
      "outputs": [
        {
          "components": [
            {
              "internalType": "address",
              "name": "ethAddress",
              "type": "address"
            },
            {
              "internalType": "uint256",
              "name": "id",
              "type": "uint256"
            },
            {
              "internalType": "string",
              "name": "name",
              "type": "string"
            },
            {
              "internalType": "string",
              "name": "businessAddress",
              "type": "string"
            }
          ],
          "internalType": "struct ISupplyChain.Actor[]",
          "name": "",
          "type": "tuple[]"
        }
      ],
      "stateMutability": "view",
      "type": "function",
      "constant": true
    },
    {
      "inputs": [],
      "name": "getProvidersArray",
      "outputs": [
        {
          "components": [
            {
              "internalType": "address",
              "name": "ethAddress",
              "type": "address"
            },
            {
              "internalType": "uint256",
              "name": "id",
              "type": "uint256"
            },
            {
              "internalType": "string",
              "name": "name",
              "type": "string"
            },
            {
              "internalType": "string",
              "name": "businessAddress",
              "type": "string"
            }
          ],
          "internalType": "struct ISupplyChain.Actor[]",
          "name": "",
          "type": "tuple[]"
        }
      ],
      "stateMutability": "view",
      "type": "function",
      "constant": true
    },
    {
      "inputs": [],
      "name": "getDistributorsArray",
      "outputs": [
        {
          "components": [
            {
              "internalType": "address",
              "name": "ethAddress",
              "type": "address"
            },
            {
              "internalType": "uint256",
              "name": "id",
              "type": "uint256"
            },
            {
              "internalType": "string",
              "name": "name",
              "type": "string"
            },
            {
              "internalType": "string",
              "name": "businessAddress",
              "type": "string"
            }
          ],
          "internalType": "struct ISupplyChain.Actor[]",
          "name": "",
          "type": "tuple[]"
        }
      ],
      "stateMutability": "view",
      "type": "function",
      "constant": true
    },
    {
      "inputs": [
        {
          "internalType": "address",
          "name": "_ethAddress",
          "type": "address"
        },
        {
          "internalType": "string",
          "name": "_role",
          "type": "string"
        },
        {
          "internalType": "string",
          "name": "_name",
          "type": "string"
        },
        {
          "internalType": "string",
          "name": "_businessAddress",
          "type": "string"
        }
      ],
      "name": "addActor",
      "outputs": [],
      "stateMutability": "nonpayable",
      "type": "function"
    },
    {
      "inputs": [
        {
          "internalType": "address",
          "name": "_ethAddress",
          "type": "address"
        },
        {
          "internalType": "string",
          "name": "_role",
          "type": "string"
        },
        {
          "internalType": "string",
          "name": "_name",
          "type": "string"
        },
        {
          "internalType": "string",
          "name": "_businessAddress",
          "type": "string"
        }
      ],
      "name": "updateActor",
      "outputs": [],
      "stateMutability": "nonpayable",
      "type": "function"
    },
    {
      "inputs": [
        {
          "internalType": "uint256",
          "name": "_id",
          "type": "uint256"
        }
      ],
      "name": "getProviderById",
      "outputs": [
        {
          "components": [
            {
              "internalType": "address",
              "name": "ethAddress",
              "type": "address"
            },
            {
              "internalType": "uint256",
              "name": "id",
              "type": "uint256"
            },
            {
              "internalType": "string",
              "name": "name",
              "type": "string"
            },
            {
              "internalType": "string",
              "name": "businessAddress",
              "type": "string"
            }
          ],
          "internalType": "struct ISupplyChain.Actor",
          "name": "",
          "type": "tuple"
        }
      ],
      "stateMutability": "view",
      "type": "function",
      "constant": true
    },
    {
      "inputs": [
        {
          "internalType": "uint256",
          "name": "_id",
          "type": "uint256"
        }
      ],
      "name": "getSupplierById",
      "outputs": [
        {
          "components": [
            {
              "internalType": "address",
              "name": "ethAddress",
              "type": "address"
            },
            {
              "internalType": "uint256",
              "name": "id",
              "type": "uint256"
            },
            {
              "internalType": "string",
              "name": "name",
              "type": "string"
            },
            {
              "internalType": "string",
              "name": "businessAddress",
              "type": "string"
            }
          ],
          "internalType": "struct ISupplyChain.Actor",
          "name": "",
          "type": "tuple"
        }
      ],
      "stateMutability": "view",
      "type": "function",
      "constant": true
    },
    {
      "inputs": [
        {
          "internalType": "uint256",
          "name": "_id",
          "type": "uint256"
        }
      ],
      "name": "getManufacturerById",
      "outputs": [
        {
          "components": [
            {
              "internalType": "address",
              "name": "ethAddress",
              "type": "address"
            },
            {
              "internalType": "uint256",
              "name": "id",
              "type": "uint256"
            },
            {
              "internalType": "string",
              "name": "name",
              "type": "string"
            },
            {
              "internalType": "string",
              "name": "businessAddress",
              "type": "string"
            }
          ],
          "internalType": "struct ISupplyChain.Actor",
          "name": "",
          "type": "tuple"
        }
      ],
      "stateMutability": "view",
      "type": "function",
      "constant": true
    },
    {
      "inputs": [
        {
          "internalType": "uint256",
          "name": "_id",
          "type": "uint256"
        }
      ],
      "name": "getDistributorById",
      "outputs": [
        {
          "components": [
            {
              "internalType": "address",
              "name": "ethAddress",
              "type": "address"
            },
            {
              "internalType": "uint256",
              "name": "id",
              "type": "uint256"
            },
            {
              "internalType": "string",
              "name": "name",
              "type": "string"
            },
            {
              "internalType": "string",
              "name": "businessAddress",
              "type": "string"
            }
          ],
          "internalType": "struct ISupplyChain.Actor",
          "name": "",
          "type": "tuple"
        }
      ],
      "stateMutability": "view",
      "type": "function",
      "constant": true
    },
    {
      "inputs": [
        {
          "internalType": "uint256",
          "name": "_id",
          "type": "uint256"
        }
      ],
      "name": "getRetailerById",
      "outputs": [
        {
          "components": [
            {
              "internalType": "address",
              "name": "ethAddress",
              "type": "address"
            },
            {
              "internalType": "uint256",
              "name": "id",
              "type": "uint256"
            },
            {
              "internalType": "string",
              "name": "name",
              "type": "string"
            },
            {
              "internalType": "string",
              "name": "businessAddress",
              "type": "string"
            }
          ],
          "internalType": "struct ISupplyChain.Actor",
          "name": "",
          "type": "tuple"
        }
      ],
      "stateMutability": "view",
      "type": "function",
      "constant": true
    },
    {
      "inputs": [
        {
          "internalType": "uint256",
          "name": "_productID",
          "type": "uint256"
        }
      ],
      "name": "validateProductId",
      "outputs": [
        {
          "internalType": "bool",
          "name": "",
          "type": "bool"
        }
      ],
      "stateMutability": "view",
      "type": "function",
      "constant": true
    },
    {
      "inputs": [],
      "name": "isRetailer",
      "outputs": [
        {
          "internalType": "uint256",
          "name": "",
          "type": "uint256"
        },
        {
          "internalType": "bool",
          "name": "",
          "type": "bool"
        }
      ],
      "stateMutability": "view",
      "type": "function",
      "constant": true
    },
    {
      "inputs": [],
      "name": "isSupplier",
      "outputs": [
        {
          "internalType": "uint256",
          "name": "",
          "type": "uint256"
        },
        {
          "internalType": "bool",
          "name": "",
          "type": "bool"
        }
      ],
      "stateMutability": "view",
      "type": "function",
      "constant": true
    },
    {
      "inputs": [],
      "name": "isManufacturer",
      "outputs": [
        {
          "internalType": "uint256",
          "name": "",
          "type": "uint256"
        },
        {
          "internalType": "bool",
          "name": "",
          "type": "bool"
        }
      ],
      "stateMutability": "view",
      "type": "function",
      "constant": true
    },
    {
      "inputs": [],
      "name": "isProvider",
      "outputs": [
        {
          "internalType": "uint256",
          "name": "",
          "type": "uint256"
        },
        {
          "internalType": "bool",
          "name": "",
          "type": "bool"
        }
      ],
      "stateMutability": "view",
      "type": "function",
      "constant": true
    },
    {
      "inputs": [],
      "name": "isDistributor",
      "outputs": [
        {
          "internalType": "uint256",
          "name": "",
          "type": "uint256"
        },
        {
          "internalType": "bool",
          "name": "",
          "type": "bool"
        }
      ],
      "stateMutability": "view",
      "type": "function",
      "constant": true
    },
    {
      "inputs": [
        {
          "internalType": "uint256",
          "name": "_productID",
          "type": "uint256"
        }
      ],
      "name": "retail",
      "outputs": [],
      "stateMutability": "nonpayable",
      "type": "function"
    },
    {
      "inputs": [
        {
          "internalType": "uint256",
          "name": "_productID",
          "type": "uint256"
        }
      ],
      "name": "sell",
      "outputs": [],
      "stateMutability": "nonpayable",
      "type": "function"
    },
    {
      "inputs": [
        {
          "internalType": "uint256",
          "name": "_productID",
          "type": "uint256"
        }
      ],
      "name": "startResourceExtraction",
      "outputs": [],
      "stateMutability": "nonpayable",
      "type": "function"
    },
    {
      "inputs": [
        {
          "internalType": "string",
          "name": "_name",
          "type": "string"
        },
        {
          "internalType": "string",
          "name": "_description",
          "type": "string"
        }
      ],
      "name": "addNewProduct",
      "outputs": [],
      "stateMutability": "nonpayable",
      "type": "function"
    },
    {
      "inputs": [
        {
          "internalType": "uint256",
          "name": "_productID",
          "type": "uint256"
        }
      ],
      "name": "completeResourceExtraction",
      "outputs": [],
      "stateMutability": "nonpayable",
      "type": "function"
    },
    {
      "inputs": [
        {
          "internalType": "uint256",
          "name": "_productID",
          "type": "uint256"
        }
      ],
      "name": "failResourceExtraction",
      "outputs": [],
      "stateMutability": "nonpayable",
      "type": "function"
    },
    {
      "inputs": [
        {
          "internalType": "uint256",
          "name": "_productID",
          "type": "uint256"
        }
      ],
      "name": "startResourceSupply",
      "outputs": [],
      "stateMutability": "nonpayable",
      "type": "function"
    },
    {
      "inputs": [
        {
          "internalType": "uint256",
          "name": "_productID",
          "type": "uint256"
        }
      ],
      "name": "completeResourceSupply",
      "outputs": [],
      "stateMutability": "nonpayable",
      "type": "function"
    },
    {
      "inputs": [
        {
          "internalType": "uint256",
          "name": "_productID",
          "type": "uint256"
        }
      ],
      "name": "failResourceSupply",
      "outputs": [],
      "stateMutability": "nonpayable",
      "type": "function"
    },
    {
      "inputs": [
        {
          "internalType": "uint256",
          "name": "_productID",
          "type": "uint256"
        }
      ],
      "name": "startManufacturing",
      "outputs": [],
      "stateMutability": "nonpayable",
      "type": "function"
    },
    {
      "inputs": [
        {
          "internalType": "uint256",
          "name": "_productID",
          "type": "uint256"
        }
      ],
      "name": "completeManufacturing",
      "outputs": [],
      "stateMutability": "nonpayable",
      "type": "function"
    },
    {
      "inputs": [
        {
          "internalType": "uint256",
          "name": "_productID",
          "type": "uint256"
        }
      ],
      "name": "startDistribution",
      "outputs": [],
      "stateMutability": "nonpayable",
      "type": "function"
    },
    {
      "inputs": [
        {
          "internalType": "uint256",
          "name": "_productID",
          "type": "uint256"
        }
      ],
      "name": "completeDistribution",
      "outputs": [],
      "stateMutability": "nonpayable",
      "type": "function"
    },
    {
      "inputs": [
        {
          "internalType": "uint256",
          "name": "_productID",
          "type": "uint256"
        }
      ],
      "name": "failDistribution",
      "outputs": [],
      "stateMutability": "nonpayable",
      "type": "function"
    },
    {
      "inputs": [
        {
          "internalType": "uint256",
          "name": "_productID",
          "type": "uint256"
        }
      ],
      "name": "acceptPhase",
      "outputs": [],
      "stateMutability": "nonpayable",
      "type": "function"
    },
    {
      "inputs": [
        {
          "internalType": "uint256",
          "name": "_productID",
          "type": "uint256"
        }
      ],
      "name": "rejectPhase",
      "outputs": [],
      "stateMutability": "nonpayable",
      "type": "function"
    }
  ],
  "bytecode": "0x60806040526000600755600060085560006009556000600a556000600b556000600c5534801561002e57600080fd5b50600080546001600160a01b0319163317905561545c806100506000396000f3fe608060405234801561001057600080fd5b50600436106102f15760003560e01c806399aa5ebd1161019d578063cea3ba36116100e9578063e7979689116100a2578063ef34c5c51161007c578063ef34c5c5146105e6578063efd50e3f146105ee578063f596b841146105f6578063fa3a050e14610340576102f1565b8063e797968914610340578063e876d923146105d3578063e9c7d6ca14610340576102f1565b8063cea3ba361461056c578063d0c65bff1461057f578063d85456a414610587578063da08402d1461059a578063e4849b32146105ad578063e76c0133146105c0576102f1565b8063a8e46ef311610156578063b4a99a4e11610130578063b4a99a4e14610526578063b545fd5014610551578063b79a104c14610340578063bfafedef14610564576102f1565b8063a8e46ef3146104f8578063b201cca41461050b578063b2d3c4f01461051e576102f1565b806399aa5ebd146103405780639b0cad2f1461049c578063a0c98198146104af578063a4c099a814610340578063a7421593146104c2578063a8069e07146104d5576102f1565b80634a348da91161025c57806375b96d7b116102155780638e5d0f5f116101ef5780638e5d0f5f1461046157806393583b89146104745780639544eeaa1461047c57806395a44cfa14610340576102f1565b806375b96d7b146103405780637a9acb23146104395780637c4e15e81461044e576102f1565b80634a348da9146103e057806351bc37b8146103e85780635395ec2d146103fb57806355949ebb14610403578063568981361461040b57806371da3c9314610431576102f1565b806326dfe552116102ae57806326dfe5521461037e5780632a180c011461034057806333592a1f146103935780633f70c2b4146103a6578063455beb28146103c6578063477ba645146103d8576102f1565b80630997a514146102f657806313197b3a1461031857806318eea1f81461032057806319fda09c1461034057806324b2dff1146103535780632565a86e14610376575b600080fd5b6102fe610616565b604080519283529015156020830152015b60405180910390f35b6102fe61062a565b61033361032e366004614dcd565b610636565b60405161030f919061523e565b61035161034e366004614dcd565b50565b005b610366610361366004614dcd565b6107ea565b60405161030f9493929190614f4e565b6102fe61092d565b610386610939565b60405161030f9190614f92565b6103336103a1366004614dcd565b610b5e565b6103b96103b4366004614dcd565b610be9565b60405161030f9190615251565b600a545b60405190815260200161030f565b6102fe610e29565b6007546103ca565b6103666103f6366004614dcd565b610e35565b610386610e67565b610386611086565b61041e610419366004614dcd565b6112a5565b60405161030f9796959493929190615264565b600b546103ca565b61044161142a565b60405161030f9190614ff2565b61033361045c366004614dcd565b6116dc565b61036661046f366004614dcd565b61176b565b6102fe61179f565b61048f61048a366004614dcd565b6117ab565b60405161030f9190615045565b6103516104aa366004614dcd565b6117f3565b6103336104bd366004614dcd565b611a68565b6103516104d0366004614dcd565b611af7565b6104e86104e3366004614dcd565b611f70565b604051901515815260200161030f565b610351610506366004614cca565b611fcc565b610351610519366004614dcd565b6121dc565b6103866122ba565b600054610539906001600160a01b031681565b6040516001600160a01b03909116815260200161030f565b61036661055f366004614dcd565b6124d9565b6008546103ca565b61035161057a366004614d6c565b61250b565b600c546103ca565b610366610595366004614dcd565b6126fc565b6103336105a8366004614dcd565b61272e565b6103516105bb366004614dcd565b6127bd565b6103516105ce366004614dcd565b612895565b6103516105e1366004614cca565b612e11565b610386612e34565b6009546103ca565b610609610604366004614dcd565b613053565b60405161030f9190615059565b6000806106223361354a565b915091509091565b60008061062233613565565b61063e614aee565b6000600c541161064d57600080fd5b60008211801561065f5750600c548211155b6106845760405162461bcd60e51b815260040161067b90615073565b60405180910390fd5b600082815260066020908152604091829020825160808101845281546001600160a01b0316815260018201549281019290925260028101805492939192918401916106ce90615304565b80601f01602080910402602001604051908101604052809291908181526020018280546106fa90615304565b80156107475780601f1061071c57610100808354040283529160200191610747565b820191906000526020600020905b81548152906001019060200180831161072a57829003601f168201915b5050505050815260200160038201805461076090615304565b80601f016020809104026020016040519081016040528092919081815260200182805461078c90615304565b80156107d95780601f106107ae576101008083540402835291602001916107d9565b820191906000526020600020905b8154815290600101906020018083116107bc57829003601f168201915b50505050508152505090505b919050565b6003602052600090815260409020805460018201546002830180546001600160a01b0390931693919261081c90615304565b80601f016020809104026020016040519081016040528092919081815260200182805461084890615304565b80156108955780601f1061086a57610100808354040283529160200191610895565b820191906000526020600020905b81548152906001019060200180831161087857829003601f168201915b5050505050908060030180546108aa90615304565b80601f01602080910402602001604051908101604052809291908181526020018280546108d690615304565b80156109235780601f106108f857610100808354040283529160200191610923565b820191906000526020600020905b81548152906001019060200180831161090657829003601f168201915b5050505050905084565b60008061062233613573565b6060600060095467ffffffffffffffff81111561096657634e487b7160e01b600052604160045260246000fd5b60405190808252806020026020018201604052801561099f57816020015b61098c614aee565b8152602001906001900390816109845790505b50905060005b600954811015610b5857600360006109be8360016152ec565b81526020808201929092526040908101600020815160808101835281546001600160a01b031681526001820154938101939093526002810180549192840191610a0690615304565b80601f0160208091040260200160405190810160405280929190818152602001828054610a3290615304565b8015610a7f5780601f10610a5457610100808354040283529160200191610a7f565b820191906000526020600020905b815481529060010190602001808311610a6257829003601f168201915b50505050508152602001600382018054610a9890615304565b80601f0160208091040260200160405190810160405280929190818152602001828054610ac490615304565b8015610b115780601f10610ae657610100808354040283529160200191610b11565b820191906000526020600020905b815481529060010190602001808311610af457829003601f168201915b505050505081525050828281518110610b3a57634e487b7160e01b600052603260045260246000fd5b60200260200101819052508080610b509061533f565b9150506109a5565b50905090565b610b66614aee565b600060085411610b7557600080fd5b600082118015610b8757506008548211155b610ba35760405162461bcd60e51b815260040161067b90615073565b600082815260026020818152604092839020835160808101855281546001600160a01b03168152600182015492810192909252918201805491938401916106ce90615304565b610bf1614b1f565b610bfa82611f70565b610c3b5760405162461bcd60e51b8152602060048201526012602482015271125b9d985b1a5908141c9bd91d58dd08125960721b604482015260640161067b565b600082815260016020818152604092839020835160e0810190945280548452918201805491840191610c6c90615304565b80601f0160208091040260200160405190810160405280929190818152602001828054610c9890615304565b8015610ce55780601f10610cba57610100808354040283529160200191610ce5565b820191906000526020600020905b815481529060010190602001808311610cc857829003601f168201915b50505050508152602001600282018054610cfe90615304565b80601f0160208091040260200160405190810160405280929190818152602001828054610d2a90615304565b8015610d775780601f10610d4c57610100808354040283529160200191610d77565b820191906000526020600020905b815481529060010190602001808311610d5a57829003601f168201915b50505091835250506003820154602082015260048201546040820152600582015460609091019060ff16600d811115610dc057634e487b7160e01b600052602160045260246000fd5b600d811115610ddf57634e487b7160e01b600052602160045260246000fd5b81526040805160a08101825260068401548152600784015460208083019190915260088501549282019290925260098401546060820152600a909301546080840152015292915050565b60008061062233613581565b6005602052600090815260409020805460018201546002830180546001600160a01b0390931693919261081c90615304565b60606000600b5467ffffffffffffffff811115610e9457634e487b7160e01b600052604160045260246000fd5b604051908082528060200260200182016040528015610ecd57816020015b610eba614aee565b815260200190600190039081610eb25790505b50905060005b600b54811015610b585760056000610eec8360016152ec565b81526020808201929092526040908101600020815160808101835281546001600160a01b031681526001820154938101939093526002810180549192840191610f3490615304565b80601f0160208091040260200160405190810160405280929190818152602001828054610f6090615304565b8015610fad5780601f10610f8257610100808354040283529160200191610fad565b820191906000526020600020905b815481529060010190602001808311610f9057829003601f168201915b50505050508152602001600382018054610fc690615304565b80601f0160208091040260200160405190810160405280929190818152602001828054610ff290615304565b801561103f5780601f106110145761010080835404028352916020019161103f565b820191906000526020600020905b81548152906001019060200180831161102257829003601f168201915b50505050508152505082828151811061106857634e487b7160e01b600052603260045260246000fd5b6020026020010181905250808061107e9061533f565b915050610ed3565b60606000600c5467ffffffffffffffff8111156110b357634e487b7160e01b600052604160045260246000fd5b6040519080825280602002602001820160405280156110ec57816020015b6110d9614aee565b8152602001906001900390816110d15790505b50905060005b600c54811015610b58576006600061110b8360016152ec565b81526020808201929092526040908101600020815160808101835281546001600160a01b03168152600182015493810193909352600281018054919284019161115390615304565b80601f016020809104026020016040519081016040528092919081815260200182805461117f90615304565b80156111cc5780601f106111a1576101008083540402835291602001916111cc565b820191906000526020600020905b8154815290600101906020018083116111af57829003601f168201915b505050505081526020016003820180546111e590615304565b80601f016020809104026020016040519081016040528092919081815260200182805461121190615304565b801561125e5780601f106112335761010080835404028352916020019161125e565b820191906000526020600020905b81548152906001019060200180831161124157829003601f168201915b50505050508152505082828151811061128757634e487b7160e01b600052603260045260246000fd5b6020026020010181905250808061129d9061533f565b9150506110f2565b6001602081905260009182526040909120805491810180546112c690615304565b80601f01602080910402602001604051908101604052809291908181526020018280546112f290615304565b801561133f5780601f106113145761010080835404028352916020019161133f565b820191906000526020600020905b81548152906001019060200180831161132257829003601f168201915b50505050509080600201805461135490615304565b80601f016020809104026020016040519081016040528092919081815260200182805461138090615304565b80156113cd5780601f106113a2576101008083540402835291602001916113cd565b820191906000526020600020905b8154815290600101906020018083116113b057829003601f168201915b5050506003840154600485015460058601546040805160a081018252600689015481526007890154602082015260088901549181019190915260098801546060820152600a9097015460808801529495919490935060ff16915087565b6060600060075467ffffffffffffffff81111561145757634e487b7160e01b600052604160045260246000fd5b60405190808252806020026020018201604052801561149057816020015b61147d614b1f565b8152602001906001900390816114755790505b50905060005b600754811015610b5857600160006114ae83836152ec565b81526020019081526020016000206040518060e0016040529081600082015481526020016001820180546114e190615304565b80601f016020809104026020016040519081016040528092919081815260200182805461150d90615304565b801561155a5780601f1061152f5761010080835404028352916020019161155a565b820191906000526020600020905b81548152906001019060200180831161153d57829003601f168201915b5050505050815260200160028201805461157390615304565b80601f016020809104026020016040519081016040528092919081815260200182805461159f90615304565b80156115ec5780601f106115c1576101008083540402835291602001916115ec565b820191906000526020600020905b8154815290600101906020018083116115cf57829003601f168201915b50505091835250506003820154602082015260048201546040820152600582015460609091019060ff16600d81111561163557634e487b7160e01b600052602160045260246000fd5b600d81111561165457634e487b7160e01b600052602160045260246000fd5b8152602001600682016040518060a001604052908160008201548152602001600182015481526020016002820154815260200160038201548152602001600482015481525050815250508282815181106116be57634e487b7160e01b600052603260045260246000fd5b602002602001018190525080806116d49061533f565b915050611496565b6116e4614aee565b6000600b54116116f357600080fd5b6000821180156117055750600b548211155b6117215760405162461bcd60e51b815260040161067b90615073565b600082815260056020908152604091829020825160808101845281546001600160a01b0316815260018201549281019290925260028101805492939192918401916106ce90615304565b60026020819052600091825260409091208054600182015492820180546001600160a01b0390921693929161081c90615304565b6000806106223361358f565b600080821180156117be57506008548211155b6117da5760405162461bcd60e51b815260040161067b90615212565b5060009081526001602052604090206005015460ff1690565b6117fc81611f70565b6118185760405162461bcd60e51b815260040161067b906150de565b60008061182361062a565b91509150806118825760405162461bcd60e51b815260206004820152602560248201527f5468652075736572206973206e6f74206120726567697374657265642070726f6044820152643b34b232b960d91b606482015260840161067b565b60008381526001602052604081206005015460ff16600d8111156118b657634e487b7160e01b600052602160045260246000fd5b14806118f55750600260008481526001602052604090206005015460ff16600d8111156118f357634e487b7160e01b600052602160045260246000fd5b145b6119115760405162461bcd60e51b815260040161067b90615167565b6000600260008581526001602052604090206005015460ff16600d81111561194957634e487b7160e01b600052602160045260246000fd5b1415611a395760008481526001602052604090206004015461196a3361359d565b146119a75760405162461bcd60e51b815260206004820152600d60248201526c1058d8d95cdcc811195b9a5959609a1b604482015260640161067b565b6000848152600160205260408120600301546119c290611a68565b6020015111611a255760405162461bcd60e51b815260206004820152602960248201527f4572726f722e2052657175657374206e6f7420636f6d696e672066726f6d206160448201526810283937bb34b232b960b91b606482015260840161067b565b506000838152600160205260409020600301545b60009384526001602081905260409094206003810193909355600483015550600501805460ff19169091179055565b611a70614aee565b600060095411611a7f57600080fd5b600082118015611a9157506009548211155b611aad5760405162461bcd60e51b815260040161067b90615073565b600082815260036020908152604091829020825160808101845281546001600160a01b0316815260018201549281019290925260028101805492939192918401916106ce90615304565b600081118015611b0957506007548111155b611b255760405162461bcd60e51b815260040161067b90615212565b600080611b313361360f565b9150915060008211611b775760405162461bcd60e51b815260206004820152600f60248201526e1058dd1bdc881b9bdd08199bdd5b99608a1b604482015260640161067b565b60408051808201909152600b81526a2234b9ba3934b13aba37b960a91b60209182015281519082012060008051602061540783398151915214801590611bf05750604080518082019091526008815267283937bb34b232b960c11b6020918201528151908201206000805160206153a783398151915214155b611c6c5760405162461bcd60e51b815260206004820152604160248201527f546865204641494c206f7065726174696f6e206973206e6f7420617661696c6160448201527f626c6520746f2050726f76696465727320616e64204469737472696275746f726064820152607360f81b608482015260a40161067b565b6000838152600160208181526040808420815160e08101909252805482529283018054919392840191611c9e90615304565b80601f0160208091040260200160405190810160405280929190818152602001828054611cca90615304565b8015611d175780601f10611cec57610100808354040283529160200191611d17565b820191906000526020600020905b815481529060010190602001808311611cfa57829003601f168201915b50505050508152602001600282018054611d3090615304565b80601f0160208091040260200160405190810160405280929190818152602001828054611d5c90615304565b8015611da95780601f10611d7e57610100808354040283529160200191611da9565b820191906000526020600020905b815481529060010190602001808311611d8c57829003601f168201915b50505091835250506003820154602082015260048201546040820152600582015460609091019060ff16600d811115611df257634e487b7160e01b600052602160045260246000fd5b600d811115611e1157634e487b7160e01b600052602160045260246000fd5b81526040805160a0810182526006840154815260078401546020828101919091526008808601548385015260098601546060840152600a9095015460808301529283015280518082019091529182526729bab8383634b2b960c11b918101919091528351908401209091506000805160206153878339815191521415611ec05760035b8160a00151600d811115611eb857634e487b7160e01b600052602160045260246000fd5b50505b611f6a565b60408051808201909152600c81526b26b0b73ab330b1ba3ab932b960a11b6020918201528251908301206000805160206153e78339815191521415611f06576006611e94565b6040805180820190915260088152672932ba30b4b632b960c11b6020918201528251908301206000805160206153c78339815191521415611f6a57600b8160a00151600d811115611f6757634e487b7160e01b600052602160045260246000fd5b50505b50505050565b60008082118015611f8357506007548211155b611fc45760405162461bcd60e51b8152602060048201526012602482015271125b9d985b1a5908141c9bd91d58dd08125960721b604482015260640161067b565b506001919050565b600080546001600160a01b0316331480611fee5750336001600160a01b038616145b61202a5760405162461bcd60e51b815260206004820152600d60248201526c1058d8d95cdcc811195b9a5959609a1b604482015260640161067b565b604080518082019091526008815267283937bb34b232b960c11b6020918201528451908501206000805160206153a78339815191521415612075576120708184846137a1565b6121d5565b60408051808201909152600881526729bab8383634b2b960c11b60209182015284519085012060008051602061538783398151915214156120bb576120708184846139ee565b60408051808201909152600c81526b26b0b73ab330b1ba3ab932b960a11b6020918201528451908501206000805160206153e7833981519152141561210557612070818484613c3a565b60408051808201909152600b81526a2234b9ba3934b13aba37b960a91b602091820152845190850120600080516020615407833981519152141561214e57612070818484613e86565b6040805180820190915260088152672932ba30b4b632b960c11b6020918201528451908501206000805160206153c78339815191521415612194576120708184846140d2565b60405162461bcd60e51b8152602060048201526016602482015275155b9adb9bdddb88149bdb194814dc1958da599a595960521b604482015260640161067b565b5050505050565b6121e581611f70565b6122015760405162461bcd60e51b815260040161067b906150de565b60008061220c610e29565b915091508061222d5760405162461bcd60e51b815260040161067b90615122565b600b60008481526001602052604090206005015460ff16600d81111561226357634e487b7160e01b600052602160045260246000fd5b146122805760405162461bcd60e51b815260040161067b90615167565b600083815260016020819052604090912060038101805460098301558490556005018054600c9260ff1990911690835b0217905550505050565b6060600060085467ffffffffffffffff8111156122e757634e487b7160e01b600052604160045260246000fd5b60405190808252806020026020018201604052801561232057816020015b61230d614aee565b8152602001906001900390816123055790505b50905060005b600854811015610b58576002600061233f8360016152ec565b81526020808201929092526040908101600020815160808101835281546001600160a01b03168152600182015493810193909352600281018054919284019161238790615304565b80601f01602080910402602001604051908101604052809291908181526020018280546123b390615304565b80156124005780601f106123d557610100808354040283529160200191612400565b820191906000526020600020905b8154815290600101906020018083116123e357829003601f168201915b5050505050815260200160038201805461241990615304565b80601f016020809104026020016040519081016040528092919081815260200182805461244590615304565b80156124925780601f1061246757610100808354040283529160200191612492565b820191906000526020600020905b81548152906001019060200180831161247557829003601f168201915b5050505050815250508282815181106124bb57634e487b7160e01b600052603260045260246000fd5b602002602001018190525080806124d19061533f565b915050612326565b6004602052600090815260409020805460018201546002830180546001600160a01b0390931693919261081c90615304565b6000546001600160a01b0316331461252257600080fd5b61252a61431e565b61259c5760405162461bcd60e51b815260206004820152603c60248201527f54686520737570706c7920636861696e206973206d697373696e67207468652060448201527f726571756972656420656e74697469657320746f206f70657261746500000000606482015260840161067b565b600780549060006125ac8361533f565b91905055506040518060e00160405280600754815260200183815260200182815260200160008152602001600081526020016000600d8111156125ff57634e487b7160e01b600052602160045260246000fd5b81526040805160a081018252600080825260208281018290528284018290526060830182905260808301829052938401919091526007548152600180845291902083518155838301518051919361265b93850192910190614baa565b5060408201518051612677916002840191602090910190614baa565b50606082015160038201556080820151600482015560a082015160058201805460ff1916600183600d8111156126bd57634e487b7160e01b600052602160045260246000fd5b021790555060c091909101518051600683015560208101516007830155604081015160088301556060810151600983015560800151600a909101555050565b6006602052600090815260409020805460018201546002830180546001600160a01b0390931693919261081c90615304565b612736614aee565b6000600a541161274557600080fd5b6000821180156127575750600a548211155b6127735760405162461bcd60e51b815260040161067b90615073565b600082815260046020908152604091829020825160808101845281546001600160a01b0316815260018201549281019290925260028101805492939192918401916106ce90615304565b6127c681611f70565b6127e25760405162461bcd60e51b815260040161067b906150de565b6000806127ed610e29565b915091508061280e5760405162461bcd60e51b815260040161067b90615122565b600c60008481526001602052604090206005015460ff16600d81111561284457634e487b7160e01b600052602160045260246000fd5b146128615760405162461bcd60e51b815260040161067b90615167565b6000838152600160208190526040909120600a8101849055600381018490556005018054600d9260ff1990911690836122b0565b6000811180156128a757506007548111155b6128c35760405162461bcd60e51b815260040161067b90615212565b6000806128cf3361360f565b91509150600082116129155760405162461bcd60e51b815260206004820152600f60248201526e1058dd1bdc881b9bdd08199bdd5b99608a1b604482015260640161067b565b6000838152600160208181526040808420815160e0810190925280548252928301805491939284019161294790615304565b80601f016020809104026020016040519081016040528092919081815260200182805461297390615304565b80156129c05780601f10612995576101008083540402835291602001916129c0565b820191906000526020600020905b8154815290600101906020018083116129a357829003601f168201915b505050505081526020016002820180546129d990615304565b80601f0160208091040260200160405190810160405280929190818152602001828054612a0590615304565b8015612a525780601f10612a2757610100808354040283529160200191612a52565b820191906000526020600020905b815481529060010190602001808311612a3557829003601f168201915b50505091835250506003820154602082015260048201546040820152600582015460609091019060ff16600d811115612a9b57634e487b7160e01b600052602160045260246000fd5b600d811115612aba57634e487b7160e01b600052602160045260246000fd5b81526040805160a0810182526006840154815260078401546020828101919091526008808601548385015260098601546060840152600a90950154608083015292830152805180820190915291825267283937bb34b232b960c11b918101919091528351908401209091506000805160206153a78339815191521415612bb25760008160a00151600d811115612b6057634e487b7160e01b600052602160045260246000fd5b1415612b7457612b6f846117f3565b611ebb565b60028160a00151600d811115612b9a57634e487b7160e01b600052602160045260246000fd5b1480612ba857506001611e94565b15611ebb57611ebb565b60408051808201909152600881526729bab8383634b2b960c11b6020918201528251908301206000805160206153878339815191521415612c525760038160a00151600d811115612c1357634e487b7160e01b600052602160045260246000fd5b1415612c1e57612b6f565b60058160a00151600d811115612c4457634e487b7160e01b600052602160045260246000fd5b1480612ba857506004611e94565b60408051808201909152600c81526b26b0b73ab330b1ba3ab932b960a11b6020918201528251908301206000805160206153e78339815191521415612cc95760068160a00151600d811115612cb757634e487b7160e01b600052602160045260246000fd5b1415612cc257612b6f565b6007611e94565b60408051808201909152600b81526a2234b9ba3934b13aba37b960a91b6020918201528251908301206000805160206154078339815191521415612d6c5760088160a00151600d811115612d2d57634e487b7160e01b600052602160045260246000fd5b1415612d3857612b6f565b60098160a00151600d811115612d5e57634e487b7160e01b600052602160045260246000fd5b1480612ba85750600a611e94565b6040805180820190915260088152672932ba30b4b632b960c11b6020918201528251908301206000805160206153c78339815191521415611f6a57600b8160a00151600d811115612dcd57634e487b7160e01b600052602160045260246000fd5b1415612ddc57611ebb846121dc565b600c8160a00151600d811115612e0257634e487b7160e01b600052602160045260246000fd5b1415611f6a57611f6a846127bd565b6000546001600160a01b03163314612e2857600080fd5b611f6a84848484614364565b60606000600a5467ffffffffffffffff811115612e6157634e487b7160e01b600052604160045260246000fd5b604051908082528060200260200182016040528015612e9a57816020015b612e87614aee565b815260200190600190039081612e7f5790505b50905060005b600a54811015610b585760046000612eb98360016152ec565b81526020808201929092526040908101600020815160808101835281546001600160a01b031681526001820154938101939093526002810180549192840191612f0190615304565b80601f0160208091040260200160405190810160405280929190818152602001828054612f2d90615304565b8015612f7a5780601f10612f4f57610100808354040283529160200191612f7a565b820191906000526020600020905b815481529060010190602001808311612f5d57829003601f168201915b50505050508152602001600382018054612f9390615304565b80601f0160208091040260200160405190810160405280929190818152602001828054612fbf90615304565b801561300c5780601f10612fe15761010080835404028352916020019161300c565b820191906000526020600020905b815481529060010190602001808311612fef57829003601f168201915b50505050508152505082828151811061303557634e487b7160e01b600052603260045260246000fd5b6020026020010181905250808061304b9061533f565b915050612ea0565b606060008211801561306757506007548211155b6130835760405162461bcd60e51b815260040161067b90615212565b60008281526001602052604081206005015460ff16600d8111156130b757634e487b7160e01b600052602160045260246000fd5b14156130e9575060408051808201909152600f81526e141c9bd91d58dd0813dc99195c9959608a1b60208201526107e5565b600160008381526001602052604090206005015460ff16600d81111561311f57634e487b7160e01b600052602160045260246000fd5b148061315e5750600360008381526001602052604090206005015460ff16600d81111561315c57634e487b7160e01b600052602160045260246000fd5b145b8061319c5750600260008381526001602052604090206005015460ff16600d81111561319a57634e487b7160e01b600052602160045260246000fd5b145b156131db575060408051808201909152601981527f5265736f757263652045787472616374696f6e2050686173650000000000000060208201526107e5565b600460008381526001602052604090206005015460ff16600d81111561321157634e487b7160e01b600052602160045260246000fd5b14806132505750600660008381526001602052604090206005015460ff16600d81111561324e57634e487b7160e01b600052602160045260246000fd5b145b8061328e5750600560008381526001602052604090206005015460ff16600d81111561328c57634e487b7160e01b600052602160045260246000fd5b145b156132c557506040805180820190915260158152745265736f7572636520537570706c7920506861736560581b60208201526107e5565b600760008381526001602052604090206005015460ff16600d8111156132fb57634e487b7160e01b600052602160045260246000fd5b148061333a5750600860008381526001602052604090206005015460ff16600d81111561333857634e487b7160e01b600052602160045260246000fd5b145b1561336f57506040805180820190915260138152724d616e75666163747572696e6720506861736560681b60208201526107e5565b600960008381526001602052604090206005015460ff16600d8111156133a557634e487b7160e01b600052602160045260246000fd5b14806133e45750600b60008381526001602052604090206005015460ff16600d8111156133e257634e487b7160e01b600052602160045260246000fd5b145b806134225750600a60008381526001602052604090206005015460ff16600d81111561342057634e487b7160e01b600052602160045260246000fd5b145b156134565750604080518082019091526012815271446973747269627574696f6e20506861736560701b60208201526107e5565b600c60008381526001602052604090206005015460ff16600d81111561348c57634e487b7160e01b600052602160045260246000fd5b14156134bb575060408051808201909152600c81526b52657461696c20506861736560a01b60208201526107e5565b600d60008381526001602052604090206005015460ff16600d8111156134f157634e487b7160e01b600052602160045260246000fd5b1415613520575060408051808201909152600c81526b141c9bd91d58dd0814dbdb1960a21b60208201526107e5565b5060408051808201909152600d81526c556e6b6e6f776e20537461746560981b60208201526107e5565b600080600061355884614536565b925050508015155b915091565b60008060006135588461359d565b60008060006135588461459f565b600080600061355884614608565b600080600061355884614671565b600080600854116135ad57600080fd5b60015b6008548111613606576000818152600260205260409020546001600160a01b03848116911614156135f45760009081526002602052604090206001015490506107e5565b806135fe8161533f565b9150506135b0565b50600092915050565b6000606061361b61431e565b61365d5760405162461bcd60e51b8152602060048201526013602482015272139bc81858dd1bdc881c9959da5cdd195c9959606a1b604482015260640161067b565b600061366884614608565b90508015613699576040805180820190915260088152672932ba30b4b632b960c11b60208201529092509050613560565b6136a28461359d565b905080156136d357604080518082019091526008815267283937bb34b232b960c11b60208201529092509050613560565b6136dc8461459f565b9050801561370d5760408051808201909152600881526729bab8383634b2b960c11b60208201529092509050613560565b61371684614671565b9050801561374b5760408051808201909152600c81526b26b0b73ab330b1ba3ab932b960a11b60208201529092509050613560565b61375484614536565b905080156137885760408051808201909152600b81526a2234b9ba3934b13aba37b960a91b60208201529092509050613560565b5050604080516020810190915260008082529150915091565b6000831180156137b2575060085483105b6137ce5760405162461bcd60e51b815260040161067b906151c4565b6000838152600260208181526040808420815160808101835281546001600160a01b0316815260018201549381019390935292830180549293929184019161381590615304565b80601f016020809104026020016040519081016040528092919081815260200182805461384190615304565b801561388e5780601f106138635761010080835404028352916020019161388e565b820191906000526020600020905b81548152906001019060200180831161387157829003601f168201915b505050505081526020016003820180546138a790615304565b80601f01602080910402602001604051908101604052809291908181526020018280546138d390615304565b80156139205780601f106138f557610100808354040283529160200191613920565b820191906000526020600020905b81548152906001019060200180831161390357829003601f168201915b505050919092525050600054919250506001600160a01b031633148061394f575080516001600160a01b031633145b61396b5760405162461bcd60e51b815260040161067b9061509d565b806040015180519060200120838051906020012014158061399e5750806060015180519060200120828051906020012014155b15611f6a57600084815260026020818152604090922085516139c893919092019190860190614baa565b50600084815260026020908152604090912083516121d592600390920191850190614baa565b6000831180156139ff5750600a5483105b613a1b5760405162461bcd60e51b815260040161067b906151c4565b6000838152600360209081526040808320815160808101835281546001600160a01b031681526001820154938101939093526002810180549192840191613a6190615304565b80601f0160208091040260200160405190810160405280929190818152602001828054613a8d90615304565b8015613ada5780601f10613aaf57610100808354040283529160200191613ada565b820191906000526020600020905b815481529060010190602001808311613abd57829003601f168201915b50505050508152602001600382018054613af390615304565b80601f0160208091040260200160405190810160405280929190818152602001828054613b1f90615304565b8015613b6c5780601f10613b4157610100808354040283529160200191613b6c565b820191906000526020600020905b815481529060010190602001808311613b4f57829003601f168201915b505050919092525050600054919250506001600160a01b0316331480613b9b575080516001600160a01b031633145b613bb75760405162461bcd60e51b815260040161067b9061509d565b8060400151805190602001208380519060200120141580613bea5750806060015180519060200120828051906020012014155b15611f6a5760008481526003602090815260409091208451613c1492600290920191860190614baa565b50600084815260036020818152604090922084516121d593919092019190850190614baa565b600083118015613c4b5750600a5483105b613c675760405162461bcd60e51b815260040161067b906151c4565b6000838152600460209081526040808320815160808101835281546001600160a01b031681526001820154938101939093526002810180549192840191613cad90615304565b80601f0160208091040260200160405190810160405280929190818152602001828054613cd990615304565b8015613d265780601f10613cfb57610100808354040283529160200191613d26565b820191906000526020600020905b815481529060010190602001808311613d0957829003601f168201915b50505050508152602001600382018054613d3f90615304565b80601f0160208091040260200160405190810160405280929190818152602001828054613d6b90615304565b8015613db85780601f10613d8d57610100808354040283529160200191613db8565b820191906000526020600020905b815481529060010190602001808311613d9b57829003601f168201915b505050919092525050600054919250506001600160a01b0316331480613de7575080516001600160a01b031633145b613e035760405162461bcd60e51b815260040161067b9061509d565b8060400151805190602001208380519060200120141580613e365750806060015180519060200120828051906020012014155b15611f6a5760008481526004602090815260409091208451613e6092600290920191860190614baa565b50600084815260046020908152604090912083516121d592600390920191850190614baa565b600083118015613e975750600b5483105b613eb35760405162461bcd60e51b815260040161067b906151c4565b6000838152600560209081526040808320815160808101835281546001600160a01b031681526001820154938101939093526002810180549192840191613ef990615304565b80601f0160208091040260200160405190810160405280929190818152602001828054613f2590615304565b8015613f725780601f10613f4757610100808354040283529160200191613f72565b820191906000526020600020905b815481529060010190602001808311613f5557829003601f168201915b50505050508152602001600382018054613f8b90615304565b80601f0160208091040260200160405190810160405280929190818152602001828054613fb790615304565b80156140045780601f10613fd957610100808354040283529160200191614004565b820191906000526020600020905b815481529060010190602001808311613fe757829003601f168201915b505050919092525050600054919250506001600160a01b0316331480614033575080516001600160a01b031633145b61404f5760405162461bcd60e51b815260040161067b9061509d565b80604001518051906020012083805190602001201415806140825750806060015180519060200120828051906020012014155b15611f6a57600084815260056020908152604090912084516140ac92600290920191860190614baa565b50600084815260056020908152604090912083516121d592600390920191850190614baa565b6000831180156140e35750600c5483105b6140ff5760405162461bcd60e51b815260040161067b906151c4565b6000838152600660209081526040808320815160808101835281546001600160a01b03168152600182015493810193909352600281018054919284019161414590615304565b80601f016020809104026020016040519081016040528092919081815260200182805461417190615304565b80156141be5780601f10614193576101008083540402835291602001916141be565b820191906000526020600020905b8154815290600101906020018083116141a157829003601f168201915b505050505081526020016003820180546141d790615304565b80601f016020809104026020016040519081016040528092919081815260200182805461420390615304565b80156142505780601f1061422557610100808354040283529160200191614250565b820191906000526020600020905b81548152906001019060200180831161423357829003601f168201915b505050919092525050600054919250506001600160a01b031633148061427f575080516001600160a01b031633145b61429b5760405162461bcd60e51b815260040161067b9061509d565b80604001518051906020012083805190602001201415806142ce5750806060015180519060200120828051906020012014155b15611f6a57600084815260066020908152604090912084516142f892600290920191860190614baa565b50600084815260066020908152604090912083516121d592600390920191850190614baa565b600061432b600b54151590565b80156143385750600a5415155b8015614345575060085415155b8015614352575060095415155b801561435f5750600c5415155b905090565b6000546001600160a01b0316331461437b57600080fd5b614384846146da565b156143d15760405162461bcd60e51b815260206004820152601760248201527f5573657220416c72656164792052656769737465726564000000000000000000604482015260640161067b565b604080518082019091526008815267283937bb34b232b960c11b6020918201528351908401206000805160206153a7833981519152141561441757611ebb8483836147c0565b60408051808201909152600881526729bab8383634b2b960c11b602091820152835190840120600080516020615387833981519152141561445d57611ebb84838361487a565b60408051808201909152600c81526b26b0b73ab330b1ba3ab932b960a11b6020918201528351908401206000805160206153e783398151915214156144a757611ebb848383614917565b60408051808201909152600b81526a2234b9ba3934b13aba37b960a91b60209182015283519084012060008051602061540783398151915214156144f057611ebb8483836149b4565b6040805180820190915260088152672932ba30b4b632b960c11b6020918201528351908401206000805160206153c7833981519152141561219457611ebb848383614a51565b600080600b541161454657600080fd5b60015b600b548111613606576000818152600560205260409020546001600160a01b038481169116141561458d5760009081526005602052604090206001015490506107e5565b806145978161533f565b915050614549565b600080600954116145af57600080fd5b60015b6009548111613606576000818152600360205260409020546001600160a01b03848116911614156145f65760009081526003602052604090206001015490506107e5565b806146008161533f565b9150506145b2565b600080600c541161461857600080fd5b60015b600c548111613606576000818152600660205260409020546001600160a01b038481169116141561465f5760009081526006602052604090206001015490506107e5565b806146698161533f565b91505061461b565b600080600a541161468157600080fd5b60015b600a548111613606576000818152600460205260409020546001600160a01b03848116911614156146c85760009081526004602052604090206001015490506107e5565b806146d28161533f565b915050614684565b600080546001600160a01b031633146146f257600080fd5b600080614700600b54151590565b156147225761470e8461354a565b909250905080156147225791506107e59050565b600c54156147475761473384613581565b909250905080156147475791506107e59050565b600a541561476c576147588461358f565b9092509050801561476c5791506107e59050565b600954156147915761477d84613573565b909250905080156147915791506107e59050565b600854156147b6576147a284613565565b909250905080156147b65791506107e59050565b5060009392505050565b6000546001600160a01b031633146147d757600080fd5b600880549060006147e78361533f565b9091555050604080516080810182526001600160a01b0385811682526008546020808401828152848601888152606086018890526000938452600280845296909320855181546001600160a01b0319169516949094178455516001840155905180519394929361485e938501929190910190614baa565b5060608201518051611f67916003840191602090910190614baa565b6000546001600160a01b0316331461489157600080fd5b600980549060006148a18361533f565b9091555050604080516080810182526001600160a01b03858116825260095460208084018281528486018881526060860188905260009384526003835295909220845181546001600160a01b031916941693909317835590516001830155925180519293919261485e9260028501920190614baa565b6000546001600160a01b0316331461492e57600080fd5b600a805490600061493e8361533f565b9091555050604080516080810182526001600160a01b038581168252600a5460208084018281528486018881526060860188905260009384526004835295909220845181546001600160a01b031916941693909317835590516001830155925180519293919261485e9260028501920190614baa565b6000546001600160a01b031633146149cb57600080fd5b600b80549060006149db8361533f565b9091555050604080516080810182526001600160a01b038581168252600b5460208084018281528486018881526060860188905260009384526005835295909220845181546001600160a01b031916941693909317835590516001830155925180519293919261485e9260028501920190614baa565b6000546001600160a01b03163314614a6857600080fd5b600c8054906000614a788361533f565b9091555050604080516080810182526001600160a01b038581168252600c5460208084018281528486018881526060860188905260009384526006835295909220845181546001600160a01b031916941693909317835590516001830155925180519293919261485e9260028501920190614baa565b604051806080016040528060006001600160a01b031681526020016000815260200160608152602001606081525090565b6040518060e0016040528060008152602001606081526020016060815260200160008152602001600081526020016000600d811115614b6e57634e487b7160e01b600052602160045260246000fd5b8152602001614ba56040518060a0016040528060008152602001600081526020016000815260200160008152602001600081525090565b905290565b828054614bb690615304565b90600052602060002090601f016020900481019282614bd85760008555614c1e565b82601f10614bf157805160ff1916838001178555614c1e565b82800160010185558215614c1e579182015b82811115614c1e578251825591602001919060010190614c03565b50614c2a929150614c2e565b5090565b5b80821115614c2a5760008155600101614c2f565b600082601f830112614c53578081fd5b813567ffffffffffffffff80821115614c6e57614c6e615370565b604051601f8301601f19908116603f01168101908282118183101715614c9657614c96615370565b81604052838152866020858801011115614cae578485fd5b8360208701602083013792830160200193909352509392505050565b60008060008060808587031215614cdf578384fd5b84356001600160a01b0381168114614cf5578485fd5b9350602085013567ffffffffffffffff80821115614d11578485fd5b614d1d88838901614c43565b94506040870135915080821115614d32578384fd5b614d3e88838901614c43565b93506060870135915080821115614d53578283fd5b50614d6087828801614c43565b91505092959194509250565b60008060408385031215614d7e578182fd5b823567ffffffffffffffff80821115614d95578384fd5b614da186838701614c43565b93506020850135915080821115614db6578283fd5b50614dc385828601614c43565b9150509250929050565b600060208284031215614dde578081fd5b5035919050565b600e8110614e0357634e487b7160e01b600052602160045260246000fd5b9052565b60008151808452815b81811015614e2c57602081850181015186830182015201614e10565b81811115614e3d5782602083870101525b50601f01601f19169290920160200192915050565b600060018060a01b03825116835260208201516020840152604082015160806040850152614e836080850182614e07565b905060608301518482036060860152614e9c8282614e07565b95945050505050565b6000610160825184526020830151816020860152614ec582860182614e07565b91505060408301518482036040860152614edf8282614e07565b915050606083015160608501526080830151608085015260a0830151614f0860a0860182614de5565b5060c0830151614f4660c086018280518252602081015160208301526040810151604083015260608101516060830152608081015160808301525050565b509392505050565b600060018060a01b038616825284602083015260806040830152614f756080830185614e07565b8281036060840152614f878185614e07565b979650505050505050565b6000602080830181845280855180835260408601915060408482028701019250838701855b82811015614fe557603f19888603018452614fd3858351614e52565b94509285019290850190600101614fb7565b5092979650505050505050565b6000602080830181845280855180835260408601915060408482028701019250838701855b82811015614fe557603f19888603018452615033858351614ea5565b94509285019290850190600101615017565b602081016150538284614de5565b92915050565b60006020825261506c6020830184614e07565b9392505050565b60208082526010908201526f125b9d985b1a59081858dd1bdc88125160821b604082015260600190565b60208082526021908201527f556e617574686f72697a656420746f207570646174652074686973206163746f6040820152603960f91b606082015260800190565b60208082526024908201527f5468652070726f64756374206973206e6f7420696e2074686520426c6f636b636040820152633430b4b760e11b606082015260800190565b60208082526025908201527f5468652075736572206973206e6f74206120726567697374657265642072657460408201526430b4b632b960d91b606082015260800190565b6020808252603c908201527f596f7520646f6e277420686176652074686520726967687420746f206d6f646960408201527f6679207468652070726f64756374206174207468697320737461676500000000606082015260800190565b6020808252602e908201527f4e6f206163746f7220666f756e642074686174206d617463686573207468652060408201526d73706563696669636174696f6e7360901b606082015260800190565b602080825260129082015271125b9d985b1a5908141c9bd91d58dd08125160721b604082015260600190565b60006020825261506c6020830184614e52565b60006020825261506c6020830184614ea5565b600061016089835280602084015261527e8184018a614e07565b905082810360408401526152928189614e07565b9150508560608301528460808301526152ae60a0830185614de5565b825160c0830152602083015160e083015260408301516101008301526060830151610120830152608083015161014083015298975050505050505050565b600082198211156152ff576152ff61535a565b500190565b60028104600182168061531857607f821691505b6020821081141561533957634e487b7160e01b600052602260045260246000fd5b50919050565b60006000198214156153535761535361535a565b5060010190565b634e487b7160e01b600052601160045260246000fd5b634e487b7160e01b600052604160045260246000fdfeb77c7d6bf62fa24fc205955093030c58325cd2d3d35fb486ede7594fb99635f5e6177e73b6c04b0318a0dc22e6d8cdee33c8c7029db9046248de998d24e170db1534e98f9dd33e3681193a0541f0c2e3d732d183dcdc630aac2b943280af42a0cec9b8e63c868f2f7f30368f1583e7aa39ae80e163d57a859fa5a90244b28ac1a19d0db335544d3c3ec35c34b9b35a51bd4861f7162de07d5af409611794db04a2646970667358221220c8cafc3b002e1ccd05b7e65e34bfeccac5d85f1447d5fba4d92e583324b6a61164736f6c63430008020033",
  "immutableReferences": {},
  "source": "// SPDX-License-Identifier: MIT\r\npragma solidity ^0.8.0;\r\n\r\n// Super Interface for a generic supply chain\r\ncontract ISupplyChain {\r\n    //Smart Contract owner will be the person who deploys the contract only he can authorize various roles like retailer, Manufacturer,etc\r\n    address public Owner;\r\n\r\n    //note this constructor will be called when smart contract will be deployed on blockchain\r\n    constructor() {\r\n        Owner = msg.sender;\r\n    }\r\n\r\n    modifier onlyByOwner() {\r\n        require(msg.sender == Owner);\r\n        _;\r\n    }\r\n\r\n    /* =============================================\r\n    **  STRUCTS & ENUMS\r\n    ** ============================================= */\r\n    // This tacking info is used to store information of the actors that completed each step\r\n    // and produced the product till it-s finally sold to the customer\r\n    // This structure is \"OPTIONAL\" and used to improve visibility.\r\n    // Indeed, the tracking information may be just recovered using the transactions on the blockchain\r\n    // related to a certain productID\r\n    struct Tracking {\r\n        uint256 providerID;\r\n        uint256 supplierID;\r\n        uint256 manufacturerID;\r\n        uint256 distributorID;\r\n        uint256 retailerID;\r\n    }\r\n\r\n    // The product structure is used to keep trac of an ordered product\r\n    struct Product {\r\n        uint256 id;                 // Product id (S/N)\r\n        string  name;               // Product name\r\n        string  description;        // Product description\r\n        uint256 lastModifiedBy;     // Last Actor Id\r\n        uint256 requireResponseBy;  // In case of exchange, it might bind he\r\n        PHASE phase;                // Current Product Phase\r\n        Tracking tracking;          // Final Tracking information\r\n    }\r\n\r\n    // The Actor struct defines basic information about supply chain actors\r\n    struct Actor {\r\n        address ethAddress;      // Node ETH address\r\n        uint256 id;              // ID - Might be a P.IVA\r\n        string  name;            // Actor Name (Company name)\r\n        string  businessAddress; // Business Address\r\n    }\r\n\r\n    // Enumerator to keep track of current phase\r\n    enum PHASE {\r\n        Init,                           // Product has been ordered\r\n        ResourceExtraction_Started,     // Collection of materials was taken by provider\r\n        ResourceExtraction_Failed,      // Resource failed QA inspection, need re-collection\r\n        ResourceExtraction_Completed,   // Resource collected, ready for next phase\r\n        ResourceSupply_Started,         // Supplier accepts supply request\r\n        ResourceSupply_Failed,          // Resources failed inspection, need re-supply\r\n        ResourceSupply_Completed,       // All materials have been supplied successfully\r\n        Manufacturing_Started,          // Manufacturing Start\r\n        Manufacturing_Completed,        // Manufacturing Finish\r\n        Distribution_Started,           // Distribution Start\r\n        Distribution_Failed,            // Product Damaged, impossible to sell, or not arrived\r\n        Distribution_Completed,         // Distribution Finished successfully. Ready to be sold.\r\n        Retail,                         // Retailer accepts to sell the product\r\n        Sold                            // Product sold to end customer\r\n    }\r\n\r\n    /* =============================================\r\n    **  GLOBALS\r\n    ** ============================================= */\r\n\r\n    // Mappings\r\n    // Store all products on the blockchain\r\n    mapping(uint256 => Product) public Stock;\r\n    // Export material logistic providers on the blockchain\r\n    mapping(uint256 => Actor) public Providers;\r\n    // Export suppliers on the blockchain\r\n    mapping(uint256 => Actor) public Suppliers;\r\n    // Export manufacturers on the blockchain\r\n    mapping(uint256 => Actor) public Manufacturers;\r\n    // Export distributors on the blockchain\r\n    mapping(uint256 => Actor) public Distributors;\r\n    // Export retailers on the blockchain\r\n    mapping(uint256 => Actor) public Retailers;\r\n\r\n    // Counters\r\n\r\n    // Keeps Product count\r\n    uint256 private _productCounter = 0;\r\n    // Raw material provider count\r\n    uint256 private _providersCounter = 0;\r\n    // Raw material supplier count\r\n    uint256 private _suppliersCounter = 0;\r\n    // Manufacturer count\r\n    uint256 private _manufacturersCounter = 0;\r\n    // Distributor count\r\n    uint256 private _distributorsCounter = 0;\r\n    // Retailer count\r\n    uint256 private _retailersCounter = 0;\r\n\r\n    /* =============================================\r\n    ** PRODUCT\r\n    ** ============================================= */\r\n    // Expose Method to get Product phase\r\n    function getProductPhase(uint256 _productID) public view returns(PHASE phase) {\r\n        require(_productID > 0 && _productID <= _providersCounter, \"Invalid Product ID\");\r\n        return Stock[_productID].phase;\r\n    }\r\n\r\n    // Expose Method to get Product count\r\n    function getProductCount() public view returns(uint256 count) {\r\n        return _productCounter;\r\n    }\r\n\r\n    // Expose Method to get Products as an array\r\n    function getProductsArray() public view returns(Product[] memory) {\r\n        Product[] memory products = new Product[](_productCounter);\r\n        for (uint256 i = 0; i < _productCounter; i++) {\r\n            products[i] = Stock[i + 1];\r\n        }\r\n        return products;\r\n    }\r\n\r\n    // Expose Method to get Product by ID\r\n    function getProductById(uint256 _productID) public view returns(Product memory) {\r\n        require(validateProductId(_productID), \"Invalid Product Id\");\r\n        return Stock[_productID];\r\n    }\r\n\r\n    // Expose Product order status to client applications\r\n    function showPhase(uint256 _productID) public view returns (string memory)\r\n    {\r\n        require(_productID > 0 && _productID <= _productCounter, \"Invalid Product ID\");\r\n        if (Stock[_productID].phase == PHASE.Init)\r\n            return \"Product Ordered\";\r\n        else if (\r\n            Stock[_productID].phase == PHASE.ResourceExtraction_Started ||\r\n            Stock[_productID].phase == PHASE.ResourceExtraction_Completed ||\r\n            Stock[_productID].phase == PHASE.ResourceExtraction_Failed\r\n        )\r\n            return \"Resource Extraction Phase\";\r\n        else if (\r\n            Stock[_productID].phase == PHASE.ResourceSupply_Started ||\r\n            Stock[_productID].phase == PHASE.ResourceSupply_Completed ||\r\n            Stock[_productID].phase == PHASE.ResourceSupply_Failed\r\n        )\r\n            return \"Resource Supply Phase\";\r\n        else if (\r\n            Stock[_productID].phase == PHASE.Manufacturing_Started ||\r\n            Stock[_productID].phase == PHASE.Manufacturing_Completed\r\n        )\r\n            return \"Manufacturing Phase\";\r\n        else if (\r\n            Stock[_productID].phase == PHASE.Distribution_Started ||\r\n            Stock[_productID].phase == PHASE.Distribution_Completed ||\r\n            Stock[_productID].phase == PHASE.Distribution_Failed\r\n        )\r\n            return \"Distribution Phase\";\r\n        else if (Stock[_productID].phase == PHASE.Retail)\r\n            return \"Retail Phase\";\r\n        else if (Stock[_productID].phase == PHASE.Sold)\r\n            return \"Product Sold\";\r\n        else\r\n            return \"Unknown State\";\r\n    }\r\n\r\n    /* =============================================\r\n    ** ACTORS\r\n    ** ============================================= */\r\n\r\n    function getProvidersCount() public view returns(uint256 count) {\r\n        return _providersCounter;\r\n    }\r\n\r\n    function getDistributorsCount() public view returns(uint256 count) {\r\n        return _distributorsCounter;\r\n    }\r\n\r\n    function getSuppliersCount() public view returns(uint256 count) {\r\n        return _suppliersCounter;\r\n    }\r\n\r\n    function getManufacturersCount() public view returns(uint256 count) {\r\n        return _manufacturersCounter;\r\n    }\r\n\r\n    function getRetailersCount() public view returns(uint256 count) {\r\n        return _retailersCounter;\r\n    }\r\n\r\n    // Expose Method to get Retailers as an array\r\n    function getRetailersArray() public view returns(Actor[] memory) {\r\n        Actor[] memory actors = new Actor[](_retailersCounter);\r\n        for (uint256 i = 0; i < _retailersCounter; i++) {\r\n            actors[i] = Retailers[i + 1];\r\n        }\r\n        return actors;\r\n    }\r\n\r\n    // Expose Method to get Suppliers as an array\r\n    function getSuppliersArray() public view returns(Actor[] memory) {\r\n        Actor[] memory actors = new Actor[](_suppliersCounter);\r\n        for (uint256 i = 0; i < _suppliersCounter; i++) {\r\n            actors[i] = Suppliers[i + 1];\r\n        }\r\n        return actors;\r\n    }\r\n\r\n    // Expose Method to get Manufacturers as an array\r\n    function getManufacturersArray() public view returns(Actor[] memory) {\r\n        Actor[] memory actors = new Actor[](_manufacturersCounter);\r\n        for (uint256 i = 0; i < _manufacturersCounter; i++) {\r\n            actors[i] = Manufacturers[i + 1];\r\n        }\r\n        return actors;\r\n    }\r\n\r\n    // Expose Method to get Providers as an array\r\n    function getProvidersArray() public view returns(Actor[] memory) {\r\n        Actor[] memory actors = new Actor[](_providersCounter);\r\n        for (uint256 i = 0; i < _providersCounter; i++) {\r\n            actors[i] = Providers[i + 1];\r\n        }\r\n        return actors;\r\n    }\r\n\r\n    // Expose Method to get Distributors as an array\r\n    function getDistributorsArray() public view returns(Actor[] memory) {\r\n        Actor[] memory actors = new Actor[](_distributorsCounter);\r\n        for (uint256 i = 0; i < _distributorsCounter; i++) {\r\n            actors[i] = Distributors[i + 1];\r\n        }\r\n        return actors;\r\n    }\r\n\r\n    function _addProvider(\r\n        address _ethAddress,\r\n        string memory _name,\r\n        string memory _businessAddress\r\n    ) private onlyByOwner() {\r\n        _providersCounter++;\r\n        Providers[_providersCounter] = Actor(_ethAddress, _providersCounter, _name, _businessAddress);\r\n    }\r\n\r\n    function _addSupplier(\r\n        address _ethAddress,\r\n        string memory _name,\r\n        string memory _businessAddress\r\n    ) private onlyByOwner() {\r\n        _suppliersCounter++;\r\n        Suppliers[_suppliersCounter] = Actor(_ethAddress, _suppliersCounter, _name, _businessAddress);\r\n    }\r\n\r\n    function _addManufacturer(\r\n        address _ethAddress,\r\n        string memory _name,\r\n        string memory _businessAddress\r\n    ) private onlyByOwner() {\r\n        _manufacturersCounter++;\r\n        Manufacturers[_manufacturersCounter] = Actor(_ethAddress, _manufacturersCounter, _name, _businessAddress);\r\n    }\r\n\r\n    function _addDistributor(\r\n        address _ethAddress,\r\n        string memory _name,\r\n        string memory _businessAddress\r\n    ) private onlyByOwner() {\r\n        _distributorsCounter++;\r\n        Distributors[_distributorsCounter] = Actor(_ethAddress, _distributorsCounter, _name, _businessAddress);\r\n    }\r\n\r\n    function _addRetailer(\r\n        address _ethAddress,\r\n        string memory _name,\r\n        string memory _businessAddress\r\n    ) private onlyByOwner() {\r\n        _retailersCounter++;\r\n        Retailers[_retailersCounter] = Actor(_ethAddress, _retailersCounter, _name, _businessAddress);\r\n    }\r\n\r\n    function _isRegistered(\r\n        address _ethAddress\r\n    ) private view onlyByOwner() returns(bool){\r\n        uint256 _id = 0;\r\n        bool _valid = false;\r\n        if(atLeastOneDistributor()) {\r\n            (_id, _valid) = _isDistributor(_ethAddress);\r\n            if (_valid) return _valid;\r\n        }\r\n        if(atLeastOneRetailer()) {\r\n            (_id, _valid) = _isRetailer(_ethAddress);\r\n            if (_valid) return _valid;\r\n        }\r\n        if(atLeastOneManufacturer()) {\r\n            (_id, _valid) = _isManufacturer(_ethAddress);\r\n            if (_valid) return _valid;\r\n        }\r\n        if(atLeastOneSupplier()) {\r\n            (_id, _valid) = _isSupplier(_ethAddress);\r\n            if (_valid) return _valid;\r\n        }\r\n        if(atLeastOneProvider()) {\r\n            (_id, _valid) = _isProvider(_ethAddress);\r\n            if (_valid) return _valid;\r\n        }\r\n\r\n        return false;\r\n\r\n    }\r\n\r\n    function _addActor(\r\n        address _ethAddress,\r\n        string memory _role,\r\n        string memory _name,\r\n        string memory _businessAddress\r\n    ) private onlyByOwner() {\r\n        require(_isRegistered(_ethAddress) == false, \"User Already Registered\");\r\n\r\n        if(keccak256(bytes(_role)) == keccak256(bytes(\"Provider\"))){\r\n            _addProvider(_ethAddress, _name, _businessAddress);\r\n        } else if (keccak256(bytes(_role)) == keccak256(bytes(\"Supplier\"))) {\r\n            _addSupplier(_ethAddress, _name, _businessAddress);\r\n        } else if (keccak256(bytes(_role)) == keccak256(bytes(\"Manufacturer\"))) {\r\n            _addManufacturer(_ethAddress, _name, _businessAddress);\r\n        } else if (keccak256(bytes(_role)) == keccak256(bytes(\"Distributor\"))) {\r\n            _addDistributor(_ethAddress, _name, _businessAddress);\r\n        } else if (keccak256(bytes(_role)) == keccak256(bytes(\"Retailer\"))) {\r\n            _addRetailer(_ethAddress, _name, _businessAddress);\r\n        } else {\r\n            revert(\"Unknown Role Specified\");\r\n        }\r\n    }\r\n\r\n    function addActor(\r\n        address _ethAddress,\r\n        string memory _role,\r\n        string memory _name,\r\n        string memory _businessAddress\r\n    ) virtual public onlyByOwner(){\r\n\r\n        _addActor(_ethAddress, _role, _name, _businessAddress);\r\n    }\r\n\r\n    function _updateSupplier(\r\n        uint256 _id,\r\n        string memory _name,\r\n        string memory _businessAddress\r\n    ) private {\r\n        require(\r\n            _id > 0 && _id < _manufacturersCounter,\r\n            \"No actor found that matches the specifications\"\r\n        );\r\n        Actor memory actor = Suppliers[_id];\r\n        require(\r\n            msg.sender == Owner ||\r\n            msg.sender == actor.ethAddress,\r\n            \"Unauthorized to update this actor\"\r\n        );\r\n        if (\r\n            keccak256(bytes(_name)) != keccak256(bytes(actor.name)) ||\r\n\t\t\tkeccak256(bytes(_businessAddress)) != keccak256(bytes(actor.businessAddress))\r\n\t\t\t){\r\n            Suppliers[_id].name = _name;\r\n            Suppliers[_id].businessAddress = _businessAddress;\r\n        }\r\n    }\r\n    function _updateManufacturer(\r\n        uint256 _id,\r\n        string memory _name,\r\n        string memory _businessAddress\r\n    ) private {\r\n        require(\r\n            _id > 0 && _id < _manufacturersCounter,\r\n            \"No actor found that matches the specifications\"\r\n        );\r\n        Actor memory actor = Manufacturers[_id];\r\n        require(\r\n            msg.sender == Owner ||\r\n            msg.sender == actor.ethAddress,\r\n            \"Unauthorized to update this actor\"\r\n        );\r\n        if (\r\n            keccak256(bytes(_name)) != keccak256(bytes(actor.name)) ||\r\n\t\t\tkeccak256(bytes(_businessAddress)) != keccak256(bytes(actor.businessAddress))\r\n\t\t\t){\r\n            Manufacturers[_id].name = _name;\r\n            Manufacturers[_id].businessAddress = _businessAddress;\r\n        }\r\n    }\r\n    function _updateProvider(\r\n        uint256 _id,\r\n        string memory _name,\r\n        string memory _businessAddress\r\n    ) private {\r\n        require(_id > 0 && _id < _providersCounter, \"No actor found that matches the specifications\");\r\n        Actor memory actor = Providers[_id];\r\n        require(\r\n            msg.sender == Owner ||\r\n            msg.sender == actor.ethAddress,\r\n            \"Unauthorized to update this actor\"\r\n        );\r\n        if (\r\n            keccak256(bytes(_name)) != keccak256(bytes(actor.name)) ||\r\n\t\t\tkeccak256(bytes(_businessAddress)) != keccak256(bytes(actor.businessAddress))\r\n\t\t\t){\r\n            Providers[_id].name = _name;\r\n            Providers[_id].businessAddress = _businessAddress;\r\n        }\r\n    }\r\n    function _updateDistributor(\r\n        uint256 _id,\r\n        string memory _name,\r\n        string memory _businessAddress\r\n    ) private {\r\n        require(_id > 0 && _id < _distributorsCounter, \"No actor found that matches the specifications\");\r\n        Actor memory actor = Distributors[_id];\r\n        require(\r\n            msg.sender == Owner ||\r\n            msg.sender == actor.ethAddress,\r\n            \"Unauthorized to update this actor\"\r\n        );\r\n        if (\r\n            keccak256(bytes(_name)) != keccak256(bytes(actor.name)) ||\r\n\t\t\tkeccak256(bytes(_businessAddress)) != keccak256(bytes(actor.businessAddress))\r\n\t\t\t){\r\n            Distributors[_id].name = _name;\r\n            Distributors[_id].businessAddress = _businessAddress;\r\n        }\r\n    }\r\n    function _updateRetailer(\r\n        uint256 _id,\r\n        string memory _name,\r\n        string memory _businessAddress\r\n    ) private {\r\n        require(_id > 0 && _id < _retailersCounter, \"No actor found that matches the specifications\");\r\n        Actor memory actor = Retailers[_id];\r\n        require(\r\n            msg.sender == Owner ||\r\n            msg.sender == actor.ethAddress,\r\n            \"Unauthorized to update this actor\"\r\n        );\r\n        if (\r\n            keccak256(bytes(_name)) != keccak256(bytes(actor.name)) ||\r\n\t\t\tkeccak256(bytes(_businessAddress)) != keccak256(bytes(actor.businessAddress))\r\n\t\t\t){\r\n            Retailers[_id].name = _name;\r\n            Retailers[_id].businessAddress = _businessAddress;\r\n        }\r\n    }\r\n\r\n    function updateActor(\r\n        address _ethAddress,\r\n        string memory _role,\r\n        string memory _name,\r\n        string memory _businessAddress\r\n    ) virtual public {\r\n        uint256 _id;\r\n        require(msg.sender == Owner || msg.sender == _ethAddress, \"Access Denied\");\r\n\r\n        if(keccak256(bytes(_role)) == keccak256(bytes(\"Provider\"))){\r\n             _updateProvider(_id, _name, _businessAddress);\r\n        } else if (keccak256(bytes(_role)) == keccak256(bytes(\"Supplier\"))) {\r\n            _updateSupplier(_id, _name, _businessAddress);\r\n        } else if (keccak256(bytes(_role)) == keccak256(bytes(\"Manufacturer\"))) {\r\n            _updateManufacturer(_id, _name, _businessAddress);\r\n        } else if (keccak256(bytes(_role)) == keccak256(bytes(\"Distributor\"))) {\r\n            _updateDistributor(_id, _name, _businessAddress);\r\n        } else if (keccak256(bytes(_role)) == keccak256(bytes(\"Retailer\"))) {\r\n            _updateRetailer(_id, _name, _businessAddress);\r\n        } else {\r\n            revert(\"Unknown Role Specified\");\r\n        }\r\n    }\r\n\r\n    function getProviderById(uint256 _id) public view returns(Actor memory) {\r\n        require(_providersCounter > 0);\r\n        require(_id > 0 && _id <= _providersCounter, \"Invalid actor ID\");\r\n        return Providers[_id];\r\n    }\r\n    function getSupplierById(uint256 _id) public view returns(Actor memory) {\r\n        require(_suppliersCounter > 0);\r\n        require(_id > 0 && _id <= _suppliersCounter, \"Invalid actor ID\");\r\n        return Suppliers[_id];\r\n    }\r\n    function getManufacturerById(uint256 _id) public view returns(Actor memory) {\r\n        require(_manufacturersCounter > 0);\r\n        require(_id > 0 && _id <= _manufacturersCounter, \"Invalid actor ID\");\r\n        return Manufacturers[_id];\r\n    }\r\n    function getDistributorById(uint256 _id) public view returns(Actor memory) {\r\n        require(_distributorsCounter > 0);\r\n        require(_id > 0 && _id <= _distributorsCounter, \"Invalid actor ID\");\r\n        return Distributors[_id];\r\n    }\r\n\r\n    function getRetailerById(uint256 _id) public view returns(Actor memory) {\r\n        require(_retailersCounter > 0);\r\n        require(_id > 0 && _id <= _retailersCounter, \"Invalid actor ID\");\r\n        return Retailers[_id];\r\n    }\r\n\r\n    function findRetailerByEthAddress(address _address) private view returns (uint256) {\r\n        require(_retailersCounter > 0);\r\n        for (uint256 i = 1; i <= _retailersCounter; i++) {\r\n            if (Retailers[i].ethAddress == _address) return Retailers[i].id;\r\n        }\r\n        return 0;\r\n    }\r\n\r\n    function findActorByEthAddress(address _address) private view returns (uint256, string memory) {\r\n        require(atLeastOneActor(), \"No actor registered\");\r\n\r\n        uint256 actor = findRetailerByEthAddress(_address);\r\n        if(actor > 0) return (actor, \"Retailer\");\r\n\r\n        actor = findProviderByEthAddress(_address);\r\n        if(actor > 0) return (actor, \"Provider\");\r\n\r\n        actor = findSupplierByEthAddress(_address);\r\n        if(actor > 0) return (actor, \"Supplier\");\r\n\r\n        actor = findManufacturerByEthAddress(_address);\r\n        if(actor > 0) return (actor, \"Manufacturer\");\r\n\r\n        actor = findDistributorByEthAddress(_address);\r\n        if(actor > 0) return (actor, \"Distributor\");\r\n\r\n        return (0, \"\");\r\n    }\r\n\r\n    function findSupplierByEthAddress(address _address) private view returns (uint256) {\r\n        require(_suppliersCounter > 0);\r\n        for (uint256 i = 1; i <= _suppliersCounter; i++) {\r\n            if (Suppliers[i].ethAddress == _address) return Suppliers[i].id;\r\n        }\r\n        return 0;\r\n    }\r\n\r\n    function findManufacturerByEthAddress(address _address) private view returns (uint256) {\r\n        require(_manufacturersCounter > 0);\r\n        for (uint256 i = 1; i <= _manufacturersCounter; i++) {\r\n            if (Manufacturers[i].ethAddress == _address) return Manufacturers[i].id;\r\n        }\r\n        return 0;\r\n    }\r\n\r\n    function findProviderByEthAddress(address _address) private view returns (uint256) {\r\n        require(_providersCounter > 0);\r\n        for (uint256 i = 1; i <= _providersCounter; i++) {\r\n            if (Providers[i].ethAddress == _address) return Providers[i].id;\r\n        }\r\n        return 0;\r\n    }\r\n\r\n    function findDistributorByEthAddress(address _address) private view returns (uint256) {\r\n        require(_distributorsCounter > 0);\r\n        for (uint256 i = 1; i <= _distributorsCounter; i++) {\r\n            if (Distributors[i].ethAddress == _address) return Distributors[i].id;\r\n        }\r\n        return 0;\r\n    }\r\n\r\n    function atLeastOneRetailer() private view returns(bool){\r\n        return _retailersCounter > 0;\r\n    }\r\n\r\n    function atLeastOneSupplier() private view returns(bool){\r\n        return _suppliersCounter > 0;\r\n    }\r\n\r\n    function atLeastOneManufacturer() private view returns(bool){\r\n        return _manufacturersCounter > 0;\r\n    }\r\n\r\n    function atLeastOneProvider() private view returns(bool){\r\n        return _providersCounter > 0;\r\n    }\r\n\r\n    function atLeastOneDistributor() private view returns(bool){\r\n        return _distributorsCounter > 0;\r\n    }\r\n\r\n    function atLeastOneActor() private view returns(bool){\r\n        return (\r\n            atLeastOneDistributor() &&\r\n            atLeastOneManufacturer() &&\r\n            atLeastOneProvider() &&\r\n            atLeastOneSupplier() &&\r\n            atLeastOneRetailer()\r\n        );\r\n    }\r\n\r\n    function _validateProductId(uint256 _productID) private view returns(bool){\r\n        return (_productID > 0 && _productID <= _productCounter);\r\n    }\r\n\r\n    function _isRetailer(address _ethAddress) private view returns(uint256, bool){\r\n        uint256 _id = findRetailerByEthAddress(_ethAddress);\r\n        return (_id, _id > 0);\r\n    }\r\n\r\n    function _isSupplier(address _ethAddress) private view returns(uint256, bool){\r\n        uint256 _id = findSupplierByEthAddress(_ethAddress);\r\n        return (_id, _id > 0);\r\n    }\r\n\r\n    function _isManufacturer(address _ethAddress) private view returns(uint256, bool){\r\n        uint256 _id = findManufacturerByEthAddress(_ethAddress);\r\n        return (_id, _id > 0);\r\n    }\r\n\r\n    function _isProvider(address _ethAddress) private view returns(uint256, bool){\r\n        uint256 _id = findProviderByEthAddress(_ethAddress);\r\n        return (_id, _id > 0);\r\n    }\r\n\r\n    function _isDistributor(address _ethAddress) private view returns(uint256, bool){\r\n        uint256 _id = findDistributorByEthAddress(_ethAddress);\r\n        return (_id, _id > 0);\r\n    }\r\n\r\n    function validateProductId(uint256 _productID) public view returns(bool){\r\n        require(_productID > 0 && _productID <= _productCounter, \"Invalid Product Id\");\r\n        return true;\r\n    }\r\n\r\n    function isRetailer() public view returns(uint256, bool){\r\n        return _isRetailer(msg.sender);\r\n    }\r\n\r\n    function isSupplier() public view returns(uint256, bool){\r\n        return _isSupplier(msg.sender);\r\n    }\r\n\r\n    function isManufacturer() public view returns(uint256, bool){\r\n        return _isManufacturer(msg.sender);\r\n    }\r\n\r\n    function isProvider() public view returns(uint256, bool){\r\n        return _isProvider(msg.sender);\r\n    }\r\n\r\n    function isDistributor() public view returns(uint256, bool){\r\n        return _isDistributor(msg.sender);\r\n    }\r\n\r\n    /* =============================================\r\n    ** Phase Update Functions\r\n    ** ============================================= */\r\n    function retail(uint256 _productID) public {\r\n        // Ensure that the product ID is within the ones present in Stock (i.e., have been ordered)\r\n        require(validateProductId(_productID), \"The product is not in the Blockchain\");\r\n        // Ensure that the caller is a Retailer\r\n        (uint256 _id, bool _isValid) = isRetailer();\r\n        require(_isValid, \"The user is not a registered retailer\");\r\n        // Ensure that the product is in correct stage\r\n        require(Stock[_productID].phase == PHASE.Distribution_Completed, \"You don't have the right to modify the product at this stage\");\r\n        // Mark the distributor\r\n        Stock[_productID].tracking.distributorID = Stock[_productID].lastModifiedBy;\r\n        // Mark latest modified by\r\n        Stock[_productID].lastModifiedBy = _id;\r\n        // Mark product as ready for retail\r\n        Stock[_productID].phase = PHASE.Retail;\r\n\r\n    }\r\n\r\n    function sell(uint256 _productID) public {\r\n        // Ensure that the product ID is within the ones present in Stock (i.e., have been ordered)\r\n        require(validateProductId(_productID), \"The product is not in the Blockchain\");\r\n        // Ensure that the caller is a Retailer\r\n        (uint256 _id, bool _isValid) = isRetailer();\r\n        require(_isValid, \"The user is not a registered retailer\");\r\n        // Ensure that the product is in correct stage\r\n        require(Stock[_productID].phase == PHASE.Retail, \"You don't have the right to modify the product at this stage\");\r\n        // Mark the retailer as well\r\n        Stock[_productID].tracking.retailerID = _id;\r\n        // Mark latest modified by\r\n        Stock[_productID].lastModifiedBy = _id;\r\n        // Mark product as sold\r\n        Stock[_productID].phase = PHASE.Sold;\r\n    }\r\n\r\n    function startResourceExtraction(uint256 _productID) virtual public {\r\n        // Ensure that the product ID is within the ones present in Stock (i.e., have been ordered)\r\n        require(validateProductId(_productID), \"The product is not in the Blockchain\");\r\n        // Ensure that the caller is a Provider\r\n        (uint256 _id, bool _isValid) = isProvider();\r\n        require(_isValid, \"The user is not a registered provider\");\r\n        // Ensure that the product is in correct stage\r\n        require(\r\n            Stock[_productID].phase == PHASE.Init ||\r\n            Stock[_productID].phase == PHASE.ResourceExtraction_Failed,\r\n            \"You don't have the right to modify the product at this stage\"\r\n        );\r\n        uint256 _responseAssignedTo = 0;\r\n        // If we are in the Init stage, any provider can take ownership\r\n        // Otherwise, the owning provider needs to adjust\r\n        if(Stock[_productID].phase == PHASE.ResourceExtraction_Failed) {\r\n            require(findProviderByEthAddress(msg.sender) == Stock[_productID].requireResponseBy, \"Access Denied\");\r\n            // This step depends by a design choice\r\n            // It is possible to either re-send the resource to the same supplier:\r\n            //     Stock[_productID].requireResponseBy = Stock[_productID].lastModifiedBy;\r\n            //     Stock[_productID].lastModifiedBy = _id;\r\n            // Or it is possible to just re-send to QA step and to ANY supplier, in which case\r\n            //     Stock[_productID].requireResponseBy = 0;\r\n            require(\r\n                getSupplierById(Stock[_productID].lastModifiedBy).id > 0,\r\n                \"Error. Request not coming from a Provider\"\r\n            );\r\n            // After updating the stage, the materials will be resent to the same provider\r\n            _responseAssignedTo = Stock[_productID].lastModifiedBy;\r\n        }\r\n        // Finally, update product stage\r\n        Stock[_productID].lastModifiedBy = _id;\r\n        Stock[_productID].requireResponseBy = _responseAssignedTo;\r\n        Stock[_productID].phase = PHASE.ResourceExtraction_Started;\r\n    }\r\n\r\n    function addNewProduct(string memory _name, string memory _description) public onlyByOwner()\r\n    {\r\n        require(atLeastOneActor(), \"The supply chain is missing the required entities to operate\");\r\n        _productCounter++;\r\n\r\n        Stock[_productCounter] = Product(\r\n            _productCounter,\r\n            _name,\r\n            _description,\r\n            0,\r\n            0,\r\n            PHASE.Init,\r\n            Tracking(0, 0, 0, 0, 0)\r\n        );\r\n    }\r\n\r\n    /* =============================================\r\n    ** Abstract Phase Update Functions\r\n    ** ============================================= */\r\n    // These functions need to be implemented by sub-contracts\r\n\r\n    // Although not fully customisable, this configuration allows\r\n    // the user to define different kind of supply chains\r\n\r\n    function completeResourceExtraction(uint256 _productID) virtual public{}\r\n    function failResourceExtraction(uint256 _productID) virtual public{}\r\n\r\n    function startResourceSupply(uint256 _productID) virtual public{}\r\n    function completeResourceSupply(uint256 _productID) virtual public{}\r\n    function failResourceSupply(uint256 _productID) virtual public{}\r\n\r\n    function startManufacturing(uint256 _productID) virtual public{}\r\n    function completeManufacturing(uint256 _productID) virtual public{}\r\n\r\n    function startDistribution(uint256 _productID) virtual public{}\r\n    function completeDistribution(uint256 _productID) virtual public{}\r\n    function failDistribution(uint256 _productID) virtual public{}\r\n\r\n    /*\r\n    * Wrapper functions: These embeds the functionality to advance or revert\r\n    * the supply chain state\r\n    */\r\n\r\n    function acceptPhase(uint256 _productID) virtual public{\r\n        require(_productID > 0 && _productID <= _productCounter, \"Invalid Product ID\");\r\n\r\n        (uint256 _operator, string memory _operatorRole) = findActorByEthAddress(msg.sender);\r\n        require(_operator > 0, \"Actor not found\");\r\n\r\n        Product memory product = Stock[_productID];\r\n        if(keccak256(bytes(_operatorRole)) == keccak256(bytes(\"Provider\"))){\r\n            if (product.phase == PHASE.Init) startResourceExtraction(_productID);\r\n            else if (\r\n                product.phase == PHASE.ResourceExtraction_Failed ||\r\n                product.phase == PHASE.ResourceExtraction_Started\r\n            ) completeResourceExtraction(_productID);\r\n        }\r\n        else if(keccak256(bytes(_operatorRole)) == keccak256(bytes(\"Supplier\"))){\r\n            if (product.phase == PHASE.ResourceExtraction_Completed) startResourceSupply(_productID);\r\n            else if (\r\n                product.phase == PHASE.ResourceSupply_Failed ||\r\n                product.phase == PHASE.ResourceSupply_Started\r\n            ) completeResourceSupply(_productID);\r\n        }\r\n        else if(keccak256(bytes(_operatorRole)) == keccak256(bytes(\"Manufacturer\"))){\r\n            if (product.phase == PHASE.ResourceSupply_Completed) startManufacturing(_productID);\r\n            else if (\r\n                product.phase == PHASE.Manufacturing_Started\r\n            ) completeManufacturing(_productID);\r\n        }\r\n        else if(keccak256(bytes(_operatorRole)) == keccak256(bytes(\"Distributor\"))){\r\n            if (product.phase == PHASE.Manufacturing_Completed) startDistribution(_productID);\r\n            else if (\r\n                product.phase == PHASE.Distribution_Started ||\r\n                product.phase == PHASE.Distribution_Failed\r\n            ) completeDistribution(_productID);\r\n        }\r\n        else if(keccak256(bytes(_operatorRole)) == keccak256(bytes(\"Retailer\"))){\r\n            if (product.phase == PHASE.Distribution_Completed) retail(_productID);\r\n            else if (\r\n                product.phase == PHASE.Retail\r\n            ) sell(_productID);\r\n        }\r\n    }\r\n\r\n    function rejectPhase(uint256 _productID) virtual public{\r\n        require(_productID > 0 && _productID <= _productCounter, \"Invalid Product ID\");\r\n\r\n        (uint256 _operator, string memory _operatorRole) = findActorByEthAddress(msg.sender);\r\n        require(_operator > 0, \"Actor not found\");\r\n\r\n        require(\r\n            keccak256(bytes(_operatorRole)) != keccak256(bytes(\"Distributor\")) &&\r\n            keccak256(bytes(_operatorRole)) != keccak256(bytes(\"Provider\")),\r\n            \"The FAIL operation is not available to Providers and Distributors\"\r\n        );\r\n\r\n        Product memory product = Stock[_productID];\r\n        if(keccak256(bytes(_operatorRole)) == keccak256(bytes(\"Supplier\"))){\r\n            if (product.phase == PHASE.ResourceExtraction_Completed) failResourceExtraction(_productID);\r\n        }\r\n        else if(keccak256(bytes(_operatorRole)) == keccak256(bytes(\"Manufacturer\"))){\r\n            if (product.phase == PHASE.ResourceSupply_Completed) failResourceSupply(_productID);\r\n        }\r\n        else if(keccak256(bytes(_operatorRole)) == keccak256(bytes(\"Retailer\"))){\r\n            if (product.phase == PHASE.Distribution_Completed) failDistribution(_productID);\r\n        }\r\n    }\r\n\r\n\r\n\r\n}",
  "sourcePath": "/mnt/e/Projects/WebstormProjects/supply-chain-on-blockchain/contracts/implementation/ISupplyChain.sol",
  "compiler": {
    "name": "solc",
    "version": "0.8.2+commit.661d1103.Emscripten.clang"
  },
  "schemaVersion": "3.4.16",
  "updatedAt": "2024-01-21T22:59:14.937Z",
  "networkType": "ethereum",
  "devdoc": {
    "kind": "dev",
    "methods": {},
    "version": 1
  },
  "userdoc": {
    "kind": "user",
    "methods": {},
    "version": 1
  }
}