{
  "contractName": "SelfRegisterSimpleSupplyChain",
  "abi": [
    {
      "inputs": [
        {
          "internalType": "uint256",
          "name": "",
          "type": "uint256"
        }
      ],
      "name": "Distributors",
      "outputs": [
        {
          "internalType": "address",
          "name": "ethAddress",
          "type": "address"
        },
        {
          "internalType": "uint256",
          "name": "id",
          "type": "uint256"
        },
        {
          "internalType": "string",
          "name": "name",
          "type": "string"
        },
        {
          "internalType": "string",
          "name": "businessAddress",
          "type": "string"
        }
      ],
      "stateMutability": "view",
      "type": "function"
    },
    {
      "inputs": [
        {
          "internalType": "uint256",
          "name": "",
          "type": "uint256"
        }
      ],
      "name": "Manufacturers",
      "outputs": [
        {
          "internalType": "address",
          "name": "ethAddress",
          "type": "address"
        },
        {
          "internalType": "uint256",
          "name": "id",
          "type": "uint256"
        },
        {
          "internalType": "string",
          "name": "name",
          "type": "string"
        },
        {
          "internalType": "string",
          "name": "businessAddress",
          "type": "string"
        }
      ],
      "stateMutability": "view",
      "type": "function"
    },
    {
      "inputs": [],
      "name": "Owner",
      "outputs": [
        {
          "internalType": "address",
          "name": "",
          "type": "address"
        }
      ],
      "stateMutability": "view",
      "type": "function"
    },
    {
      "inputs": [
        {
          "internalType": "uint256",
          "name": "",
          "type": "uint256"
        }
      ],
      "name": "Providers",
      "outputs": [
        {
          "internalType": "address",
          "name": "ethAddress",
          "type": "address"
        },
        {
          "internalType": "uint256",
          "name": "id",
          "type": "uint256"
        },
        {
          "internalType": "string",
          "name": "name",
          "type": "string"
        },
        {
          "internalType": "string",
          "name": "businessAddress",
          "type": "string"
        }
      ],
      "stateMutability": "view",
      "type": "function"
    },
    {
      "inputs": [
        {
          "internalType": "uint256",
          "name": "",
          "type": "uint256"
        }
      ],
      "name": "Queue",
      "outputs": [
        {
          "internalType": "address",
          "name": "ethAddress",
          "type": "address"
        },
        {
          "internalType": "uint256",
          "name": "id",
          "type": "uint256"
        },
        {
          "internalType": "string",
          "name": "name",
          "type": "string"
        },
        {
          "internalType": "string",
          "name": "businessAddress",
          "type": "string"
        },
        {
          "internalType": "string",
          "name": "role",
          "type": "string"
        }
      ],
      "stateMutability": "view",
      "type": "function"
    },
    {
      "inputs": [
        {
          "internalType": "uint256",
          "name": "",
          "type": "uint256"
        }
      ],
      "name": "Retailers",
      "outputs": [
        {
          "internalType": "address",
          "name": "ethAddress",
          "type": "address"
        },
        {
          "internalType": "uint256",
          "name": "id",
          "type": "uint256"
        },
        {
          "internalType": "string",
          "name": "name",
          "type": "string"
        },
        {
          "internalType": "string",
          "name": "businessAddress",
          "type": "string"
        }
      ],
      "stateMutability": "view",
      "type": "function"
    },
    {
      "inputs": [
        {
          "internalType": "uint256",
          "name": "",
          "type": "uint256"
        }
      ],
      "name": "Stock",
      "outputs": [
        {
          "internalType": "uint256",
          "name": "id",
          "type": "uint256"
        },
        {
          "internalType": "string",
          "name": "name",
          "type": "string"
        },
        {
          "internalType": "string",
          "name": "description",
          "type": "string"
        },
        {
          "internalType": "uint256",
          "name": "lastModifiedBy",
          "type": "uint256"
        },
        {
          "internalType": "uint256",
          "name": "requireResponseBy",
          "type": "uint256"
        },
        {
          "internalType": "enum ISupplyChain.PHASE",
          "name": "phase",
          "type": "uint8"
        },
        {
          "components": [
            {
              "internalType": "uint256",
              "name": "providerID",
              "type": "uint256"
            },
            {
              "internalType": "uint256",
              "name": "supplierID",
              "type": "uint256"
            },
            {
              "internalType": "uint256",
              "name": "manufacturerID",
              "type": "uint256"
            },
            {
              "internalType": "uint256",
              "name": "distributorID",
              "type": "uint256"
            },
            {
              "internalType": "uint256",
              "name": "retailerID",
              "type": "uint256"
            }
          ],
          "internalType": "struct ISupplyChain.Tracking",
          "name": "tracking",
          "type": "tuple"
        }
      ],
      "stateMutability": "view",
      "type": "function"
    },
    {
      "inputs": [
        {
          "internalType": "uint256",
          "name": "",
          "type": "uint256"
        }
      ],
      "name": "Suppliers",
      "outputs": [
        {
          "internalType": "address",
          "name": "ethAddress",
          "type": "address"
        },
        {
          "internalType": "uint256",
          "name": "id",
          "type": "uint256"
        },
        {
          "internalType": "string",
          "name": "name",
          "type": "string"
        },
        {
          "internalType": "string",
          "name": "businessAddress",
          "type": "string"
        }
      ],
      "stateMutability": "view",
      "type": "function"
    },
    {
      "inputs": [
        {
          "internalType": "uint256",
          "name": "_productID",
          "type": "uint256"
        }
      ],
      "name": "acceptPhase",
      "outputs": [],
      "stateMutability": "nonpayable",
      "type": "function"
    },
    {
      "inputs": [
        {
          "internalType": "address",
          "name": "_ethAddress",
          "type": "address"
        },
        {
          "internalType": "string",
          "name": "_role",
          "type": "string"
        },
        {
          "internalType": "string",
          "name": "_name",
          "type": "string"
        },
        {
          "internalType": "string",
          "name": "_businessAddress",
          "type": "string"
        }
      ],
      "name": "addActor",
      "outputs": [],
      "stateMutability": "nonpayable",
      "type": "function"
    },
    {
      "inputs": [
        {
          "internalType": "string",
          "name": "_name",
          "type": "string"
        },
        {
          "internalType": "string",
          "name": "_description",
          "type": "string"
        }
      ],
      "name": "addNewProduct",
      "outputs": [],
      "stateMutability": "nonpayable",
      "type": "function"
    },
    {
      "inputs": [
        {
          "internalType": "uint256",
          "name": "_productID",
          "type": "uint256"
        }
      ],
      "name": "completeDistribution",
      "outputs": [],
      "stateMutability": "nonpayable",
      "type": "function"
    },
    {
      "inputs": [
        {
          "internalType": "uint256",
          "name": "_productID",
          "type": "uint256"
        }
      ],
      "name": "completeManufacturing",
      "outputs": [],
      "stateMutability": "nonpayable",
      "type": "function"
    },
    {
      "inputs": [
        {
          "internalType": "uint256",
          "name": "_productID",
          "type": "uint256"
        }
      ],
      "name": "completeResourceExtraction",
      "outputs": [],
      "stateMutability": "nonpayable",
      "type": "function"
    },
    {
      "inputs": [
        {
          "internalType": "uint256",
          "name": "_productID",
          "type": "uint256"
        }
      ],
      "name": "completeResourceSupply",
      "outputs": [],
      "stateMutability": "nonpayable",
      "type": "function"
    },
    {
      "inputs": [
        {
          "internalType": "uint256",
          "name": "_productID",
          "type": "uint256"
        }
      ],
      "name": "failDistribution",
      "outputs": [],
      "stateMutability": "nonpayable",
      "type": "function"
    },
    {
      "inputs": [
        {
          "internalType": "uint256",
          "name": "_productID",
          "type": "uint256"
        }
      ],
      "name": "failResourceExtraction",
      "outputs": [],
      "stateMutability": "nonpayable",
      "type": "function"
    },
    {
      "inputs": [
        {
          "internalType": "uint256",
          "name": "_productID",
          "type": "uint256"
        }
      ],
      "name": "failResourceSupply",
      "outputs": [],
      "stateMutability": "nonpayable",
      "type": "function"
    },
    {
      "inputs": [
        {
          "internalType": "uint256",
          "name": "_id",
          "type": "uint256"
        }
      ],
      "name": "getDistributorById",
      "outputs": [
        {
          "components": [
            {
              "internalType": "address",
              "name": "ethAddress",
              "type": "address"
            },
            {
              "internalType": "uint256",
              "name": "id",
              "type": "uint256"
            },
            {
              "internalType": "string",
              "name": "name",
              "type": "string"
            },
            {
              "internalType": "string",
              "name": "businessAddress",
              "type": "string"
            }
          ],
          "internalType": "struct ISupplyChain.Actor",
          "name": "",
          "type": "tuple"
        }
      ],
      "stateMutability": "view",
      "type": "function"
    },
    {
      "inputs": [],
      "name": "getDistributorsArray",
      "outputs": [
        {
          "components": [
            {
              "internalType": "address",
              "name": "ethAddress",
              "type": "address"
            },
            {
              "internalType": "uint256",
              "name": "id",
              "type": "uint256"
            },
            {
              "internalType": "string",
              "name": "name",
              "type": "string"
            },
            {
              "internalType": "string",
              "name": "businessAddress",
              "type": "string"
            }
          ],
          "internalType": "struct ISupplyChain.Actor[]",
          "name": "",
          "type": "tuple[]"
        }
      ],
      "stateMutability": "view",
      "type": "function"
    },
    {
      "inputs": [],
      "name": "getDistributorsCount",
      "outputs": [
        {
          "internalType": "uint256",
          "name": "count",
          "type": "uint256"
        }
      ],
      "stateMutability": "view",
      "type": "function"
    },
    {
      "inputs": [
        {
          "internalType": "uint256",
          "name": "_id",
          "type": "uint256"
        }
      ],
      "name": "getManufacturerById",
      "outputs": [
        {
          "components": [
            {
              "internalType": "address",
              "name": "ethAddress",
              "type": "address"
            },
            {
              "internalType": "uint256",
              "name": "id",
              "type": "uint256"
            },
            {
              "internalType": "string",
              "name": "name",
              "type": "string"
            },
            {
              "internalType": "string",
              "name": "businessAddress",
              "type": "string"
            }
          ],
          "internalType": "struct ISupplyChain.Actor",
          "name": "",
          "type": "tuple"
        }
      ],
      "stateMutability": "view",
      "type": "function"
    },
    {
      "inputs": [],
      "name": "getManufacturersArray",
      "outputs": [
        {
          "components": [
            {
              "internalType": "address",
              "name": "ethAddress",
              "type": "address"
            },
            {
              "internalType": "uint256",
              "name": "id",
              "type": "uint256"
            },
            {
              "internalType": "string",
              "name": "name",
              "type": "string"
            },
            {
              "internalType": "string",
              "name": "businessAddress",
              "type": "string"
            }
          ],
          "internalType": "struct ISupplyChain.Actor[]",
          "name": "",
          "type": "tuple[]"
        }
      ],
      "stateMutability": "view",
      "type": "function"
    },
    {
      "inputs": [],
      "name": "getManufacturersCount",
      "outputs": [
        {
          "internalType": "uint256",
          "name": "count",
          "type": "uint256"
        }
      ],
      "stateMutability": "view",
      "type": "function"
    },
    {
      "inputs": [
        {
          "internalType": "uint256",
          "name": "_productID",
          "type": "uint256"
        }
      ],
      "name": "getProductById",
      "outputs": [
        {
          "components": [
            {
              "internalType": "uint256",
              "name": "id",
              "type": "uint256"
            },
            {
              "internalType": "string",
              "name": "name",
              "type": "string"
            },
            {
              "internalType": "string",
              "name": "description",
              "type": "string"
            },
            {
              "internalType": "uint256",
              "name": "lastModifiedBy",
              "type": "uint256"
            },
            {
              "internalType": "uint256",
              "name": "requireResponseBy",
              "type": "uint256"
            },
            {
              "internalType": "enum ISupplyChain.PHASE",
              "name": "phase",
              "type": "uint8"
            },
            {
              "components": [
                {
                  "internalType": "uint256",
                  "name": "providerID",
                  "type": "uint256"
                },
                {
                  "internalType": "uint256",
                  "name": "supplierID",
                  "type": "uint256"
                },
                {
                  "internalType": "uint256",
                  "name": "manufacturerID",
                  "type": "uint256"
                },
                {
                  "internalType": "uint256",
                  "name": "distributorID",
                  "type": "uint256"
                },
                {
                  "internalType": "uint256",
                  "name": "retailerID",
                  "type": "uint256"
                }
              ],
              "internalType": "struct ISupplyChain.Tracking",
              "name": "tracking",
              "type": "tuple"
            }
          ],
          "internalType": "struct ISupplyChain.Product",
          "name": "",
          "type": "tuple"
        }
      ],
      "stateMutability": "view",
      "type": "function"
    },
    {
      "inputs": [],
      "name": "getProductCount",
      "outputs": [
        {
          "internalType": "uint256",
          "name": "count",
          "type": "uint256"
        }
      ],
      "stateMutability": "view",
      "type": "function"
    },
    {
      "inputs": [
        {
          "internalType": "uint256",
          "name": "_productID",
          "type": "uint256"
        }
      ],
      "name": "getProductPhase",
      "outputs": [
        {
          "internalType": "enum ISupplyChain.PHASE",
          "name": "phase",
          "type": "uint8"
        }
      ],
      "stateMutability": "view",
      "type": "function"
    },
    {
      "inputs": [],
      "name": "getProductsArray",
      "outputs": [
        {
          "components": [
            {
              "internalType": "uint256",
              "name": "id",
              "type": "uint256"
            },
            {
              "internalType": "string",
              "name": "name",
              "type": "string"
            },
            {
              "internalType": "string",
              "name": "description",
              "type": "string"
            },
            {
              "internalType": "uint256",
              "name": "lastModifiedBy",
              "type": "uint256"
            },
            {
              "internalType": "uint256",
              "name": "requireResponseBy",
              "type": "uint256"
            },
            {
              "internalType": "enum ISupplyChain.PHASE",
              "name": "phase",
              "type": "uint8"
            },
            {
              "components": [
                {
                  "internalType": "uint256",
                  "name": "providerID",
                  "type": "uint256"
                },
                {
                  "internalType": "uint256",
                  "name": "supplierID",
                  "type": "uint256"
                },
                {
                  "internalType": "uint256",
                  "name": "manufacturerID",
                  "type": "uint256"
                },
                {
                  "internalType": "uint256",
                  "name": "distributorID",
                  "type": "uint256"
                },
                {
                  "internalType": "uint256",
                  "name": "retailerID",
                  "type": "uint256"
                }
              ],
              "internalType": "struct ISupplyChain.Tracking",
              "name": "tracking",
              "type": "tuple"
            }
          ],
          "internalType": "struct ISupplyChain.Product[]",
          "name": "",
          "type": "tuple[]"
        }
      ],
      "stateMutability": "view",
      "type": "function"
    },
    {
      "inputs": [
        {
          "internalType": "uint256",
          "name": "_id",
          "type": "uint256"
        }
      ],
      "name": "getProviderById",
      "outputs": [
        {
          "components": [
            {
              "internalType": "address",
              "name": "ethAddress",
              "type": "address"
            },
            {
              "internalType": "uint256",
              "name": "id",
              "type": "uint256"
            },
            {
              "internalType": "string",
              "name": "name",
              "type": "string"
            },
            {
              "internalType": "string",
              "name": "businessAddress",
              "type": "string"
            }
          ],
          "internalType": "struct ISupplyChain.Actor",
          "name": "",
          "type": "tuple"
        }
      ],
      "stateMutability": "view",
      "type": "function"
    },
    {
      "inputs": [],
      "name": "getProvidersArray",
      "outputs": [
        {
          "components": [
            {
              "internalType": "address",
              "name": "ethAddress",
              "type": "address"
            },
            {
              "internalType": "uint256",
              "name": "id",
              "type": "uint256"
            },
            {
              "internalType": "string",
              "name": "name",
              "type": "string"
            },
            {
              "internalType": "string",
              "name": "businessAddress",
              "type": "string"
            }
          ],
          "internalType": "struct ISupplyChain.Actor[]",
          "name": "",
          "type": "tuple[]"
        }
      ],
      "stateMutability": "view",
      "type": "function"
    },
    {
      "inputs": [],
      "name": "getProvidersCount",
      "outputs": [
        {
          "internalType": "uint256",
          "name": "count",
          "type": "uint256"
        }
      ],
      "stateMutability": "view",
      "type": "function"
    },
    {
      "inputs": [
        {
          "internalType": "uint256",
          "name": "_id",
          "type": "uint256"
        }
      ],
      "name": "getRetailerById",
      "outputs": [
        {
          "components": [
            {
              "internalType": "address",
              "name": "ethAddress",
              "type": "address"
            },
            {
              "internalType": "uint256",
              "name": "id",
              "type": "uint256"
            },
            {
              "internalType": "string",
              "name": "name",
              "type": "string"
            },
            {
              "internalType": "string",
              "name": "businessAddress",
              "type": "string"
            }
          ],
          "internalType": "struct ISupplyChain.Actor",
          "name": "",
          "type": "tuple"
        }
      ],
      "stateMutability": "view",
      "type": "function"
    },
    {
      "inputs": [],
      "name": "getRetailersArray",
      "outputs": [
        {
          "components": [
            {
              "internalType": "address",
              "name": "ethAddress",
              "type": "address"
            },
            {
              "internalType": "uint256",
              "name": "id",
              "type": "uint256"
            },
            {
              "internalType": "string",
              "name": "name",
              "type": "string"
            },
            {
              "internalType": "string",
              "name": "businessAddress",
              "type": "string"
            }
          ],
          "internalType": "struct ISupplyChain.Actor[]",
          "name": "",
          "type": "tuple[]"
        }
      ],
      "stateMutability": "view",
      "type": "function"
    },
    {
      "inputs": [],
      "name": "getRetailersCount",
      "outputs": [
        {
          "internalType": "uint256",
          "name": "count",
          "type": "uint256"
        }
      ],
      "stateMutability": "view",
      "type": "function"
    },
    {
      "inputs": [
        {
          "internalType": "uint256",
          "name": "_id",
          "type": "uint256"
        }
      ],
      "name": "getSupplierById",
      "outputs": [
        {
          "components": [
            {
              "internalType": "address",
              "name": "ethAddress",
              "type": "address"
            },
            {
              "internalType": "uint256",
              "name": "id",
              "type": "uint256"
            },
            {
              "internalType": "string",
              "name": "name",
              "type": "string"
            },
            {
              "internalType": "string",
              "name": "businessAddress",
              "type": "string"
            }
          ],
          "internalType": "struct ISupplyChain.Actor",
          "name": "",
          "type": "tuple"
        }
      ],
      "stateMutability": "view",
      "type": "function"
    },
    {
      "inputs": [],
      "name": "getSuppliersArray",
      "outputs": [
        {
          "components": [
            {
              "internalType": "address",
              "name": "ethAddress",
              "type": "address"
            },
            {
              "internalType": "uint256",
              "name": "id",
              "type": "uint256"
            },
            {
              "internalType": "string",
              "name": "name",
              "type": "string"
            },
            {
              "internalType": "string",
              "name": "businessAddress",
              "type": "string"
            }
          ],
          "internalType": "struct ISupplyChain.Actor[]",
          "name": "",
          "type": "tuple[]"
        }
      ],
      "stateMutability": "view",
      "type": "function"
    },
    {
      "inputs": [],
      "name": "getSuppliersCount",
      "outputs": [
        {
          "internalType": "uint256",
          "name": "count",
          "type": "uint256"
        }
      ],
      "stateMutability": "view",
      "type": "function"
    },
    {
      "inputs": [],
      "name": "isDistributor",
      "outputs": [
        {
          "internalType": "uint256",
          "name": "",
          "type": "uint256"
        },
        {
          "internalType": "bool",
          "name": "",
          "type": "bool"
        }
      ],
      "stateMutability": "view",
      "type": "function"
    },
    {
      "inputs": [],
      "name": "isManufacturer",
      "outputs": [
        {
          "internalType": "uint256",
          "name": "",
          "type": "uint256"
        },
        {
          "internalType": "bool",
          "name": "",
          "type": "bool"
        }
      ],
      "stateMutability": "view",
      "type": "function"
    },
    {
      "inputs": [],
      "name": "isProvider",
      "outputs": [
        {
          "internalType": "uint256",
          "name": "",
          "type": "uint256"
        },
        {
          "internalType": "bool",
          "name": "",
          "type": "bool"
        }
      ],
      "stateMutability": "view",
      "type": "function"
    },
    {
      "inputs": [],
      "name": "isRetailer",
      "outputs": [
        {
          "internalType": "uint256",
          "name": "",
          "type": "uint256"
        },
        {
          "internalType": "bool",
          "name": "",
          "type": "bool"
        }
      ],
      "stateMutability": "view",
      "type": "function"
    },
    {
      "inputs": [],
      "name": "isSupplier",
      "outputs": [
        {
          "internalType": "uint256",
          "name": "",
          "type": "uint256"
        },
        {
          "internalType": "bool",
          "name": "",
          "type": "bool"
        }
      ],
      "stateMutability": "view",
      "type": "function"
    },
    {
      "inputs": [
        {
          "internalType": "uint256",
          "name": "_productID",
          "type": "uint256"
        }
      ],
      "name": "rejectPhase",
      "outputs": [],
      "stateMutability": "nonpayable",
      "type": "function"
    },
    {
      "inputs": [
        {
          "internalType": "uint256",
          "name": "_productID",
          "type": "uint256"
        }
      ],
      "name": "retail",
      "outputs": [],
      "stateMutability": "nonpayable",
      "type": "function"
    },
    {
      "inputs": [
        {
          "internalType": "uint256",
          "name": "_productID",
          "type": "uint256"
        }
      ],
      "name": "sell",
      "outputs": [],
      "stateMutability": "nonpayable",
      "type": "function"
    },
    {
      "inputs": [
        {
          "internalType": "uint256",
          "name": "_productID",
          "type": "uint256"
        }
      ],
      "name": "showPhase",
      "outputs": [
        {
          "internalType": "string",
          "name": "",
          "type": "string"
        }
      ],
      "stateMutability": "view",
      "type": "function"
    },
    {
      "inputs": [
        {
          "internalType": "uint256",
          "name": "_productID",
          "type": "uint256"
        }
      ],
      "name": "startDistribution",
      "outputs": [],
      "stateMutability": "nonpayable",
      "type": "function"
    },
    {
      "inputs": [
        {
          "internalType": "uint256",
          "name": "_productID",
          "type": "uint256"
        }
      ],
      "name": "startManufacturing",
      "outputs": [],
      "stateMutability": "nonpayable",
      "type": "function"
    },
    {
      "inputs": [
        {
          "internalType": "uint256",
          "name": "_productID",
          "type": "uint256"
        }
      ],
      "name": "startResourceExtraction",
      "outputs": [],
      "stateMutability": "nonpayable",
      "type": "function"
    },
    {
      "inputs": [
        {
          "internalType": "uint256",
          "name": "_productID",
          "type": "uint256"
        }
      ],
      "name": "startResourceSupply",
      "outputs": [],
      "stateMutability": "nonpayable",
      "type": "function"
    },
    {
      "inputs": [
        {
          "internalType": "address",
          "name": "_ethAddress",
          "type": "address"
        },
        {
          "internalType": "string",
          "name": "_role",
          "type": "string"
        },
        {
          "internalType": "string",
          "name": "_name",
          "type": "string"
        },
        {
          "internalType": "string",
          "name": "_businessAddress",
          "type": "string"
        }
      ],
      "name": "updateActor",
      "outputs": [],
      "stateMutability": "nonpayable",
      "type": "function"
    },
    {
      "inputs": [
        {
          "internalType": "uint256",
          "name": "_productID",
          "type": "uint256"
        }
      ],
      "name": "validateProductId",
      "outputs": [
        {
          "internalType": "bool",
          "name": "",
          "type": "bool"
        }
      ],
      "stateMutability": "view",
      "type": "function"
    },
    {
      "inputs": [],
      "name": "getQueueCounter",
      "outputs": [
        {
          "internalType": "uint256",
          "name": "",
          "type": "uint256"
        }
      ],
      "stateMutability": "view",
      "type": "function"
    },
    {
      "inputs": [
        {
          "internalType": "address",
          "name": "_ethAddress",
          "type": "address"
        },
        {
          "internalType": "string",
          "name": "_role",
          "type": "string"
        },
        {
          "internalType": "string",
          "name": "_name",
          "type": "string"
        },
        {
          "internalType": "string",
          "name": "_businessAddress",
          "type": "string"
        }
      ],
      "name": "registerActor",
      "outputs": [],
      "stateMutability": "nonpayable",
      "type": "function"
    },
    {
      "inputs": [
        {
          "internalType": "address",
          "name": "_address",
          "type": "address"
        }
      ],
      "name": "findRegistrantByAddress",
      "outputs": [
        {
          "internalType": "uint256",
          "name": "",
          "type": "uint256"
        }
      ],
      "stateMutability": "view",
      "type": "function"
    },
    {
      "inputs": [
        {
          "internalType": "address",
          "name": "_address",
          "type": "address"
        }
      ],
      "name": "approveActorByAddress",
      "outputs": [],
      "stateMutability": "nonpayable",
      "type": "function"
    },
    {
      "inputs": [
        {
          "internalType": "uint256",
          "name": "_id",
          "type": "uint256"
        }
      ],
      "name": "approveActorById",
      "outputs": [],
      "stateMutability": "nonpayable",
      "type": "function"
    }
  ],
  "bytecode": "0x60806040526000600755600060085560006009556000600a556000600b556000600c5534801561002e57600080fd5b50600080546001600160a01b03191633179055615f5180620000516000396000f3fe608060405234801561001057600080fd5b50600436106103825760003560e01c80639711e944116101de578063bfafedef1161010f578063e76c0133116100ad578063ef34c5c51161007c578063ef34c5c514610765578063efd50e3f1461076d578063f596b84114610775578063fa3a050e1461079557610382565b8063e76c01331461072c578063e79796891461073f578063e876d92314610752578063e9c7d6ca1461045a57610382565b8063d7c20c6b116100e9578063d7c20c6b146106e0578063d85456a4146106f3578063da08402d14610706578063e4849b321461071957610382565b8063bfafedef146106bd578063cea3ba36146106c5578063d0c65bff146106d857610382565b8063a8069e071161017c578063b2d3c4f011610156578063b2d3c4f014610664578063b4a99a4e1461066c578063b545fd5014610697578063b79a104c146106aa57610382565b8063a8069e071461061b578063a8e46ef31461063e578063b201cca41461065157610382565b8063a0c98198116101b8578063a0c98198146105e2578063a4694c46146105f5578063a4c099a81461045a578063a74215931461060857610382565b80639711e9441461059857806399aa5ebd146105bc5780639b0cad2f146105cf57610382565b80634a348da9116102b857806375b96d7b116102565780638e5d0f5f116102305780638e5d0f5f1461054a57806393583b891461055d5780639544eeaa1461056557806395a44cfa1461058557610382565b806375b96d7b1461050f5780637a9acb23146105225780637c4e15e81461053757610382565b806355949ebb1161029257806355949ebb146104d157806356898136146104d957806371da3c93146104ff57806374e54a671461050757610382565b80634a348da9146104ae57806351bc37b8146104b65780635395ec2d146104c957610382565b80632565a86e1161032557806333592a1f116102ff57806333592a1f1461046b5780633f70c2b41461047e578063455beb281461049e578063477ba645146104a657610382565b80632565a86e1461043d57806326dfe552146104455780632a180c011461045a57610382565b806313197b3a1161036157806313197b3a146103df57806318eea1f8146103e757806319fda09c1461040757806324b2dff11461041a57610382565b8062a01636146103875780630997a514146103ad57806311a6e995146103ca575b600080fd5b61039a610395366004615717565b6107a8565b6040519081526020015b60405180910390f35b6103b561081c565b604080519283529015156020830152016103a4565b6103dd6103d8366004615717565b610830565b005b6103b5610861565b6103fa6103f536600461582e565b61086d565b6040516103a49190615d3a565b6103dd61041536600461582e565b610a20565b61042d61042836600461582e565b610a29565b6040516103a494939291906159af565b6103b5610b6c565b61044d610b78565b6040516103a49190615a4c565b6103dd61046836600461582e565b50565b6103fa61047936600461582e565b610d9d565b61049161048c36600461582e565b610e28565b6040516103a49190615d4d565b600a5461039a565b6103b5611068565b60075461039a565b61042d6104c436600461582e565b611074565b61044d6110a6565b61044d6112c5565b6104ec6104e736600461582e565b6114e4565b6040516103a49796959493929190615d60565b600b5461039a565b600e5461039a565b6103dd61051d36600461582e565b611669565b61052a611672565b6040516103a49190615aac565b6103fa61054536600461582e565b611924565b61042d61055836600461582e565b6119b3565b6103b56119e7565b61057861057336600461582e565b6119f3565b6040516103a49190615aff565b6103dd61059336600461582e565b611a3b565b6105ab6105a636600461582e565b611a44565b6040516103a49594939291906159f3565b6103dd6105ca36600461582e565b611c15565b6103dd6105dd36600461582e565b611d3c565b6103fa6105f036600461582e565b611e8e565b6103dd610603366004615738565b611f1d565b6103dd61061636600461582e565b611feb565b61062e61062936600461582e565b612464565b60405190151581526020016103a4565b6103dd61064c366004615738565b6124c0565b6103dd61065f36600461582e565b6126d0565b61044d6127a8565b60005461067f906001600160a01b031681565b6040516001600160a01b0390911681526020016103a4565b61042d6106a536600461582e565b6129c7565b6103dd6106b836600461582e565b6129f9565b60085461039a565b6103dd6106d33660046157cd565b612ada565b600c5461039a565b6103dd6106ee36600461582e565b612ccb565b61042d61070136600461582e565b612f94565b6103fa61071436600461582e565b612fc6565b6103dd61072736600461582e565b613055565b6103dd61073a36600461582e565b61312d565b6103dd61074d36600461582e565b613766565b6103dd610760366004615738565b613847565b61044d61386a565b60095461039a565b61078861078336600461582e565b613a89565b6040516103a49190615b13565b6103dd6107a336600461582e565b613f80565b600080600e54116107b857600080fd5b60015b600e548111610811576000818152600d60205260409020546001600160a01b03848116911614156107ff576000908152600d60205260409020600101549050610817565b8061080981615e34565b9150506107bb565b50600090505b919050565b60008061082833613f89565b915091509091565b6000546001600160a01b0316331461084757600080fd5b6000610852826107a8565b905061085d81612ccb565b5050565b60008061082833613fa4565b610875615524565b6000600c541161088457600080fd5b6000821180156108965750600c548211155b6108bb5760405162461bcd60e51b81526004016108b290615b26565b60405180910390fd5b600082815260066020908152604091829020825160808101845281546001600160a01b03168152600182015492810192909252600281018054929391929184019161090590615df9565b80601f016020809104026020016040519081016040528092919081815260200182805461093190615df9565b801561097e5780601f106109535761010080835404028352916020019161097e565b820191906000526020600020905b81548152906001019060200180831161096157829003601f168201915b5050505050815260200160038201805461099790615df9565b80601f01602080910402602001604051908101604052809291908181526020018280546109c390615df9565b8015610a105780601f106109e557610100808354040283529160200191610a10565b820191906000526020600020905b8154815290600101906020018083116109f357829003601f168201915b5050505050815250509050919050565b61046881613766565b6003602052600090815260409020805460018201546002830180546001600160a01b03909316939192610a5b90615df9565b80601f0160208091040260200160405190810160405280929190818152602001828054610a8790615df9565b8015610ad45780601f10610aa957610100808354040283529160200191610ad4565b820191906000526020600020905b815481529060010190602001808311610ab757829003601f168201915b505050505090806003018054610ae990615df9565b80601f0160208091040260200160405190810160405280929190818152602001828054610b1590615df9565b8015610b625780601f10610b3757610100808354040283529160200191610b62565b820191906000526020600020905b815481529060010190602001808311610b4557829003601f168201915b5050505050905084565b60008061082833613fb2565b6060600060095467ffffffffffffffff811115610ba557634e487b7160e01b600052604160045260246000fd5b604051908082528060200260200182016040528015610bde57816020015b610bcb615524565b815260200190600190039081610bc35790505b50905060005b600954811015610d975760036000610bfd836001615de1565b81526020808201929092526040908101600020815160808101835281546001600160a01b031681526001820154938101939093526002810180549192840191610c4590615df9565b80601f0160208091040260200160405190810160405280929190818152602001828054610c7190615df9565b8015610cbe5780601f10610c9357610100808354040283529160200191610cbe565b820191906000526020600020905b815481529060010190602001808311610ca157829003601f168201915b50505050508152602001600382018054610cd790615df9565b80601f0160208091040260200160405190810160405280929190818152602001828054610d0390615df9565b8015610d505780601f10610d2557610100808354040283529160200191610d50565b820191906000526020600020905b815481529060010190602001808311610d3357829003601f168201915b505050505081525050828281518110610d7957634e487b7160e01b600052603260045260246000fd5b60200260200101819052508080610d8f90615e34565b915050610be4565b50905090565b610da5615524565b600060085411610db457600080fd5b600082118015610dc657506008548211155b610de25760405162461bcd60e51b81526004016108b290615b26565b600082815260026020818152604092839020835160808101855281546001600160a01b031681526001820154928101929092529182018054919384019161090590615df9565b610e30615555565b610e3982612464565b610e7a5760405162461bcd60e51b8152602060048201526012602482015271125b9d985b1a5908141c9bd91d58dd08125960721b60448201526064016108b2565b600082815260016020818152604092839020835160e0810190945280548452918201805491840191610eab90615df9565b80601f0160208091040260200160405190810160405280929190818152602001828054610ed790615df9565b8015610f245780601f10610ef957610100808354040283529160200191610f24565b820191906000526020600020905b815481529060010190602001808311610f0757829003601f168201915b50505050508152602001600282018054610f3d90615df9565b80601f0160208091040260200160405190810160405280929190818152602001828054610f6990615df9565b8015610fb65780601f10610f8b57610100808354040283529160200191610fb6565b820191906000526020600020905b815481529060010190602001808311610f9957829003601f168201915b50505091835250506003820154602082015260048201546040820152600582015460609091019060ff16600d811115610fff57634e487b7160e01b600052602160045260246000fd5b600d81111561101e57634e487b7160e01b600052602160045260246000fd5b81526040805160a08101825260068401548152600784015460208083019190915260088501549282019290925260098401546060820152600a909301546080840152015292915050565b60008061082833613fc0565b6005602052600090815260409020805460018201546002830180546001600160a01b03909316939192610a5b90615df9565b60606000600b5467ffffffffffffffff8111156110d357634e487b7160e01b600052604160045260246000fd5b60405190808252806020026020018201604052801561110c57816020015b6110f9615524565b8152602001906001900390816110f15790505b50905060005b600b54811015610d97576005600061112b836001615de1565b81526020808201929092526040908101600020815160808101835281546001600160a01b03168152600182015493810193909352600281018054919284019161117390615df9565b80601f016020809104026020016040519081016040528092919081815260200182805461119f90615df9565b80156111ec5780601f106111c1576101008083540402835291602001916111ec565b820191906000526020600020905b8154815290600101906020018083116111cf57829003601f168201915b5050505050815260200160038201805461120590615df9565b80601f016020809104026020016040519081016040528092919081815260200182805461123190615df9565b801561127e5780601f106112535761010080835404028352916020019161127e565b820191906000526020600020905b81548152906001019060200180831161126157829003601f168201915b5050505050815250508282815181106112a757634e487b7160e01b600052603260045260246000fd5b602002602001018190525080806112bd90615e34565b915050611112565b60606000600c5467ffffffffffffffff8111156112f257634e487b7160e01b600052604160045260246000fd5b60405190808252806020026020018201604052801561132b57816020015b611318615524565b8152602001906001900390816113105790505b50905060005b600c54811015610d97576006600061134a836001615de1565b81526020808201929092526040908101600020815160808101835281546001600160a01b03168152600182015493810193909352600281018054919284019161139290615df9565b80601f01602080910402602001604051908101604052809291908181526020018280546113be90615df9565b801561140b5780601f106113e05761010080835404028352916020019161140b565b820191906000526020600020905b8154815290600101906020018083116113ee57829003601f168201915b5050505050815260200160038201805461142490615df9565b80601f016020809104026020016040519081016040528092919081815260200182805461145090615df9565b801561149d5780601f106114725761010080835404028352916020019161149d565b820191906000526020600020905b81548152906001019060200180831161148057829003601f168201915b5050505050815250508282815181106114c657634e487b7160e01b600052603260045260246000fd5b602002602001018190525080806114dc90615e34565b915050611331565b60016020819052600091825260409091208054918101805461150590615df9565b80601f016020809104026020016040519081016040528092919081815260200182805461153190615df9565b801561157e5780601f106115535761010080835404028352916020019161157e565b820191906000526020600020905b81548152906001019060200180831161156157829003601f168201915b50505050509080600201805461159390615df9565b80601f01602080910402602001604051908101604052809291908181526020018280546115bf90615df9565b801561160c5780601f106115e15761010080835404028352916020019161160c565b820191906000526020600020905b8154815290600101906020018083116115ef57829003601f168201915b5050506003840154600485015460058601546040805160a081018252600689015481526007890154602082015260088901549181019190915260098801546060820152600a9097015460808801529495919490935060ff16915087565b610468816129f9565b6060600060075467ffffffffffffffff81111561169f57634e487b7160e01b600052604160045260246000fd5b6040519080825280602002602001820160405280156116d857816020015b6116c5615555565b8152602001906001900390816116bd5790505b50905060005b600754811015610d9757600160006116f68383615de1565b81526020019081526020016000206040518060e00160405290816000820154815260200160018201805461172990615df9565b80601f016020809104026020016040519081016040528092919081815260200182805461175590615df9565b80156117a25780601f10611777576101008083540402835291602001916117a2565b820191906000526020600020905b81548152906001019060200180831161178557829003601f168201915b505050505081526020016002820180546117bb90615df9565b80601f01602080910402602001604051908101604052809291908181526020018280546117e790615df9565b80156118345780601f1061180957610100808354040283529160200191611834565b820191906000526020600020905b81548152906001019060200180831161181757829003601f168201915b50505091835250506003820154602082015260048201546040820152600582015460609091019060ff16600d81111561187d57634e487b7160e01b600052602160045260246000fd5b600d81111561189c57634e487b7160e01b600052602160045260246000fd5b8152602001600682016040518060a0016040529081600082015481526020016001820154815260200160028201548152602001600382015481526020016004820154815250508152505082828151811061190657634e487b7160e01b600052603260045260246000fd5b6020026020010181905250808061191c90615e34565b9150506116de565b61192c615524565b6000600b541161193b57600080fd5b60008211801561194d5750600b548211155b6119695760405162461bcd60e51b81526004016108b290615b26565b600082815260056020908152604091829020825160808101845281546001600160a01b03168152600182015492810192909252600281018054929391929184019161090590615df9565b60026020819052600091825260409091208054600182015492820180546001600160a01b03909216939291610a5b90615df9565b60008061082833613fce565b60008082118015611a0657506008548211155b611a225760405162461bcd60e51b81526004016108b290615d0e565b5060009081526001602052604090206005015460ff1690565b61046881611c15565b600d602052600090815260409020805460018201546002830180546001600160a01b03909316939192611a7690615df9565b80601f0160208091040260200160405190810160405280929190818152602001828054611aa290615df9565b8015611aef5780601f10611ac457610100808354040283529160200191611aef565b820191906000526020600020905b815481529060010190602001808311611ad257829003601f168201915b505050505090806003018054611b0490615df9565b80601f0160208091040260200160405190810160405280929190818152602001828054611b3090615df9565b8015611b7d5780601f10611b5257610100808354040283529160200191611b7d565b820191906000526020600020905b815481529060010190602001808311611b6057829003601f168201915b505050505090806004018054611b9290615df9565b80601f0160208091040260200160405190810160405280929190818152602001828054611bbe90615df9565b8015611c0b5780601f10611be057610100808354040283529160200191611c0b565b820191906000526020600020905b815481529060010190602001808311611bee57829003601f168201915b5050505050905085565b611c1e81612464565b611c3a5760405162461bcd60e51b81526004016108b290615bda565b600080611c45610b6c565b9150915080611ca45760405162461bcd60e51b815260206004820152602560248201527f5468652075736572206973206e6f742061207265676973746572656420737570604482015264383634b2b960d91b60648201526084016108b2565b600360008481526001602052604090206005015460ff16600d811115611cda57634e487b7160e01b600052602160045260246000fd5b14611cf75760405162461bcd60e51b81526004016108b290615c63565b600083815260016020819052604082206003810180546006808401919091559086905560048201939093556005018054909160ff1990911690835b0217905550505050565b611d4581612464565b611d615760405162461bcd60e51b81526004016108b290615bda565b600080611d6c610861565b9150915080611dcb5760405162461bcd60e51b815260206004820152602560248201527f5468652075736572206973206e6f74206120726567697374657265642070726f6044820152643b34b232b960d91b60648201526084016108b2565b60008381526001602052604081206005015460ff16600d811115611dff57634e487b7160e01b600052602160045260246000fd5b1480611e3e5750600260008481526001602052604090206005015460ff16600d811115611e3c57634e487b7160e01b600052602160045260246000fd5b145b611e5a5760405162461bcd60e51b81526004016108b290615c63565b60008381526001602081905260408220600380820186905560048201939093556005018054909160ff199091169083611d32565b611e96615524565b600060095411611ea557600080fd5b600082118015611eb757506009548211155b611ed35760405162461bcd60e51b81526004016108b290615b26565b600082815260036020908152604091829020825160808101845281546001600160a01b03168152600182015492810192909252600281018054929391929184019161090590615df9565b600e8054906000611f2d83615e34565b90915550506040805160a0810182526001600160a01b038681168252600e54602080840182815284860188815260608601889052608086018a90526000938452600d835295909220845181546001600160a01b0319169416939093178355905160018301559251805192939192611faa92600285019201906155e0565b5060608201518051611fc69160038401916020909101906155e0565b5060808201518051611fe29160048401916020909101906155e0565b50505050505050565b600081118015611ffd57506007548111155b6120195760405162461bcd60e51b81526004016108b290615d0e565b60008061202533613fdc565b915091506000821161206b5760405162461bcd60e51b815260206004820152600f60248201526e1058dd1bdc881b9bdd08199bdd5b99608a1b60448201526064016108b2565b60408051808201909152600b81526a2234b9ba3934b13aba37b960a91b602091820152815190820120600080516020615efc833981519152148015906120e45750604080518082019091526008815267283937bb34b232b960c11b602091820152815190820120600080516020615e9c83398151915214155b6121605760405162461bcd60e51b815260206004820152604160248201527f546865204641494c206f7065726174696f6e206973206e6f7420617661696c6160448201527f626c6520746f2050726f76696465727320616e64204469737472696275746f726064820152607360f81b608482015260a4016108b2565b6000838152600160208181526040808420815160e0810190925280548252928301805491939284019161219290615df9565b80601f01602080910402602001604051908101604052809291908181526020018280546121be90615df9565b801561220b5780601f106121e05761010080835404028352916020019161220b565b820191906000526020600020905b8154815290600101906020018083116121ee57829003601f168201915b5050505050815260200160028201805461222490615df9565b80601f016020809104026020016040519081016040528092919081815260200182805461225090615df9565b801561229d5780601f106122725761010080835404028352916020019161229d565b820191906000526020600020905b81548152906001019060200180831161228057829003601f168201915b50505091835250506003820154602082015260048201546040820152600582015460609091019060ff16600d8111156122e657634e487b7160e01b600052602160045260246000fd5b600d81111561230557634e487b7160e01b600052602160045260246000fd5b81526040805160a0810182526006840154815260078401546020828101919091526008808601548385015260098601546060840152600a9095015460808301529283015280518082019091529182526729bab8383634b2b960c11b91810191909152835190840120909150600080516020615e7c83398151915214156123b45760035b8160a00151600d8111156123ac57634e487b7160e01b600052602160045260246000fd5b50505b61245e565b60408051808201909152600c81526b26b0b73ab330b1ba3ab932b960a11b602091820152825190830120600080516020615edc83398151915214156123fa576006612388565b6040805180820190915260088152672932ba30b4b632b960c11b602091820152825190830120600080516020615ebc833981519152141561245e57600b8160a00151600d81111561245b57634e487b7160e01b600052602160045260246000fd5b50505b50505050565b6000808211801561247757506007548211155b6124b85760405162461bcd60e51b8152602060048201526012602482015271125b9d985b1a5908141c9bd91d58dd08125960721b60448201526064016108b2565b506001919050565b600080546001600160a01b03163314806124e25750336001600160a01b038616145b61251e5760405162461bcd60e51b815260206004820152600d60248201526c1058d8d95cdcc811195b9a5959609a1b60448201526064016108b2565b604080518082019091526008815267283937bb34b232b960c11b602091820152845190850120600080516020615e9c83398151915214156125695761256481848461416e565b6126c9565b60408051808201909152600881526729bab8383634b2b960c11b602091820152845190850120600080516020615e7c83398151915214156125af576125648184846143bb565b60408051808201909152600c81526b26b0b73ab330b1ba3ab932b960a11b602091820152845190850120600080516020615edc83398151915214156125f957612564818484614607565b60408051808201909152600b81526a2234b9ba3934b13aba37b960a91b602091820152845190850120600080516020615efc833981519152141561264257612564818484614853565b6040805180820190915260088152672932ba30b4b632b960c11b602091820152845190850120600080516020615ebc833981519152141561268857612564818484614a9f565b60405162461bcd60e51b8152602060048201526016602482015275155b9adb9bdddb88149bdb194814dc1958da599a595960521b60448201526064016108b2565b5050505050565b6126d981612464565b6126f55760405162461bcd60e51b81526004016108b290615bda565b600080612700611068565b91509150806127215760405162461bcd60e51b81526004016108b290615c1e565b600b60008481526001602052604090206005015460ff16600d81111561275757634e487b7160e01b600052602160045260246000fd5b146127745760405162461bcd60e51b81526004016108b290615c63565b600083815260016020819052604090912060038101805460098301558490556005018054600c9260ff199091169083611d32565b6060600060085467ffffffffffffffff8111156127d557634e487b7160e01b600052604160045260246000fd5b60405190808252806020026020018201604052801561280e57816020015b6127fb615524565b8152602001906001900390816127f35790505b50905060005b600854811015610d97576002600061282d836001615de1565b81526020808201929092526040908101600020815160808101835281546001600160a01b03168152600182015493810193909352600281018054919284019161287590615df9565b80601f01602080910402602001604051908101604052809291908181526020018280546128a190615df9565b80156128ee5780601f106128c3576101008083540402835291602001916128ee565b820191906000526020600020905b8154815290600101906020018083116128d157829003601f168201915b5050505050815260200160038201805461290790615df9565b80601f016020809104026020016040519081016040528092919081815260200182805461293390615df9565b80156129805780601f1061295557610100808354040283529160200191612980565b820191906000526020600020905b81548152906001019060200180831161296357829003601f168201915b5050505050815250508282815181106129a957634e487b7160e01b600052603260045260246000fd5b602002602001018190525080806129bf90615e34565b915050612814565b6004602052600090815260409020805460018201546002830180546001600160a01b03909316939192610a5b90615df9565b612a0281612464565b612a1e5760405162461bcd60e51b81526004016108b290615bda565b600080612a296119e7565b9150915080612a4a5760405162461bcd60e51b81526004016108b290615b91565b600660008481526001602052604090206005015460ff16600d811115612a8057634e487b7160e01b600052602160045260246000fd5b14612a9d5760405162461bcd60e51b81526004016108b290615c63565b60008381526001602081905260408220600381018054600783015585905560048101929092556005909101805460089260ff199091169083611d32565b6000546001600160a01b03163314612af157600080fd5b612af9614ceb565b612b6b5760405162461bcd60e51b815260206004820152603c60248201527f54686520737570706c7920636861696e206973206d697373696e67207468652060448201527f726571756972656420656e74697469657320746f206f7065726174650000000060648201526084016108b2565b60078054906000612b7b83615e34565b91905055506040518060e00160405280600754815260200183815260200182815260200160008152602001600081526020016000600d811115612bce57634e487b7160e01b600052602160045260246000fd5b81526040805160a0810182526000808252602082810182905282840182905260608301829052608083018290529384019190915260075481526001808452919020835181558383015180519193612c2a938501929101906155e0565b5060408201518051612c469160028401916020909101906155e0565b50606082015160038201556080820151600482015560a082015160058201805460ff1916600183600d811115612c8c57634e487b7160e01b600052602160045260246000fd5b021790555060c091909101518051600683015560208101516007830155604081015160088301556060810151600983015560800151600a909101555050565b6000546001600160a01b03163314612ce257600080fd5b600081118015612cf45750600e548111155b612d385760405162461bcd60e51b8152602060048201526015602482015274125b9d985b1a5908149959da5cdd1c985b9d081251605a1b60448201526064016108b2565b6000600e5411612d8a5760405162461bcd60e51b815260206004820152601960248201527f52656769737472616e7420517565756520697320656d7074790000000000000060448201526064016108b2565b6000818152600d60209081526040808320815160a08101835281546001600160a01b031681526001820154938101939093526002810180549192840191612dd090615df9565b80601f0160208091040260200160405190810160405280929190818152602001828054612dfc90615df9565b8015612e495780601f10612e1e57610100808354040283529160200191612e49565b820191906000526020600020905b815481529060010190602001808311612e2c57829003601f168201915b50505050508152602001600382018054612e6290615df9565b80601f0160208091040260200160405190810160405280929190818152602001828054612e8e90615df9565b8015612edb5780601f10612eb057610100808354040283529160200191612edb565b820191906000526020600020905b815481529060010190602001808311612ebe57829003601f168201915b50505050508152602001600482018054612ef490615df9565b80601f0160208091040260200160405190810160405280929190818152602001828054612f2090615df9565b8015612f6d5780601f10612f4257610100808354040283529160200191612f6d565b820191906000526020600020905b815481529060010190602001808311612f5057829003601f168201915b505050505081525050905061085d8160000151826080015183604001518460600151613847565b6006602052600090815260409020805460018201546002830180546001600160a01b03909316939192610a5b90615df9565b612fce615524565b6000600a5411612fdd57600080fd5b600082118015612fef5750600a548211155b61300b5760405162461bcd60e51b81526004016108b290615b26565b600082815260046020908152604091829020825160808101845281546001600160a01b03168152600182015492810192909252600281018054929391929184019161090590615df9565b61305e81612464565b61307a5760405162461bcd60e51b81526004016108b290615bda565b600080613085611068565b91509150806130a65760405162461bcd60e51b81526004016108b290615c1e565b600c60008481526001602052604090206005015460ff16600d8111156130dc57634e487b7160e01b600052602160045260246000fd5b146130f95760405162461bcd60e51b81526004016108b290615c63565b6000838152600160208190526040909120600a8101849055600381018490556005018054600d9260ff199091169083611d32565b60008111801561313f57506007548111155b61315b5760405162461bcd60e51b81526004016108b290615d0e565b60008061316733613fdc565b91509150600082116131ad5760405162461bcd60e51b815260206004820152600f60248201526e1058dd1bdc881b9bdd08199bdd5b99608a1b60448201526064016108b2565b6000838152600160208181526040808420815160e081019092528054825292830180549193928401916131df90615df9565b80601f016020809104026020016040519081016040528092919081815260200182805461320b90615df9565b80156132585780601f1061322d57610100808354040283529160200191613258565b820191906000526020600020905b81548152906001019060200180831161323b57829003601f168201915b5050505050815260200160028201805461327190615df9565b80601f016020809104026020016040519081016040528092919081815260200182805461329d90615df9565b80156132ea5780601f106132bf576101008083540402835291602001916132ea565b820191906000526020600020905b8154815290600101906020018083116132cd57829003601f168201915b50505091835250506003820154602082015260048201546040820152600582015460609091019060ff16600d81111561333357634e487b7160e01b600052602160045260246000fd5b600d81111561335257634e487b7160e01b600052602160045260246000fd5b81526040805160a0810182526006840154815260078401546020828101919091526008808601548385015260098601546060840152600a90950154608083015292830152805180820190915291825267283937bb34b232b960c11b91810191909152835190840120909150600080516020615e9c833981519152141561346f5760008160a00151600d8111156133f857634e487b7160e01b600052602160045260246000fd5b141561340c5761340784611d3c565b6123af565b60028160a00151600d81111561343257634e487b7160e01b600052602160045260246000fd5b1480613461575060018160a00151600d81111561345f57634e487b7160e01b600052602160045260246000fd5b145b156123af576123af84613f80565b60408051808201909152600881526729bab8383634b2b960c11b602091820152825190830120600080516020615e7c83398151915214156135425760038160a00151600d8111156134d057634e487b7160e01b600052602160045260246000fd5b14156134df5761340784611c15565b60058160a00151600d81111561350557634e487b7160e01b600052602160045260246000fd5b1480613534575060048160a00151600d81111561353257634e487b7160e01b600052602160045260246000fd5b145b156123af576123af84611a3b565b60408051808201909152600c81526b26b0b73ab330b1ba3ab932b960a11b602091820152825190830120600080516020615edc83398151915214156135eb5760068160a00151600d8111156135a757634e487b7160e01b600052602160045260246000fd5b14156135b657613407846129f9565b60078160a00151600d8111156135dc57634e487b7160e01b600052602160045260246000fd5b14156123af576123af84611669565b60408051808201909152600b81526a2234b9ba3934b13aba37b960a91b602091820152825190830120600080516020615efc83398151915214156136c15760088160a00151600d81111561364f57634e487b7160e01b600052602160045260246000fd5b141561365e5761340784613766565b60098160a00151600d81111561368457634e487b7160e01b600052602160045260246000fd5b14806136b35750600a8160a00151600d8111156136b157634e487b7160e01b600052602160045260246000fd5b145b156123af576123af84610a20565b6040805180820190915260088152672932ba30b4b632b960c11b602091820152825190830120600080516020615ebc833981519152141561245e57600b8160a00151600d81111561372257634e487b7160e01b600052602160045260246000fd5b1415613731576123af846126d0565b600c8160a00151600d81111561375757634e487b7160e01b600052602160045260246000fd5b141561245e5761245e84613055565b61376f81612464565b61378b5760405162461bcd60e51b81526004016108b290615bda565b60008061379661081c565b91509150806137b75760405162461bcd60e51b81526004016108b290615b91565b600860008481526001602052604090206005015460ff16600d8111156137ed57634e487b7160e01b600052602160045260246000fd5b1461380a5760405162461bcd60e51b81526004016108b290615c63565b600083815260016020819052604082206003810180546008830155859055600481019290925560059091018054600b9260ff199091169083611d32565b6000546001600160a01b0316331461385e57600080fd5b61245e84848484614d31565b60606000600a5467ffffffffffffffff81111561389757634e487b7160e01b600052604160045260246000fd5b6040519080825280602002602001820160405280156138d057816020015b6138bd615524565b8152602001906001900390816138b55790505b50905060005b600a54811015610d9757600460006138ef836001615de1565b81526020808201929092526040908101600020815160808101835281546001600160a01b03168152600182015493810193909352600281018054919284019161393790615df9565b80601f016020809104026020016040519081016040528092919081815260200182805461396390615df9565b80156139b05780601f10613985576101008083540402835291602001916139b0565b820191906000526020600020905b81548152906001019060200180831161399357829003601f168201915b505050505081526020016003820180546139c990615df9565b80601f01602080910402602001604051908101604052809291908181526020018280546139f590615df9565b8015613a425780601f10613a1757610100808354040283529160200191613a42565b820191906000526020600020905b815481529060010190602001808311613a2557829003601f168201915b505050505081525050828281518110613a6b57634e487b7160e01b600052603260045260246000fd5b60200260200101819052508080613a8190615e34565b9150506138d6565b6060600082118015613a9d57506007548211155b613ab95760405162461bcd60e51b81526004016108b290615d0e565b60008281526001602052604081206005015460ff16600d811115613aed57634e487b7160e01b600052602160045260246000fd5b1415613b1f575060408051808201909152600f81526e141c9bd91d58dd0813dc99195c9959608a1b6020820152610817565b600160008381526001602052604090206005015460ff16600d811115613b5557634e487b7160e01b600052602160045260246000fd5b1480613b945750600360008381526001602052604090206005015460ff16600d811115613b9257634e487b7160e01b600052602160045260246000fd5b145b80613bd25750600260008381526001602052604090206005015460ff16600d811115613bd057634e487b7160e01b600052602160045260246000fd5b145b15613c11575060408051808201909152601981527f5265736f757263652045787472616374696f6e205068617365000000000000006020820152610817565b600460008381526001602052604090206005015460ff16600d811115613c4757634e487b7160e01b600052602160045260246000fd5b1480613c865750600660008381526001602052604090206005015460ff16600d811115613c8457634e487b7160e01b600052602160045260246000fd5b145b80613cc45750600560008381526001602052604090206005015460ff16600d811115613cc257634e487b7160e01b600052602160045260246000fd5b145b15613cfb57506040805180820190915260158152745265736f7572636520537570706c7920506861736560581b6020820152610817565b600760008381526001602052604090206005015460ff16600d811115613d3157634e487b7160e01b600052602160045260246000fd5b1480613d705750600860008381526001602052604090206005015460ff16600d811115613d6e57634e487b7160e01b600052602160045260246000fd5b145b15613da557506040805180820190915260138152724d616e75666163747572696e6720506861736560681b6020820152610817565b600960008381526001602052604090206005015460ff16600d811115613ddb57634e487b7160e01b600052602160045260246000fd5b1480613e1a5750600b60008381526001602052604090206005015460ff16600d811115613e1857634e487b7160e01b600052602160045260246000fd5b145b80613e585750600a60008381526001602052604090206005015460ff16600d811115613e5657634e487b7160e01b600052602160045260246000fd5b145b15613e8c5750604080518082019091526012815271446973747269627574696f6e20506861736560701b6020820152610817565b600c60008381526001602052604090206005015460ff16600d811115613ec257634e487b7160e01b600052602160045260246000fd5b1415613ef1575060408051808201909152600c81526b52657461696c20506861736560a01b6020820152610817565b600d60008381526001602052604090206005015460ff16600d811115613f2757634e487b7160e01b600052602160045260246000fd5b1415613f56575060408051808201909152600c81526b141c9bd91d58dd0814dbdb1960a21b6020820152610817565b5060408051808201909152600d81526c556e6b6e6f776e20537461746560981b6020820152610817565b61046881611d3c565b6000806000613f9784614f03565b925050508015155b915091565b6000806000613f9784614f6c565b6000806000613f9784614fd5565b6000806000613f978461503e565b6000806000613f97846150a7565b60006060613fe8614ceb565b61402a5760405162461bcd60e51b8152602060048201526013602482015272139bc81858dd1bdc881c9959da5cdd195c9959606a1b60448201526064016108b2565b60006140358461503e565b90508015614066576040805180820190915260088152672932ba30b4b632b960c11b60208201529092509050613f9f565b61406f84614f6c565b905080156140a057604080518082019091526008815267283937bb34b232b960c11b60208201529092509050613f9f565b6140a984614fd5565b905080156140da5760408051808201909152600881526729bab8383634b2b960c11b60208201529092509050613f9f565b6140e3846150a7565b905080156141185760408051808201909152600c81526b26b0b73ab330b1ba3ab932b960a11b60208201529092509050613f9f565b61412184614f03565b905080156141555760408051808201909152600b81526a2234b9ba3934b13aba37b960a91b60208201529092509050613f9f565b5050604080516020810190915260008082529150915091565b60008311801561417f575060085483105b61419b5760405162461bcd60e51b81526004016108b290615cc0565b6000838152600260208181526040808420815160808101835281546001600160a01b031681526001820154938101939093529283018054929392918401916141e290615df9565b80601f016020809104026020016040519081016040528092919081815260200182805461420e90615df9565b801561425b5780601f106142305761010080835404028352916020019161425b565b820191906000526020600020905b81548152906001019060200180831161423e57829003601f168201915b5050505050815260200160038201805461427490615df9565b80601f01602080910402602001604051908101604052809291908181526020018280546142a090615df9565b80156142ed5780601f106142c2576101008083540402835291602001916142ed565b820191906000526020600020905b8154815290600101906020018083116142d057829003601f168201915b505050919092525050600054919250506001600160a01b031633148061431c575080516001600160a01b031633145b6143385760405162461bcd60e51b81526004016108b290615b50565b806040015180519060200120838051906020012014158061436b5750806060015180519060200120828051906020012014155b1561245e5760008481526002602081815260409092208551614395939190920191908601906155e0565b50600084815260026020908152604090912083516126c9926003909201918501906155e0565b6000831180156143cc5750600a5483105b6143e85760405162461bcd60e51b81526004016108b290615cc0565b6000838152600360209081526040808320815160808101835281546001600160a01b03168152600182015493810193909352600281018054919284019161442e90615df9565b80601f016020809104026020016040519081016040528092919081815260200182805461445a90615df9565b80156144a75780601f1061447c576101008083540402835291602001916144a7565b820191906000526020600020905b81548152906001019060200180831161448a57829003601f168201915b505050505081526020016003820180546144c090615df9565b80601f01602080910402602001604051908101604052809291908181526020018280546144ec90615df9565b80156145395780601f1061450e57610100808354040283529160200191614539565b820191906000526020600020905b81548152906001019060200180831161451c57829003601f168201915b505050919092525050600054919250506001600160a01b0316331480614568575080516001600160a01b031633145b6145845760405162461bcd60e51b81526004016108b290615b50565b80604001518051906020012083805190602001201415806145b75750806060015180519060200120828051906020012014155b1561245e57600084815260036020908152604090912084516145e1926002909201918601906155e0565b50600084815260036020818152604090922084516126c9939190920191908501906155e0565b6000831180156146185750600a5483105b6146345760405162461bcd60e51b81526004016108b290615cc0565b6000838152600460209081526040808320815160808101835281546001600160a01b03168152600182015493810193909352600281018054919284019161467a90615df9565b80601f01602080910402602001604051908101604052809291908181526020018280546146a690615df9565b80156146f35780601f106146c8576101008083540402835291602001916146f3565b820191906000526020600020905b8154815290600101906020018083116146d657829003601f168201915b5050505050815260200160038201805461470c90615df9565b80601f016020809104026020016040519081016040528092919081815260200182805461473890615df9565b80156147855780601f1061475a57610100808354040283529160200191614785565b820191906000526020600020905b81548152906001019060200180831161476857829003601f168201915b505050919092525050600054919250506001600160a01b03163314806147b4575080516001600160a01b031633145b6147d05760405162461bcd60e51b81526004016108b290615b50565b80604001518051906020012083805190602001201415806148035750806060015180519060200120828051906020012014155b1561245e576000848152600460209081526040909120845161482d926002909201918601906155e0565b50600084815260046020908152604090912083516126c9926003909201918501906155e0565b6000831180156148645750600b5483105b6148805760405162461bcd60e51b81526004016108b290615cc0565b6000838152600560209081526040808320815160808101835281546001600160a01b0316815260018201549381019390935260028101805491928401916148c690615df9565b80601f01602080910402602001604051908101604052809291908181526020018280546148f290615df9565b801561493f5780601f106149145761010080835404028352916020019161493f565b820191906000526020600020905b81548152906001019060200180831161492257829003601f168201915b5050505050815260200160038201805461495890615df9565b80601f016020809104026020016040519081016040528092919081815260200182805461498490615df9565b80156149d15780601f106149a6576101008083540402835291602001916149d1565b820191906000526020600020905b8154815290600101906020018083116149b457829003601f168201915b505050919092525050600054919250506001600160a01b0316331480614a00575080516001600160a01b031633145b614a1c5760405162461bcd60e51b81526004016108b290615b50565b8060400151805190602001208380519060200120141580614a4f5750806060015180519060200120828051906020012014155b1561245e5760008481526005602090815260409091208451614a79926002909201918601906155e0565b50600084815260056020908152604090912083516126c9926003909201918501906155e0565b600083118015614ab05750600c5483105b614acc5760405162461bcd60e51b81526004016108b290615cc0565b6000838152600660209081526040808320815160808101835281546001600160a01b031681526001820154938101939093526002810180549192840191614b1290615df9565b80601f0160208091040260200160405190810160405280929190818152602001828054614b3e90615df9565b8015614b8b5780601f10614b6057610100808354040283529160200191614b8b565b820191906000526020600020905b815481529060010190602001808311614b6e57829003601f168201915b50505050508152602001600382018054614ba490615df9565b80601f0160208091040260200160405190810160405280929190818152602001828054614bd090615df9565b8015614c1d5780601f10614bf257610100808354040283529160200191614c1d565b820191906000526020600020905b815481529060010190602001808311614c0057829003601f168201915b505050919092525050600054919250506001600160a01b0316331480614c4c575080516001600160a01b031633145b614c685760405162461bcd60e51b81526004016108b290615b50565b8060400151805190602001208380519060200120141580614c9b5750806060015180519060200120828051906020012014155b1561245e5760008481526006602090815260409091208451614cc5926002909201918601906155e0565b50600084815260066020908152604090912083516126c9926003909201918501906155e0565b6000614cf8600b54151590565b8015614d055750600a5415155b8015614d12575060085415155b8015614d1f575060095415155b8015614d2c5750600c5415155b905090565b6000546001600160a01b03163314614d4857600080fd5b614d5184615110565b15614d9e5760405162461bcd60e51b815260206004820152601760248201527f5573657220416c7265616479205265676973746572656400000000000000000060448201526064016108b2565b604080518082019091526008815267283937bb34b232b960c11b602091820152835190840120600080516020615e9c8339815191521415614de4576123af8483836151f6565b60408051808201909152600881526729bab8383634b2b960c11b602091820152835190840120600080516020615e7c8339815191521415614e2a576123af8483836152b0565b60408051808201909152600c81526b26b0b73ab330b1ba3ab932b960a11b602091820152835190840120600080516020615edc8339815191521415614e74576123af84838361534d565b60408051808201909152600b81526a2234b9ba3934b13aba37b960a91b602091820152835190840120600080516020615efc8339815191521415614ebd576123af8483836153ea565b6040805180820190915260088152672932ba30b4b632b960c11b602091820152835190840120600080516020615ebc8339815191521415612688576123af848383615487565b600080600b5411614f1357600080fd5b60015b600b548111610811576000818152600560205260409020546001600160a01b0384811691161415614f5a576000908152600560205260409020600101549050610817565b80614f6481615e34565b915050614f16565b60008060085411614f7c57600080fd5b60015b6008548111610811576000818152600260205260409020546001600160a01b0384811691161415614fc3576000908152600260205260409020600101549050610817565b80614fcd81615e34565b915050614f7f565b60008060095411614fe557600080fd5b60015b6009548111610811576000818152600360205260409020546001600160a01b038481169116141561502c576000908152600360205260409020600101549050610817565b8061503681615e34565b915050614fe8565b600080600c541161504e57600080fd5b60015b600c548111610811576000818152600660205260409020546001600160a01b0384811691161415615095576000908152600660205260409020600101549050610817565b8061509f81615e34565b915050615051565b600080600a54116150b757600080fd5b60015b600a548111610811576000818152600460205260409020546001600160a01b03848116911614156150fe576000908152600460205260409020600101549050610817565b8061510881615e34565b9150506150ba565b600080546001600160a01b0316331461512857600080fd5b600080615136600b54151590565b156151585761514484613f89565b909250905080156151585791506108179050565b600c541561517d5761516984613fc0565b9092509050801561517d5791506108179050565b600a54156151a25761518e84613fce565b909250905080156151a25791506108179050565b600954156151c7576151b384613fb2565b909250905080156151c75791506108179050565b600854156151ec576151d884613fa4565b909250905080156151ec5791506108179050565b5060009392505050565b6000546001600160a01b0316331461520d57600080fd5b6008805490600061521d83615e34565b9091555050604080516080810182526001600160a01b0385811682526008546020808401828152848601888152606086018890526000938452600280845296909320855181546001600160a01b031916951694909417845551600184015590518051939492936152949385019291909101906155e0565b506060820151805161245b9160038401916020909101906155e0565b6000546001600160a01b031633146152c757600080fd5b600980549060006152d783615e34565b9091555050604080516080810182526001600160a01b03858116825260095460208084018281528486018881526060860188905260009384526003835295909220845181546001600160a01b031916941693909317835590516001830155925180519293919261529492600285019201906155e0565b6000546001600160a01b0316331461536457600080fd5b600a805490600061537483615e34565b9091555050604080516080810182526001600160a01b038581168252600a5460208084018281528486018881526060860188905260009384526004835295909220845181546001600160a01b031916941693909317835590516001830155925180519293919261529492600285019201906155e0565b6000546001600160a01b0316331461540157600080fd5b600b805490600061541183615e34565b9091555050604080516080810182526001600160a01b038581168252600b5460208084018281528486018881526060860188905260009384526005835295909220845181546001600160a01b031916941693909317835590516001830155925180519293919261529492600285019201906155e0565b6000546001600160a01b0316331461549e57600080fd5b600c80549060006154ae83615e34565b9091555050604080516080810182526001600160a01b038581168252600c5460208084018281528486018881526060860188905260009384526006835295909220845181546001600160a01b031916941693909317835590516001830155925180519293919261529492600285019201906155e0565b604051806080016040528060006001600160a01b031681526020016000815260200160608152602001606081525090565b6040518060e0016040528060008152602001606081526020016060815260200160008152602001600081526020016000600d8111156155a457634e487b7160e01b600052602160045260246000fd5b81526020016155db6040518060a0016040528060008152602001600081526020016000815260200160008152602001600081525090565b905290565b8280546155ec90615df9565b90600052602060002090601f01602090048101928261560e5760008555615654565b82601f1061562757805160ff1916838001178555615654565b82800160010185558215615654579182015b82811115615654578251825591602001919060010190615639565b50615660929150615664565b5090565b5b808211156156605760008155600101615665565b80356001600160a01b038116811461081757600080fd5b600082601f8301126156a0578081fd5b813567ffffffffffffffff808211156156bb576156bb615e65565b604051601f8301601f19908116603f011681019082821181831017156156e3576156e3615e65565b816040528381528660208588010111156156fb578485fd5b8360208701602083013792830160200193909352509392505050565b600060208284031215615728578081fd5b61573182615679565b9392505050565b6000806000806080858703121561574d578283fd5b61575685615679565b9350602085013567ffffffffffffffff80821115615772578485fd5b61577e88838901615690565b94506040870135915080821115615793578384fd5b61579f88838901615690565b935060608701359150808211156157b4578283fd5b506157c187828801615690565b91505092959194509250565b600080604083850312156157df578182fd5b823567ffffffffffffffff808211156157f6578384fd5b61580286838701615690565b93506020850135915080821115615817578283fd5b5061582485828601615690565b9150509250929050565b60006020828403121561583f578081fd5b5035919050565b600e811061586457634e487b7160e01b600052602160045260246000fd5b9052565b60008151808452815b8181101561588d57602081850181015186830182015201615871565b8181111561589e5782602083870101525b50601f01601f19169290920160200192915050565b600060018060a01b038251168352602082015160208401526040820151608060408501526158e46080850182615868565b9050606083015184820360608601526158fd8282615868565b95945050505050565b600061016082518452602083015181602086015261592682860182615868565b915050604083015184820360408601526159408282615868565b915050606083015160608501526080830151608085015260a083015161596960a0860182615846565b5060c08301516159a760c086018280518252602081015160208301526040810151604083015260608101516060830152608081015160808301525050565b509392505050565b600060018060a01b0386168252846020830152608060408301526159d66080830185615868565b82810360608401526159e88185615868565b979650505050505050565b600060018060a01b038716825285602083015260a06040830152615a1a60a0830186615868565b8281036060840152615a2c8186615868565b90508281036080840152615a408185615868565b98975050505050505050565b6000602080830181845280855180835260408601915060408482028701019250838701855b82811015615a9f57603f19888603018452615a8d8583516158b3565b94509285019290850190600101615a71565b5092979650505050505050565b6000602080830181845280855180835260408601915060408482028701019250838701855b82811015615a9f57603f19888603018452615aed858351615906565b94509285019290850190600101615ad1565b60208101615b0d8284615846565b92915050565b6000602082526157316020830184615868565b60208082526010908201526f125b9d985b1a59081858dd1bdc88125160821b604082015260600190565b60208082526021908201527f556e617574686f72697a656420746f207570646174652074686973206163746f6040820152603960f91b606082015260800190565b60208082526029908201527f5468652075736572206973206e6f7420612072656769737465726564206d616e6040820152683ab330b1ba3ab932b960b91b606082015260800190565b60208082526024908201527f5468652070726f64756374206973206e6f7420696e2074686520426c6f636b636040820152633430b4b760e11b606082015260800190565b60208082526025908201527f5468652075736572206973206e6f74206120726567697374657265642072657460408201526430b4b632b960d91b606082015260800190565b6020808252603c908201527f596f7520646f6e277420686176652074686520726967687420746f206d6f646960408201527f6679207468652070726f64756374206174207468697320737461676500000000606082015260800190565b6020808252602e908201527f4e6f206163746f7220666f756e642074686174206d617463686573207468652060408201526d73706563696669636174696f6e7360901b606082015260800190565b602080825260129082015271125b9d985b1a5908141c9bd91d58dd08125160721b604082015260600190565b60006020825261573160208301846158b3565b6000602082526157316020830184615906565b6000610160898352806020840152615d7a8184018a615868565b90508281036040840152615d8e8189615868565b915050856060830152846080830152615daa60a0830185615846565b825160c0830152602083015160e0830152604083015161010083015260608301516101208301526080830151610140830152615a40565b60008219821115615df457615df4615e4f565b500190565b600281046001821680615e0d57607f821691505b60208210811415615e2e57634e487b7160e01b600052602260045260246000fd5b50919050565b6000600019821415615e4857615e48615e4f565b5060010190565b634e487b7160e01b600052601160045260246000fd5b634e487b7160e01b600052604160045260246000fdfeb77c7d6bf62fa24fc205955093030c58325cd2d3d35fb486ede7594fb99635f5e6177e73b6c04b0318a0dc22e6d8cdee33c8c7029db9046248de998d24e170db1534e98f9dd33e3681193a0541f0c2e3d732d183dcdc630aac2b943280af42a0cec9b8e63c868f2f7f30368f1583e7aa39ae80e163d57a859fa5a90244b28ac1a19d0db335544d3c3ec35c34b9b35a51bd4861f7162de07d5af409611794db04a264697066735822122092eb1b50a974db9b4042eae339eb28435bd56c3da6c1afb14133a85b59dd799a64736f6c63430008020033",
  "immutableReferences": {},
  "source": "// SPDX-License-Identifier: MIT\r\npragma solidity >=0.4.22 <0.9.0;\r\n\r\nimport \"../ISupplyChain.sol\";\r\nimport \"./SimpleSupplyChain.sol\";\r\n\r\n// Extends Simple Supply Chain offering a way for actors to request\r\n// Account Registration\r\ncontract SelfRegisterSimpleSupplyChain is SimpleSupplyChain{\r\n\r\n    // The QueueRegistrant struct defines basic information to be used to create actors\r\n    struct QueueRegistrant {\r\n        address ethAddress;      // Node ETH address\r\n        uint256  id;             // Queue Id\r\n        string  name;            // Actor Name (Company name)\r\n        string  businessAddress; // Business Address\r\n        string  role;            // Requested Role\r\n    }\r\n\r\n    // Export registrant on the blockchain\r\n    mapping(uint256 => QueueRegistrant) public Queue;\r\n    uint256 private _queueCounter;\r\n\r\n    function getQueueCounter() public view returns (uint256){\r\n        return _queueCounter;\r\n    }\r\n\r\n    /*\r\n    * This function now implements a functionality usable by ANY user\r\n    * to request registration to the platform. The request still needs\r\n    * to be approved by the owner though.\r\n    */\r\n    function registerActor(\r\n        address _ethAddress,\r\n        string memory _role,\r\n        string memory _name,\r\n        string memory _businessAddress\r\n    ) virtual public {\r\n        _queueCounter++;\r\n        Queue[_queueCounter] = QueueRegistrant(_ethAddress, _queueCounter, _name, _businessAddress, _role);\r\n    }\r\n\r\n    function findRegistrantByAddress(address _address) public view returns(uint256){\r\n        require(_queueCounter > 0);\r\n        for (uint256 i = 1; i <= _queueCounter; i++) {\r\n            if (Queue[i].ethAddress == _address) return Queue[i].id;\r\n        }\r\n        return 0;\r\n    }\r\n\r\n    function approveActorByAddress(\r\n        address _address\r\n    ) virtual public onlyByOwner() {\r\n        uint256 _id = findRegistrantByAddress(_address);\r\n        approveActorById(_id);\r\n    }\r\n\r\n    function approveActorById(\r\n        uint256 _id\r\n    ) virtual public onlyByOwner() {\r\n        require(_id > 0 && _id <= _queueCounter, \"Invalid Registrant ID\");\r\n        require(_queueCounter > 0, \"Registrant Queue is empty\");\r\n        QueueRegistrant memory q = Queue[_id];\r\n        addActor(q.ethAddress, q.role, q.name, q.businessAddress);\r\n    }\r\n\r\n\r\n}",
  "sourcePath": "/mnt/e/Projects/WebstormProjects/supply-chain-on-blockchain/contracts/implementation/examples/SelfRegistrationSupplyChain.sol",
  "compiler": {
    "name": "solc",
    "version": "0.8.2+commit.661d1103.Emscripten.clang"
  },
  "schemaVersion": "3.4.16",
  "updatedAt": "2024-01-21T17:45:05.080Z",
  "devdoc": {
    "kind": "dev",
    "methods": {},
    "version": 1
  },
  "userdoc": {
    "kind": "user",
    "methods": {},
    "version": 1
  }
}