{
  "contractName": "SimpleSupplyChain",
  "abi": [
    {
      "inputs": [
        {
          "internalType": "uint256",
          "name": "",
          "type": "uint256"
        }
      ],
      "name": "Distributors",
      "outputs": [
        {
          "internalType": "address",
          "name": "ethAddress",
          "type": "address"
        },
        {
          "internalType": "uint256",
          "name": "id",
          "type": "uint256"
        },
        {
          "internalType": "string",
          "name": "name",
          "type": "string"
        },
        {
          "internalType": "string",
          "name": "businessAddress",
          "type": "string"
        }
      ],
      "stateMutability": "view",
      "type": "function"
    },
    {
      "inputs": [
        {
          "internalType": "uint256",
          "name": "",
          "type": "uint256"
        }
      ],
      "name": "Manufacturers",
      "outputs": [
        {
          "internalType": "address",
          "name": "ethAddress",
          "type": "address"
        },
        {
          "internalType": "uint256",
          "name": "id",
          "type": "uint256"
        },
        {
          "internalType": "string",
          "name": "name",
          "type": "string"
        },
        {
          "internalType": "string",
          "name": "businessAddress",
          "type": "string"
        }
      ],
      "stateMutability": "view",
      "type": "function"
    },
    {
      "inputs": [],
      "name": "Owner",
      "outputs": [
        {
          "internalType": "address",
          "name": "",
          "type": "address"
        }
      ],
      "stateMutability": "view",
      "type": "function"
    },
    {
      "inputs": [
        {
          "internalType": "uint256",
          "name": "",
          "type": "uint256"
        }
      ],
      "name": "Providers",
      "outputs": [
        {
          "internalType": "address",
          "name": "ethAddress",
          "type": "address"
        },
        {
          "internalType": "uint256",
          "name": "id",
          "type": "uint256"
        },
        {
          "internalType": "string",
          "name": "name",
          "type": "string"
        },
        {
          "internalType": "string",
          "name": "businessAddress",
          "type": "string"
        }
      ],
      "stateMutability": "view",
      "type": "function"
    },
    {
      "inputs": [
        {
          "internalType": "uint256",
          "name": "",
          "type": "uint256"
        }
      ],
      "name": "Retailers",
      "outputs": [
        {
          "internalType": "address",
          "name": "ethAddress",
          "type": "address"
        },
        {
          "internalType": "uint256",
          "name": "id",
          "type": "uint256"
        },
        {
          "internalType": "string",
          "name": "name",
          "type": "string"
        },
        {
          "internalType": "string",
          "name": "businessAddress",
          "type": "string"
        }
      ],
      "stateMutability": "view",
      "type": "function"
    },
    {
      "inputs": [
        {
          "internalType": "uint256",
          "name": "",
          "type": "uint256"
        }
      ],
      "name": "Stock",
      "outputs": [
        {
          "internalType": "uint256",
          "name": "id",
          "type": "uint256"
        },
        {
          "internalType": "string",
          "name": "name",
          "type": "string"
        },
        {
          "internalType": "string",
          "name": "description",
          "type": "string"
        },
        {
          "internalType": "uint256",
          "name": "lastModifiedBy",
          "type": "uint256"
        },
        {
          "internalType": "uint256",
          "name": "requireResponseBy",
          "type": "uint256"
        },
        {
          "internalType": "enum ISupplyChain.PHASE",
          "name": "phase",
          "type": "uint8"
        },
        {
          "components": [
            {
              "internalType": "uint256",
              "name": "providerID",
              "type": "uint256"
            },
            {
              "internalType": "uint256",
              "name": "supplierID",
              "type": "uint256"
            },
            {
              "internalType": "uint256",
              "name": "manufacturerID",
              "type": "uint256"
            },
            {
              "internalType": "uint256",
              "name": "distributorID",
              "type": "uint256"
            },
            {
              "internalType": "uint256",
              "name": "retailerID",
              "type": "uint256"
            }
          ],
          "internalType": "struct ISupplyChain.Tracking",
          "name": "tracking",
          "type": "tuple"
        }
      ],
      "stateMutability": "view",
      "type": "function"
    },
    {
      "inputs": [
        {
          "internalType": "uint256",
          "name": "",
          "type": "uint256"
        }
      ],
      "name": "Suppliers",
      "outputs": [
        {
          "internalType": "address",
          "name": "ethAddress",
          "type": "address"
        },
        {
          "internalType": "uint256",
          "name": "id",
          "type": "uint256"
        },
        {
          "internalType": "string",
          "name": "name",
          "type": "string"
        },
        {
          "internalType": "string",
          "name": "businessAddress",
          "type": "string"
        }
      ],
      "stateMutability": "view",
      "type": "function"
    },
    {
      "inputs": [
        {
          "internalType": "uint256",
          "name": "_productID",
          "type": "uint256"
        }
      ],
      "name": "acceptPhase",
      "outputs": [],
      "stateMutability": "nonpayable",
      "type": "function"
    },
    {
      "inputs": [
        {
          "internalType": "address",
          "name": "_ethAddress",
          "type": "address"
        },
        {
          "internalType": "string",
          "name": "_role",
          "type": "string"
        },
        {
          "internalType": "string",
          "name": "_name",
          "type": "string"
        },
        {
          "internalType": "string",
          "name": "_businessAddress",
          "type": "string"
        }
      ],
      "name": "addActor",
      "outputs": [],
      "stateMutability": "nonpayable",
      "type": "function"
    },
    {
      "inputs": [
        {
          "internalType": "string",
          "name": "_name",
          "type": "string"
        },
        {
          "internalType": "string",
          "name": "_description",
          "type": "string"
        }
      ],
      "name": "addNewProduct",
      "outputs": [],
      "stateMutability": "nonpayable",
      "type": "function"
    },
    {
      "inputs": [
        {
          "internalType": "uint256",
          "name": "_productID",
          "type": "uint256"
        }
      ],
      "name": "failDistribution",
      "outputs": [],
      "stateMutability": "nonpayable",
      "type": "function"
    },
    {
      "inputs": [
        {
          "internalType": "uint256",
          "name": "_productID",
          "type": "uint256"
        }
      ],
      "name": "failResourceExtraction",
      "outputs": [],
      "stateMutability": "nonpayable",
      "type": "function"
    },
    {
      "inputs": [
        {
          "internalType": "uint256",
          "name": "_productID",
          "type": "uint256"
        }
      ],
      "name": "failResourceSupply",
      "outputs": [],
      "stateMutability": "nonpayable",
      "type": "function"
    },
    {
      "inputs": [
        {
          "internalType": "uint256",
          "name": "_id",
          "type": "uint256"
        }
      ],
      "name": "getDistributorById",
      "outputs": [
        {
          "components": [
            {
              "internalType": "address",
              "name": "ethAddress",
              "type": "address"
            },
            {
              "internalType": "uint256",
              "name": "id",
              "type": "uint256"
            },
            {
              "internalType": "string",
              "name": "name",
              "type": "string"
            },
            {
              "internalType": "string",
              "name": "businessAddress",
              "type": "string"
            }
          ],
          "internalType": "struct ISupplyChain.Actor",
          "name": "",
          "type": "tuple"
        }
      ],
      "stateMutability": "view",
      "type": "function"
    },
    {
      "inputs": [],
      "name": "getDistributorsArray",
      "outputs": [
        {
          "components": [
            {
              "internalType": "address",
              "name": "ethAddress",
              "type": "address"
            },
            {
              "internalType": "uint256",
              "name": "id",
              "type": "uint256"
            },
            {
              "internalType": "string",
              "name": "name",
              "type": "string"
            },
            {
              "internalType": "string",
              "name": "businessAddress",
              "type": "string"
            }
          ],
          "internalType": "struct ISupplyChain.Actor[]",
          "name": "",
          "type": "tuple[]"
        }
      ],
      "stateMutability": "view",
      "type": "function"
    },
    {
      "inputs": [],
      "name": "getDistributorsCount",
      "outputs": [
        {
          "internalType": "uint256",
          "name": "count",
          "type": "uint256"
        }
      ],
      "stateMutability": "view",
      "type": "function"
    },
    {
      "inputs": [
        {
          "internalType": "uint256",
          "name": "_id",
          "type": "uint256"
        }
      ],
      "name": "getManufacturerById",
      "outputs": [
        {
          "components": [
            {
              "internalType": "address",
              "name": "ethAddress",
              "type": "address"
            },
            {
              "internalType": "uint256",
              "name": "id",
              "type": "uint256"
            },
            {
              "internalType": "string",
              "name": "name",
              "type": "string"
            },
            {
              "internalType": "string",
              "name": "businessAddress",
              "type": "string"
            }
          ],
          "internalType": "struct ISupplyChain.Actor",
          "name": "",
          "type": "tuple"
        }
      ],
      "stateMutability": "view",
      "type": "function"
    },
    {
      "inputs": [],
      "name": "getManufacturersArray",
      "outputs": [
        {
          "components": [
            {
              "internalType": "address",
              "name": "ethAddress",
              "type": "address"
            },
            {
              "internalType": "uint256",
              "name": "id",
              "type": "uint256"
            },
            {
              "internalType": "string",
              "name": "name",
              "type": "string"
            },
            {
              "internalType": "string",
              "name": "businessAddress",
              "type": "string"
            }
          ],
          "internalType": "struct ISupplyChain.Actor[]",
          "name": "",
          "type": "tuple[]"
        }
      ],
      "stateMutability": "view",
      "type": "function"
    },
    {
      "inputs": [],
      "name": "getManufacturersCount",
      "outputs": [
        {
          "internalType": "uint256",
          "name": "count",
          "type": "uint256"
        }
      ],
      "stateMutability": "view",
      "type": "function"
    },
    {
      "inputs": [
        {
          "internalType": "uint256",
          "name": "_productID",
          "type": "uint256"
        }
      ],
      "name": "getProductById",
      "outputs": [
        {
          "components": [
            {
              "internalType": "uint256",
              "name": "id",
              "type": "uint256"
            },
            {
              "internalType": "string",
              "name": "name",
              "type": "string"
            },
            {
              "internalType": "string",
              "name": "description",
              "type": "string"
            },
            {
              "internalType": "uint256",
              "name": "lastModifiedBy",
              "type": "uint256"
            },
            {
              "internalType": "uint256",
              "name": "requireResponseBy",
              "type": "uint256"
            },
            {
              "internalType": "enum ISupplyChain.PHASE",
              "name": "phase",
              "type": "uint8"
            },
            {
              "components": [
                {
                  "internalType": "uint256",
                  "name": "providerID",
                  "type": "uint256"
                },
                {
                  "internalType": "uint256",
                  "name": "supplierID",
                  "type": "uint256"
                },
                {
                  "internalType": "uint256",
                  "name": "manufacturerID",
                  "type": "uint256"
                },
                {
                  "internalType": "uint256",
                  "name": "distributorID",
                  "type": "uint256"
                },
                {
                  "internalType": "uint256",
                  "name": "retailerID",
                  "type": "uint256"
                }
              ],
              "internalType": "struct ISupplyChain.Tracking",
              "name": "tracking",
              "type": "tuple"
            }
          ],
          "internalType": "struct ISupplyChain.Product",
          "name": "",
          "type": "tuple"
        }
      ],
      "stateMutability": "view",
      "type": "function"
    },
    {
      "inputs": [],
      "name": "getProductCount",
      "outputs": [
        {
          "internalType": "uint256",
          "name": "count",
          "type": "uint256"
        }
      ],
      "stateMutability": "view",
      "type": "function"
    },
    {
      "inputs": [
        {
          "internalType": "uint256",
          "name": "_productID",
          "type": "uint256"
        }
      ],
      "name": "getProductPhase",
      "outputs": [
        {
          "internalType": "enum ISupplyChain.PHASE",
          "name": "phase",
          "type": "uint8"
        }
      ],
      "stateMutability": "view",
      "type": "function"
    },
    {
      "inputs": [],
      "name": "getProductsArray",
      "outputs": [
        {
          "components": [
            {
              "internalType": "uint256",
              "name": "id",
              "type": "uint256"
            },
            {
              "internalType": "string",
              "name": "name",
              "type": "string"
            },
            {
              "internalType": "string",
              "name": "description",
              "type": "string"
            },
            {
              "internalType": "uint256",
              "name": "lastModifiedBy",
              "type": "uint256"
            },
            {
              "internalType": "uint256",
              "name": "requireResponseBy",
              "type": "uint256"
            },
            {
              "internalType": "enum ISupplyChain.PHASE",
              "name": "phase",
              "type": "uint8"
            },
            {
              "components": [
                {
                  "internalType": "uint256",
                  "name": "providerID",
                  "type": "uint256"
                },
                {
                  "internalType": "uint256",
                  "name": "supplierID",
                  "type": "uint256"
                },
                {
                  "internalType": "uint256",
                  "name": "manufacturerID",
                  "type": "uint256"
                },
                {
                  "internalType": "uint256",
                  "name": "distributorID",
                  "type": "uint256"
                },
                {
                  "internalType": "uint256",
                  "name": "retailerID",
                  "type": "uint256"
                }
              ],
              "internalType": "struct ISupplyChain.Tracking",
              "name": "tracking",
              "type": "tuple"
            }
          ],
          "internalType": "struct ISupplyChain.Product[]",
          "name": "",
          "type": "tuple[]"
        }
      ],
      "stateMutability": "view",
      "type": "function"
    },
    {
      "inputs": [
        {
          "internalType": "uint256",
          "name": "_id",
          "type": "uint256"
        }
      ],
      "name": "getProviderById",
      "outputs": [
        {
          "components": [
            {
              "internalType": "address",
              "name": "ethAddress",
              "type": "address"
            },
            {
              "internalType": "uint256",
              "name": "id",
              "type": "uint256"
            },
            {
              "internalType": "string",
              "name": "name",
              "type": "string"
            },
            {
              "internalType": "string",
              "name": "businessAddress",
              "type": "string"
            }
          ],
          "internalType": "struct ISupplyChain.Actor",
          "name": "",
          "type": "tuple"
        }
      ],
      "stateMutability": "view",
      "type": "function"
    },
    {
      "inputs": [],
      "name": "getProvidersArray",
      "outputs": [
        {
          "components": [
            {
              "internalType": "address",
              "name": "ethAddress",
              "type": "address"
            },
            {
              "internalType": "uint256",
              "name": "id",
              "type": "uint256"
            },
            {
              "internalType": "string",
              "name": "name",
              "type": "string"
            },
            {
              "internalType": "string",
              "name": "businessAddress",
              "type": "string"
            }
          ],
          "internalType": "struct ISupplyChain.Actor[]",
          "name": "",
          "type": "tuple[]"
        }
      ],
      "stateMutability": "view",
      "type": "function"
    },
    {
      "inputs": [],
      "name": "getProvidersCount",
      "outputs": [
        {
          "internalType": "uint256",
          "name": "count",
          "type": "uint256"
        }
      ],
      "stateMutability": "view",
      "type": "function"
    },
    {
      "inputs": [
        {
          "internalType": "uint256",
          "name": "_id",
          "type": "uint256"
        }
      ],
      "name": "getRetailerById",
      "outputs": [
        {
          "components": [
            {
              "internalType": "address",
              "name": "ethAddress",
              "type": "address"
            },
            {
              "internalType": "uint256",
              "name": "id",
              "type": "uint256"
            },
            {
              "internalType": "string",
              "name": "name",
              "type": "string"
            },
            {
              "internalType": "string",
              "name": "businessAddress",
              "type": "string"
            }
          ],
          "internalType": "struct ISupplyChain.Actor",
          "name": "",
          "type": "tuple"
        }
      ],
      "stateMutability": "view",
      "type": "function"
    },
    {
      "inputs": [],
      "name": "getRetailersArray",
      "outputs": [
        {
          "components": [
            {
              "internalType": "address",
              "name": "ethAddress",
              "type": "address"
            },
            {
              "internalType": "uint256",
              "name": "id",
              "type": "uint256"
            },
            {
              "internalType": "string",
              "name": "name",
              "type": "string"
            },
            {
              "internalType": "string",
              "name": "businessAddress",
              "type": "string"
            }
          ],
          "internalType": "struct ISupplyChain.Actor[]",
          "name": "",
          "type": "tuple[]"
        }
      ],
      "stateMutability": "view",
      "type": "function"
    },
    {
      "inputs": [],
      "name": "getRetailersCount",
      "outputs": [
        {
          "internalType": "uint256",
          "name": "count",
          "type": "uint256"
        }
      ],
      "stateMutability": "view",
      "type": "function"
    },
    {
      "inputs": [
        {
          "internalType": "uint256",
          "name": "_id",
          "type": "uint256"
        }
      ],
      "name": "getSupplierById",
      "outputs": [
        {
          "components": [
            {
              "internalType": "address",
              "name": "ethAddress",
              "type": "address"
            },
            {
              "internalType": "uint256",
              "name": "id",
              "type": "uint256"
            },
            {
              "internalType": "string",
              "name": "name",
              "type": "string"
            },
            {
              "internalType": "string",
              "name": "businessAddress",
              "type": "string"
            }
          ],
          "internalType": "struct ISupplyChain.Actor",
          "name": "",
          "type": "tuple"
        }
      ],
      "stateMutability": "view",
      "type": "function"
    },
    {
      "inputs": [],
      "name": "getSuppliersArray",
      "outputs": [
        {
          "components": [
            {
              "internalType": "address",
              "name": "ethAddress",
              "type": "address"
            },
            {
              "internalType": "uint256",
              "name": "id",
              "type": "uint256"
            },
            {
              "internalType": "string",
              "name": "name",
              "type": "string"
            },
            {
              "internalType": "string",
              "name": "businessAddress",
              "type": "string"
            }
          ],
          "internalType": "struct ISupplyChain.Actor[]",
          "name": "",
          "type": "tuple[]"
        }
      ],
      "stateMutability": "view",
      "type": "function"
    },
    {
      "inputs": [],
      "name": "getSuppliersCount",
      "outputs": [
        {
          "internalType": "uint256",
          "name": "count",
          "type": "uint256"
        }
      ],
      "stateMutability": "view",
      "type": "function"
    },
    {
      "inputs": [],
      "name": "isDistributor",
      "outputs": [
        {
          "internalType": "uint256",
          "name": "",
          "type": "uint256"
        },
        {
          "internalType": "bool",
          "name": "",
          "type": "bool"
        }
      ],
      "stateMutability": "view",
      "type": "function"
    },
    {
      "inputs": [],
      "name": "isManufacturer",
      "outputs": [
        {
          "internalType": "uint256",
          "name": "",
          "type": "uint256"
        },
        {
          "internalType": "bool",
          "name": "",
          "type": "bool"
        }
      ],
      "stateMutability": "view",
      "type": "function"
    },
    {
      "inputs": [],
      "name": "isProvider",
      "outputs": [
        {
          "internalType": "uint256",
          "name": "",
          "type": "uint256"
        },
        {
          "internalType": "bool",
          "name": "",
          "type": "bool"
        }
      ],
      "stateMutability": "view",
      "type": "function"
    },
    {
      "inputs": [],
      "name": "isRetailer",
      "outputs": [
        {
          "internalType": "uint256",
          "name": "",
          "type": "uint256"
        },
        {
          "internalType": "bool",
          "name": "",
          "type": "bool"
        }
      ],
      "stateMutability": "view",
      "type": "function"
    },
    {
      "inputs": [],
      "name": "isSupplier",
      "outputs": [
        {
          "internalType": "uint256",
          "name": "",
          "type": "uint256"
        },
        {
          "internalType": "bool",
          "name": "",
          "type": "bool"
        }
      ],
      "stateMutability": "view",
      "type": "function"
    },
    {
      "inputs": [
        {
          "internalType": "uint256",
          "name": "_productID",
          "type": "uint256"
        }
      ],
      "name": "rejectPhase",
      "outputs": [],
      "stateMutability": "nonpayable",
      "type": "function"
    },
    {
      "inputs": [
        {
          "internalType": "uint256",
          "name": "_productID",
          "type": "uint256"
        }
      ],
      "name": "retail",
      "outputs": [],
      "stateMutability": "nonpayable",
      "type": "function"
    },
    {
      "inputs": [
        {
          "internalType": "uint256",
          "name": "_productID",
          "type": "uint256"
        }
      ],
      "name": "sell",
      "outputs": [],
      "stateMutability": "nonpayable",
      "type": "function"
    },
    {
      "inputs": [
        {
          "internalType": "uint256",
          "name": "_productID",
          "type": "uint256"
        }
      ],
      "name": "showPhase",
      "outputs": [
        {
          "internalType": "string",
          "name": "",
          "type": "string"
        }
      ],
      "stateMutability": "view",
      "type": "function"
    },
    {
      "inputs": [
        {
          "internalType": "address",
          "name": "_ethAddress",
          "type": "address"
        },
        {
          "internalType": "string",
          "name": "_role",
          "type": "string"
        },
        {
          "internalType": "string",
          "name": "_name",
          "type": "string"
        },
        {
          "internalType": "string",
          "name": "_businessAddress",
          "type": "string"
        }
      ],
      "name": "updateActor",
      "outputs": [],
      "stateMutability": "nonpayable",
      "type": "function"
    },
    {
      "inputs": [
        {
          "internalType": "uint256",
          "name": "_productID",
          "type": "uint256"
        }
      ],
      "name": "validateProductId",
      "outputs": [
        {
          "internalType": "bool",
          "name": "",
          "type": "bool"
        }
      ],
      "stateMutability": "view",
      "type": "function"
    },
    {
      "inputs": [
        {
          "internalType": "uint256",
          "name": "_productID",
          "type": "uint256"
        }
      ],
      "name": "startResourceExtraction",
      "outputs": [],
      "stateMutability": "nonpayable",
      "type": "function"
    },
    {
      "inputs": [
        {
          "internalType": "uint256",
          "name": "_productID",
          "type": "uint256"
        }
      ],
      "name": "completeResourceExtraction",
      "outputs": [],
      "stateMutability": "nonpayable",
      "type": "function"
    },
    {
      "inputs": [
        {
          "internalType": "uint256",
          "name": "_productID",
          "type": "uint256"
        }
      ],
      "name": "startResourceSupply",
      "outputs": [],
      "stateMutability": "nonpayable",
      "type": "function"
    },
    {
      "inputs": [
        {
          "internalType": "uint256",
          "name": "_productID",
          "type": "uint256"
        }
      ],
      "name": "completeResourceSupply",
      "outputs": [],
      "stateMutability": "nonpayable",
      "type": "function"
    },
    {
      "inputs": [
        {
          "internalType": "uint256",
          "name": "_productID",
          "type": "uint256"
        }
      ],
      "name": "startManufacturing",
      "outputs": [],
      "stateMutability": "nonpayable",
      "type": "function"
    },
    {
      "inputs": [
        {
          "internalType": "uint256",
          "name": "_productID",
          "type": "uint256"
        }
      ],
      "name": "completeManufacturing",
      "outputs": [],
      "stateMutability": "nonpayable",
      "type": "function"
    },
    {
      "inputs": [
        {
          "internalType": "uint256",
          "name": "_productID",
          "type": "uint256"
        }
      ],
      "name": "startDistribution",
      "outputs": [],
      "stateMutability": "nonpayable",
      "type": "function"
    },
    {
      "inputs": [
        {
          "internalType": "uint256",
          "name": "_productID",
          "type": "uint256"
        }
      ],
      "name": "completeDistribution",
      "outputs": [],
      "stateMutability": "nonpayable",
      "type": "function"
    }
  ],
  "bytecode": "0x60806040526000600755600060085560006009556000600a556000600b556000600c5534801561002e57600080fd5b50600080546001600160a01b031916331790556157c780620000516000396000f3fe608060405234801561001057600080fd5b50600436106102f15760003560e01c806399aa5ebd1161019d578063cea3ba36116100e9578063e7979689116100a2578063ef34c5c51161007c578063ef34c5c514610658578063efd50e3f14610660578063f596b84114610668578063fa3a050e14610688576102f1565b8063e797968914610632578063e876d92314610645578063e9c7d6ca14610395576102f1565b8063cea3ba36146105cb578063d0c65bff146105de578063d85456a4146105e6578063da08402d146105f9578063e4849b321461060c578063e76c01331461061f576102f1565b8063a8e46ef311610156578063b4a99a4e11610130578063b4a99a4e14610572578063b545fd501461059d578063b79a104c146105b0578063bfafedef146105c3576102f1565b8063a8e46ef314610544578063b201cca414610557578063b2d3c4f01461056a576102f1565b806399aa5ebd146104d55780639b0cad2f146104e8578063a0c98198146104fb578063a4c099a814610395578063a74215931461050e578063a8069e0714610521576102f1565b80634a348da91161025c57806375b96d7b116102155780638e5d0f5f116101ef5780638e5d0f5f1461048757806393583b891461049a5780639544eeaa146104a257806395a44cfa146104c2576102f1565b806375b96d7b1461044c5780637a9acb231461045f5780637c4e15e814610474576102f1565b80634a348da9146103f357806351bc37b8146103fb5780635395ec2d1461040e57806355949ebb14610416578063568981361461041e57806371da3c9314610444576102f1565b806326dfe552116102ae57806326dfe552146103805780632a180c011461039557806333592a1f146103a65780633f70c2b4146103b9578063455beb28146103d9578063477ba645146103eb576102f1565b80630997a514146102f657806313197b3a1461031857806318eea1f81461032057806319fda09c1461034057806324b2dff1146103555780632565a86e14610378575b600080fd5b6102fe61069b565b604080519283529015156020830152015b60405180910390f35b6102fe6106af565b61033361032e3660046150ef565b6106bb565b60405161030f91906155a9565b61035361034e3660046150ef565b61086f565b005b6103686103633660046150ef565b610878565b60405161030f9493929190615270565b6102fe6109bb565b6103886109c7565b60405161030f91906152b4565b6103536103a33660046150ef565b50565b6103336103b43660046150ef565b610bec565b6103cc6103c73660046150ef565b610c77565b60405161030f91906155bc565b600a545b60405190815260200161030f565b6102fe610eb7565b6007546103dd565b6103686104093660046150ef565b610ec3565b610388610ef5565b610388611114565b61043161042c3660046150ef565b611333565b60405161030f97969594939291906155cf565b600b546103dd565b61035361045a3660046150ef565b6114b8565b6104676114c1565b60405161030f9190615314565b6103336104823660046150ef565b611773565b6103686104953660046150ef565b611802565b6102fe611836565b6104b56104b03660046150ef565b611842565b60405161030f9190615367565b6103536104d03660046150ef565b61188a565b6103536104e33660046150ef565b61188f565b6103536104f63660046150ef565b6119b6565b6103336105093660046150ef565b611b08565b61035361051c3660046150ef565b611b97565b61053461052f3660046150ef565b612010565b604051901515815260200161030f565b610353610552366004614fec565b61206c565b6103536105653660046150ef565b61227c565b610388612354565b600054610585906001600160a01b031681565b6040516001600160a01b03909116815260200161030f565b6103686105ab3660046150ef565b612573565b6103536105be3660046150ef565b6125a5565b6008546103dd565b6103536105d936600461508e565b612686565b600c546103dd565b6103686105f43660046150ef565b612877565b6103336106073660046150ef565b6128a9565b61035361061a3660046150ef565b612938565b61035361062d3660046150ef565b612a10565b6103536106403660046150ef565b613049565b610353610653366004614fec565b61312a565b61038861314d565b6009546103dd565b61067b6106763660046150ef565b61336c565b60405161030f919061537b565b6103536106963660046150ef565b613863565b6000806106a73361386c565b915091509091565b6000806106a733613887565b6106c3614e10565b6000600c54116106d257600080fd5b6000821180156106e45750600c548211155b6107095760405162461bcd60e51b815260040161070090615395565b60405180910390fd5b600082815260066020908152604091829020825160808101845281546001600160a01b0316815260018201549281019290925260028101805492939192918401916107539061566f565b80601f016020809104026020016040519081016040528092919081815260200182805461077f9061566f565b80156107cc5780601f106107a1576101008083540402835291602001916107cc565b820191906000526020600020905b8154815290600101906020018083116107af57829003601f168201915b505050505081526020016003820180546107e59061566f565b80601f01602080910402602001604051908101604052809291908181526020018280546108119061566f565b801561085e5780601f106108335761010080835404028352916020019161085e565b820191906000526020600020905b81548152906001019060200180831161084157829003601f168201915b50505050508152505090505b919050565b6103a381613049565b6003602052600090815260409020805460018201546002830180546001600160a01b039093169391926108aa9061566f565b80601f01602080910402602001604051908101604052809291908181526020018280546108d69061566f565b80156109235780601f106108f857610100808354040283529160200191610923565b820191906000526020600020905b81548152906001019060200180831161090657829003601f168201915b5050505050908060030180546109389061566f565b80601f01602080910402602001604051908101604052809291908181526020018280546109649061566f565b80156109b15780601f10610986576101008083540402835291602001916109b1565b820191906000526020600020905b81548152906001019060200180831161099457829003601f168201915b5050505050905084565b6000806106a733613895565b6060600060095467ffffffffffffffff8111156109f457634e487b7160e01b600052604160045260246000fd5b604051908082528060200260200182016040528015610a2d57816020015b610a1a614e10565b815260200190600190039081610a125790505b50905060005b600954811015610be65760036000610a4c836001615657565b81526020808201929092526040908101600020815160808101835281546001600160a01b031681526001820154938101939093526002810180549192840191610a949061566f565b80601f0160208091040260200160405190810160405280929190818152602001828054610ac09061566f565b8015610b0d5780601f10610ae257610100808354040283529160200191610b0d565b820191906000526020600020905b815481529060010190602001808311610af057829003601f168201915b50505050508152602001600382018054610b269061566f565b80601f0160208091040260200160405190810160405280929190818152602001828054610b529061566f565b8015610b9f5780601f10610b7457610100808354040283529160200191610b9f565b820191906000526020600020905b815481529060010190602001808311610b8257829003601f168201915b505050505081525050828281518110610bc857634e487b7160e01b600052603260045260246000fd5b60200260200101819052508080610bde906156aa565b915050610a33565b50905090565b610bf4614e10565b600060085411610c0357600080fd5b600082118015610c1557506008548211155b610c315760405162461bcd60e51b815260040161070090615395565b600082815260026020818152604092839020835160808101855281546001600160a01b03168152600182015492810192909252918201805491938401916107539061566f565b610c7f614e41565b610c8882612010565b610cc95760405162461bcd60e51b8152602060048201526012602482015271125b9d985b1a5908141c9bd91d58dd08125960721b6044820152606401610700565b600082815260016020818152604092839020835160e0810190945280548452918201805491840191610cfa9061566f565b80601f0160208091040260200160405190810160405280929190818152602001828054610d269061566f565b8015610d735780601f10610d4857610100808354040283529160200191610d73565b820191906000526020600020905b815481529060010190602001808311610d5657829003601f168201915b50505050508152602001600282018054610d8c9061566f565b80601f0160208091040260200160405190810160405280929190818152602001828054610db89061566f565b8015610e055780601f10610dda57610100808354040283529160200191610e05565b820191906000526020600020905b815481529060010190602001808311610de857829003601f168201915b50505091835250506003820154602082015260048201546040820152600582015460609091019060ff16600d811115610e4e57634e487b7160e01b600052602160045260246000fd5b600d811115610e6d57634e487b7160e01b600052602160045260246000fd5b81526040805160a08101825260068401548152600784015460208083019190915260088501549282019290925260098401546060820152600a909301546080840152015292915050565b6000806106a7336138a3565b6005602052600090815260409020805460018201546002830180546001600160a01b039093169391926108aa9061566f565b60606000600b5467ffffffffffffffff811115610f2257634e487b7160e01b600052604160045260246000fd5b604051908082528060200260200182016040528015610f5b57816020015b610f48614e10565b815260200190600190039081610f405790505b50905060005b600b54811015610be65760056000610f7a836001615657565b81526020808201929092526040908101600020815160808101835281546001600160a01b031681526001820154938101939093526002810180549192840191610fc29061566f565b80601f0160208091040260200160405190810160405280929190818152602001828054610fee9061566f565b801561103b5780601f106110105761010080835404028352916020019161103b565b820191906000526020600020905b81548152906001019060200180831161101e57829003601f168201915b505050505081526020016003820180546110549061566f565b80601f01602080910402602001604051908101604052809291908181526020018280546110809061566f565b80156110cd5780601f106110a2576101008083540402835291602001916110cd565b820191906000526020600020905b8154815290600101906020018083116110b057829003601f168201915b5050505050815250508282815181106110f657634e487b7160e01b600052603260045260246000fd5b6020026020010181905250808061110c906156aa565b915050610f61565b60606000600c5467ffffffffffffffff81111561114157634e487b7160e01b600052604160045260246000fd5b60405190808252806020026020018201604052801561117a57816020015b611167614e10565b81526020019060019003908161115f5790505b50905060005b600c54811015610be65760066000611199836001615657565b81526020808201929092526040908101600020815160808101835281546001600160a01b0316815260018201549381019390935260028101805491928401916111e19061566f565b80601f016020809104026020016040519081016040528092919081815260200182805461120d9061566f565b801561125a5780601f1061122f5761010080835404028352916020019161125a565b820191906000526020600020905b81548152906001019060200180831161123d57829003601f168201915b505050505081526020016003820180546112739061566f565b80601f016020809104026020016040519081016040528092919081815260200182805461129f9061566f565b80156112ec5780601f106112c1576101008083540402835291602001916112ec565b820191906000526020600020905b8154815290600101906020018083116112cf57829003601f168201915b50505050508152505082828151811061131557634e487b7160e01b600052603260045260246000fd5b6020026020010181905250808061132b906156aa565b915050611180565b6001602081905260009182526040909120805491810180546113549061566f565b80601f01602080910402602001604051908101604052809291908181526020018280546113809061566f565b80156113cd5780601f106113a2576101008083540402835291602001916113cd565b820191906000526020600020905b8154815290600101906020018083116113b057829003601f168201915b5050505050908060020180546113e29061566f565b80601f016020809104026020016040519081016040528092919081815260200182805461140e9061566f565b801561145b5780601f106114305761010080835404028352916020019161145b565b820191906000526020600020905b81548152906001019060200180831161143e57829003601f168201915b5050506003840154600485015460058601546040805160a081018252600689015481526007890154602082015260088901549181019190915260098801546060820152600a9097015460808801529495919490935060ff16915087565b6103a3816125a5565b6060600060075467ffffffffffffffff8111156114ee57634e487b7160e01b600052604160045260246000fd5b60405190808252806020026020018201604052801561152757816020015b611514614e41565b81526020019060019003908161150c5790505b50905060005b600754811015610be657600160006115458383615657565b81526020019081526020016000206040518060e0016040529081600082015481526020016001820180546115789061566f565b80601f01602080910402602001604051908101604052809291908181526020018280546115a49061566f565b80156115f15780601f106115c6576101008083540402835291602001916115f1565b820191906000526020600020905b8154815290600101906020018083116115d457829003601f168201915b5050505050815260200160028201805461160a9061566f565b80601f01602080910402602001604051908101604052809291908181526020018280546116369061566f565b80156116835780601f1061165857610100808354040283529160200191611683565b820191906000526020600020905b81548152906001019060200180831161166657829003601f168201915b50505091835250506003820154602082015260048201546040820152600582015460609091019060ff16600d8111156116cc57634e487b7160e01b600052602160045260246000fd5b600d8111156116eb57634e487b7160e01b600052602160045260246000fd5b8152602001600682016040518060a0016040529081600082015481526020016001820154815260200160028201548152602001600382015481526020016004820154815250508152505082828151811061175557634e487b7160e01b600052603260045260246000fd5b6020026020010181905250808061176b906156aa565b91505061152d565b61177b614e10565b6000600b541161178a57600080fd5b60008211801561179c5750600b548211155b6117b85760405162461bcd60e51b815260040161070090615395565b600082815260056020908152604091829020825160808101845281546001600160a01b0316815260018201549281019290925260028101805492939192918401916107539061566f565b60026020819052600091825260409091208054600182015492820180546001600160a01b039092169392916108aa9061566f565b6000806106a7336138b1565b6000808211801561185557506008548211155b6118715760405162461bcd60e51b81526004016107009061557d565b5060009081526001602052604090206005015460ff1690565b6103a3815b61189881612010565b6118b45760405162461bcd60e51b815260040161070090615449565b6000806118bf6109bb565b915091508061191e5760405162461bcd60e51b815260206004820152602560248201527f5468652075736572206973206e6f742061207265676973746572656420737570604482015264383634b2b960d91b6064820152608401610700565b600360008481526001602052604090206005015460ff16600d81111561195457634e487b7160e01b600052602160045260246000fd5b146119715760405162461bcd60e51b8152600401610700906154d2565b600083815260016020819052604082206003810180546006808401919091559086905560048201939093556005018054909160ff1990911690835b0217905550505050565b6119bf81612010565b6119db5760405162461bcd60e51b815260040161070090615449565b6000806119e66106af565b9150915080611a455760405162461bcd60e51b815260206004820152602560248201527f5468652075736572206973206e6f74206120726567697374657265642070726f6044820152643b34b232b960d91b6064820152608401610700565b60008381526001602052604081206005015460ff16600d811115611a7957634e487b7160e01b600052602160045260246000fd5b1480611ab85750600260008481526001602052604090206005015460ff16600d811115611ab657634e487b7160e01b600052602160045260246000fd5b145b611ad45760405162461bcd60e51b8152600401610700906154d2565b60008381526001602081905260408220600380820186905560048201939093556005018054909160ff1990911690836119ac565b611b10614e10565b600060095411611b1f57600080fd5b600082118015611b3157506009548211155b611b4d5760405162461bcd60e51b815260040161070090615395565b600082815260036020908152604091829020825160808101845281546001600160a01b0316815260018201549281019290925260028101805492939192918401916107539061566f565b600081118015611ba957506007548111155b611bc55760405162461bcd60e51b81526004016107009061557d565b600080611bd1336138bf565b9150915060008211611c175760405162461bcd60e51b815260206004820152600f60248201526e1058dd1bdc881b9bdd08199bdd5b99608a1b6044820152606401610700565b60408051808201909152600b81526a2234b9ba3934b13aba37b960a91b60209182015281519082012060008051602061577283398151915214801590611c905750604080518082019091526008815267283937bb34b232b960c11b60209182015281519082012060008051602061571283398151915214155b611d0c5760405162461bcd60e51b815260206004820152604160248201527f546865204641494c206f7065726174696f6e206973206e6f7420617661696c6160448201527f626c6520746f2050726f76696465727320616e64204469737472696275746f726064820152607360f81b608482015260a401610700565b6000838152600160208181526040808420815160e08101909252805482529283018054919392840191611d3e9061566f565b80601f0160208091040260200160405190810160405280929190818152602001828054611d6a9061566f565b8015611db75780601f10611d8c57610100808354040283529160200191611db7565b820191906000526020600020905b815481529060010190602001808311611d9a57829003601f168201915b50505050508152602001600282018054611dd09061566f565b80601f0160208091040260200160405190810160405280929190818152602001828054611dfc9061566f565b8015611e495780601f10611e1e57610100808354040283529160200191611e49565b820191906000526020600020905b815481529060010190602001808311611e2c57829003601f168201915b50505091835250506003820154602082015260048201546040820152600582015460609091019060ff16600d811115611e9257634e487b7160e01b600052602160045260246000fd5b600d811115611eb157634e487b7160e01b600052602160045260246000fd5b81526040805160a0810182526006840154815260078401546020828101919091526008808601548385015260098601546060840152600a9095015460808301529283015280518082019091529182526729bab8383634b2b960c11b918101919091528351908401209091506000805160206156f28339815191521415611f605760035b8160a00151600d811115611f5857634e487b7160e01b600052602160045260246000fd5b50505b61200a565b60408051808201909152600c81526b26b0b73ab330b1ba3ab932b960a11b6020918201528251908301206000805160206157528339815191521415611fa6576006611f34565b6040805180820190915260088152672932ba30b4b632b960c11b602091820152825190830120600080516020615732833981519152141561200a57600b8160a00151600d81111561200757634e487b7160e01b600052602160045260246000fd5b50505b50505050565b6000808211801561202357506007548211155b6120645760405162461bcd60e51b8152602060048201526012602482015271125b9d985b1a5908141c9bd91d58dd08125960721b6044820152606401610700565b506001919050565b600080546001600160a01b031633148061208e5750336001600160a01b038616145b6120ca5760405162461bcd60e51b815260206004820152600d60248201526c1058d8d95cdcc811195b9a5959609a1b6044820152606401610700565b604080518082019091526008815267283937bb34b232b960c11b602091820152845190850120600080516020615712833981519152141561211557612110818484613a51565b612275565b60408051808201909152600881526729bab8383634b2b960c11b6020918201528451908501206000805160206156f2833981519152141561215b57612110818484613c9e565b60408051808201909152600c81526b26b0b73ab330b1ba3ab932b960a11b60209182015284519085012060008051602061575283398151915214156121a557612110818484613eea565b60408051808201909152600b81526a2234b9ba3934b13aba37b960a91b60209182015284519085012060008051602061577283398151915214156121ee57612110818484614136565b6040805180820190915260088152672932ba30b4b632b960c11b602091820152845190850120600080516020615732833981519152141561223457612110818484614382565b60405162461bcd60e51b8152602060048201526016602482015275155b9adb9bdddb88149bdb194814dc1958da599a595960521b6044820152606401610700565b5050505050565b61228581612010565b6122a15760405162461bcd60e51b815260040161070090615449565b6000806122ac610eb7565b91509150806122cd5760405162461bcd60e51b81526004016107009061548d565b600b60008481526001602052604090206005015460ff16600d81111561230357634e487b7160e01b600052602160045260246000fd5b146123205760405162461bcd60e51b8152600401610700906154d2565b600083815260016020819052604090912060038101805460098301558490556005018054600c9260ff1990911690836119ac565b6060600060085467ffffffffffffffff81111561238157634e487b7160e01b600052604160045260246000fd5b6040519080825280602002602001820160405280156123ba57816020015b6123a7614e10565b81526020019060019003908161239f5790505b50905060005b600854811015610be657600260006123d9836001615657565b81526020808201929092526040908101600020815160808101835281546001600160a01b0316815260018201549381019390935260028101805491928401916124219061566f565b80601f016020809104026020016040519081016040528092919081815260200182805461244d9061566f565b801561249a5780601f1061246f5761010080835404028352916020019161249a565b820191906000526020600020905b81548152906001019060200180831161247d57829003601f168201915b505050505081526020016003820180546124b39061566f565b80601f01602080910402602001604051908101604052809291908181526020018280546124df9061566f565b801561252c5780601f106125015761010080835404028352916020019161252c565b820191906000526020600020905b81548152906001019060200180831161250f57829003601f168201915b50505050508152505082828151811061255557634e487b7160e01b600052603260045260246000fd5b6020026020010181905250808061256b906156aa565b9150506123c0565b6004602052600090815260409020805460018201546002830180546001600160a01b039093169391926108aa9061566f565b6125ae81612010565b6125ca5760405162461bcd60e51b815260040161070090615449565b6000806125d5611836565b91509150806125f65760405162461bcd60e51b815260040161070090615400565b600660008481526001602052604090206005015460ff16600d81111561262c57634e487b7160e01b600052602160045260246000fd5b146126495760405162461bcd60e51b8152600401610700906154d2565b60008381526001602081905260408220600381018054600783015585905560048101929092556005909101805460089260ff1990911690836119ac565b6000546001600160a01b0316331461269d57600080fd5b6126a56145ce565b6127175760405162461bcd60e51b815260206004820152603c60248201527f54686520737570706c7920636861696e206973206d697373696e67207468652060448201527f726571756972656420656e74697469657320746f206f706572617465000000006064820152608401610700565b60078054906000612727836156aa565b91905055506040518060e00160405280600754815260200183815260200182815260200160008152602001600081526020016000600d81111561277a57634e487b7160e01b600052602160045260246000fd5b81526040805160a08101825260008082526020828101829052828401829052606083018290526080830182905293840191909152600754815260018084529190208351815583830151805191936127d693850192910190614ecc565b50604082015180516127f2916002840191602090910190614ecc565b50606082015160038201556080820151600482015560a082015160058201805460ff1916600183600d81111561283857634e487b7160e01b600052602160045260246000fd5b021790555060c091909101518051600683015560208101516007830155604081015160088301556060810151600983015560800151600a909101555050565b6006602052600090815260409020805460018201546002830180546001600160a01b039093169391926108aa9061566f565b6128b1614e10565b6000600a54116128c057600080fd5b6000821180156128d25750600a548211155b6128ee5760405162461bcd60e51b815260040161070090615395565b600082815260046020908152604091829020825160808101845281546001600160a01b0316815260018201549281019290925260028101805492939192918401916107539061566f565b61294181612010565b61295d5760405162461bcd60e51b815260040161070090615449565b600080612968610eb7565b91509150806129895760405162461bcd60e51b81526004016107009061548d565b600c60008481526001602052604090206005015460ff16600d8111156129bf57634e487b7160e01b600052602160045260246000fd5b146129dc5760405162461bcd60e51b8152600401610700906154d2565b6000838152600160208190526040909120600a8101849055600381018490556005018054600d9260ff1990911690836119ac565b600081118015612a2257506007548111155b612a3e5760405162461bcd60e51b81526004016107009061557d565b600080612a4a336138bf565b9150915060008211612a905760405162461bcd60e51b815260206004820152600f60248201526e1058dd1bdc881b9bdd08199bdd5b99608a1b6044820152606401610700565b6000838152600160208181526040808420815160e08101909252805482529283018054919392840191612ac29061566f565b80601f0160208091040260200160405190810160405280929190818152602001828054612aee9061566f565b8015612b3b5780601f10612b1057610100808354040283529160200191612b3b565b820191906000526020600020905b815481529060010190602001808311612b1e57829003601f168201915b50505050508152602001600282018054612b549061566f565b80601f0160208091040260200160405190810160405280929190818152602001828054612b809061566f565b8015612bcd5780601f10612ba257610100808354040283529160200191612bcd565b820191906000526020600020905b815481529060010190602001808311612bb057829003601f168201915b50505091835250506003820154602082015260048201546040820152600582015460609091019060ff16600d811115612c1657634e487b7160e01b600052602160045260246000fd5b600d811115612c3557634e487b7160e01b600052602160045260246000fd5b81526040805160a0810182526006840154815260078401546020828101919091526008808601548385015260098601546060840152600a90950154608083015292830152805180820190915291825267283937bb34b232b960c11b918101919091528351908401209091506000805160206157128339815191521415612d525760008160a00151600d811115612cdb57634e487b7160e01b600052602160045260246000fd5b1415612cef57612cea846119b6565b611f5b565b60028160a00151600d811115612d1557634e487b7160e01b600052602160045260246000fd5b1480612d44575060018160a00151600d811115612d4257634e487b7160e01b600052602160045260246000fd5b145b15611f5b57611f5b84613863565b60408051808201909152600881526729bab8383634b2b960c11b6020918201528251908301206000805160206156f28339815191521415612e255760038160a00151600d811115612db357634e487b7160e01b600052602160045260246000fd5b1415612dc257612cea8461188f565b60058160a00151600d811115612de857634e487b7160e01b600052602160045260246000fd5b1480612e17575060048160a00151600d811115612e1557634e487b7160e01b600052602160045260246000fd5b145b15611f5b57611f5b8461188a565b60408051808201909152600c81526b26b0b73ab330b1ba3ab932b960a11b6020918201528251908301206000805160206157528339815191521415612ece5760068160a00151600d811115612e8a57634e487b7160e01b600052602160045260246000fd5b1415612e9957612cea846125a5565b60078160a00151600d811115612ebf57634e487b7160e01b600052602160045260246000fd5b1415611f5b57611f5b846114b8565b60408051808201909152600b81526a2234b9ba3934b13aba37b960a91b6020918201528251908301206000805160206157728339815191521415612fa45760088160a00151600d811115612f3257634e487b7160e01b600052602160045260246000fd5b1415612f4157612cea84613049565b60098160a00151600d811115612f6757634e487b7160e01b600052602160045260246000fd5b1480612f965750600a8160a00151600d811115612f9457634e487b7160e01b600052602160045260246000fd5b145b15611f5b57611f5b8461086f565b6040805180820190915260088152672932ba30b4b632b960c11b602091820152825190830120600080516020615732833981519152141561200a57600b8160a00151600d81111561300557634e487b7160e01b600052602160045260246000fd5b141561301457611f5b8461227c565b600c8160a00151600d81111561303a57634e487b7160e01b600052602160045260246000fd5b141561200a5761200a84612938565b61305281612010565b61306e5760405162461bcd60e51b815260040161070090615449565b60008061307961069b565b915091508061309a5760405162461bcd60e51b815260040161070090615400565b600860008481526001602052604090206005015460ff16600d8111156130d057634e487b7160e01b600052602160045260246000fd5b146130ed5760405162461bcd60e51b8152600401610700906154d2565b600083815260016020819052604082206003810180546008830155859055600481019290925560059091018054600b9260ff1990911690836119ac565b6000546001600160a01b0316331461314157600080fd5b61200a84848484614614565b60606000600a5467ffffffffffffffff81111561317a57634e487b7160e01b600052604160045260246000fd5b6040519080825280602002602001820160405280156131b357816020015b6131a0614e10565b8152602001906001900390816131985790505b50905060005b600a54811015610be657600460006131d2836001615657565b81526020808201929092526040908101600020815160808101835281546001600160a01b03168152600182015493810193909352600281018054919284019161321a9061566f565b80601f01602080910402602001604051908101604052809291908181526020018280546132469061566f565b80156132935780601f1061326857610100808354040283529160200191613293565b820191906000526020600020905b81548152906001019060200180831161327657829003601f168201915b505050505081526020016003820180546132ac9061566f565b80601f01602080910402602001604051908101604052809291908181526020018280546132d89061566f565b80156133255780601f106132fa57610100808354040283529160200191613325565b820191906000526020600020905b81548152906001019060200180831161330857829003601f168201915b50505050508152505082828151811061334e57634e487b7160e01b600052603260045260246000fd5b60200260200101819052508080613364906156aa565b9150506131b9565b606060008211801561338057506007548211155b61339c5760405162461bcd60e51b81526004016107009061557d565b60008281526001602052604081206005015460ff16600d8111156133d057634e487b7160e01b600052602160045260246000fd5b1415613402575060408051808201909152600f81526e141c9bd91d58dd0813dc99195c9959608a1b602082015261086a565b600160008381526001602052604090206005015460ff16600d81111561343857634e487b7160e01b600052602160045260246000fd5b14806134775750600360008381526001602052604090206005015460ff16600d81111561347557634e487b7160e01b600052602160045260246000fd5b145b806134b55750600260008381526001602052604090206005015460ff16600d8111156134b357634e487b7160e01b600052602160045260246000fd5b145b156134f4575060408051808201909152601981527f5265736f757263652045787472616374696f6e20506861736500000000000000602082015261086a565b600460008381526001602052604090206005015460ff16600d81111561352a57634e487b7160e01b600052602160045260246000fd5b14806135695750600660008381526001602052604090206005015460ff16600d81111561356757634e487b7160e01b600052602160045260246000fd5b145b806135a75750600560008381526001602052604090206005015460ff16600d8111156135a557634e487b7160e01b600052602160045260246000fd5b145b156135de57506040805180820190915260158152745265736f7572636520537570706c7920506861736560581b602082015261086a565b600760008381526001602052604090206005015460ff16600d81111561361457634e487b7160e01b600052602160045260246000fd5b14806136535750600860008381526001602052604090206005015460ff16600d81111561365157634e487b7160e01b600052602160045260246000fd5b145b1561368857506040805180820190915260138152724d616e75666163747572696e6720506861736560681b602082015261086a565b600960008381526001602052604090206005015460ff16600d8111156136be57634e487b7160e01b600052602160045260246000fd5b14806136fd5750600b60008381526001602052604090206005015460ff16600d8111156136fb57634e487b7160e01b600052602160045260246000fd5b145b8061373b5750600a60008381526001602052604090206005015460ff16600d81111561373957634e487b7160e01b600052602160045260246000fd5b145b1561376f5750604080518082019091526012815271446973747269627574696f6e20506861736560701b602082015261086a565b600c60008381526001602052604090206005015460ff16600d8111156137a557634e487b7160e01b600052602160045260246000fd5b14156137d4575060408051808201909152600c81526b52657461696c20506861736560a01b602082015261086a565b600d60008381526001602052604090206005015460ff16600d81111561380a57634e487b7160e01b600052602160045260246000fd5b1415613839575060408051808201909152600c81526b141c9bd91d58dd0814dbdb1960a21b602082015261086a565b5060408051808201909152600d81526c556e6b6e6f776e20537461746560981b602082015261086a565b6103a3816119b6565b600080600061387a846147e6565b925050508015155b915091565b600080600061387a84614858565b600080600061387a846148c1565b600080600061387a8461492a565b600080600061387a84614993565b600060606138cb6145ce565b61390d5760405162461bcd60e51b8152602060048201526013602482015272139bc81858dd1bdc881c9959da5cdd195c9959606a1b6044820152606401610700565b60006139188461492a565b90508015613949576040805180820190915260088152672932ba30b4b632b960c11b60208201529092509050613882565b61395284614858565b9050801561398357604080518082019091526008815267283937bb34b232b960c11b60208201529092509050613882565b61398c846148c1565b905080156139bd5760408051808201909152600881526729bab8383634b2b960c11b60208201529092509050613882565b6139c684614993565b905080156139fb5760408051808201909152600c81526b26b0b73ab330b1ba3ab932b960a11b60208201529092509050613882565b613a04846147e6565b90508015613a385760408051808201909152600b81526a2234b9ba3934b13aba37b960a91b60208201529092509050613882565b5050604080516020810190915260008082529150915091565b600083118015613a62575060085483105b613a7e5760405162461bcd60e51b81526004016107009061552f565b6000838152600260208181526040808420815160808101835281546001600160a01b03168152600182015493810193909352928301805492939291840191613ac59061566f565b80601f0160208091040260200160405190810160405280929190818152602001828054613af19061566f565b8015613b3e5780601f10613b1357610100808354040283529160200191613b3e565b820191906000526020600020905b815481529060010190602001808311613b2157829003601f168201915b50505050508152602001600382018054613b579061566f565b80601f0160208091040260200160405190810160405280929190818152602001828054613b839061566f565b8015613bd05780601f10613ba557610100808354040283529160200191613bd0565b820191906000526020600020905b815481529060010190602001808311613bb357829003601f168201915b505050919092525050600054919250506001600160a01b0316331480613bff575080516001600160a01b031633145b613c1b5760405162461bcd60e51b8152600401610700906153bf565b8060400151805190602001208380519060200120141580613c4e5750806060015180519060200120828051906020012014155b1561200a5760008481526002602081815260409092208551613c7893919092019190860190614ecc565b506000848152600260209081526040909120835161227592600390920191850190614ecc565b600083118015613caf5750600a5483105b613ccb5760405162461bcd60e51b81526004016107009061552f565b6000838152600360209081526040808320815160808101835281546001600160a01b031681526001820154938101939093526002810180549192840191613d119061566f565b80601f0160208091040260200160405190810160405280929190818152602001828054613d3d9061566f565b8015613d8a5780601f10613d5f57610100808354040283529160200191613d8a565b820191906000526020600020905b815481529060010190602001808311613d6d57829003601f168201915b50505050508152602001600382018054613da39061566f565b80601f0160208091040260200160405190810160405280929190818152602001828054613dcf9061566f565b8015613e1c5780601f10613df157610100808354040283529160200191613e1c565b820191906000526020600020905b815481529060010190602001808311613dff57829003601f168201915b505050919092525050600054919250506001600160a01b0316331480613e4b575080516001600160a01b031633145b613e675760405162461bcd60e51b8152600401610700906153bf565b8060400151805190602001208380519060200120141580613e9a5750806060015180519060200120828051906020012014155b1561200a5760008481526003602090815260409091208451613ec492600290920191860190614ecc565b506000848152600360208181526040909220845161227593919092019190850190614ecc565b600083118015613efb5750600a5483105b613f175760405162461bcd60e51b81526004016107009061552f565b6000838152600460209081526040808320815160808101835281546001600160a01b031681526001820154938101939093526002810180549192840191613f5d9061566f565b80601f0160208091040260200160405190810160405280929190818152602001828054613f899061566f565b8015613fd65780601f10613fab57610100808354040283529160200191613fd6565b820191906000526020600020905b815481529060010190602001808311613fb957829003601f168201915b50505050508152602001600382018054613fef9061566f565b80601f016020809104026020016040519081016040528092919081815260200182805461401b9061566f565b80156140685780601f1061403d57610100808354040283529160200191614068565b820191906000526020600020905b81548152906001019060200180831161404b57829003601f168201915b505050919092525050600054919250506001600160a01b0316331480614097575080516001600160a01b031633145b6140b35760405162461bcd60e51b8152600401610700906153bf565b80604001518051906020012083805190602001201415806140e65750806060015180519060200120828051906020012014155b1561200a576000848152600460209081526040909120845161411092600290920191860190614ecc565b506000848152600460209081526040909120835161227592600390920191850190614ecc565b6000831180156141475750600b5483105b6141635760405162461bcd60e51b81526004016107009061552f565b6000838152600560209081526040808320815160808101835281546001600160a01b0316815260018201549381019390935260028101805491928401916141a99061566f565b80601f01602080910402602001604051908101604052809291908181526020018280546141d59061566f565b80156142225780601f106141f757610100808354040283529160200191614222565b820191906000526020600020905b81548152906001019060200180831161420557829003601f168201915b5050505050815260200160038201805461423b9061566f565b80601f01602080910402602001604051908101604052809291908181526020018280546142679061566f565b80156142b45780601f10614289576101008083540402835291602001916142b4565b820191906000526020600020905b81548152906001019060200180831161429757829003601f168201915b505050919092525050600054919250506001600160a01b03163314806142e3575080516001600160a01b031633145b6142ff5760405162461bcd60e51b8152600401610700906153bf565b80604001518051906020012083805190602001201415806143325750806060015180519060200120828051906020012014155b1561200a576000848152600560209081526040909120845161435c92600290920191860190614ecc565b506000848152600560209081526040909120835161227592600390920191850190614ecc565b6000831180156143935750600c5483105b6143af5760405162461bcd60e51b81526004016107009061552f565b6000838152600660209081526040808320815160808101835281546001600160a01b0316815260018201549381019390935260028101805491928401916143f59061566f565b80601f01602080910402602001604051908101604052809291908181526020018280546144219061566f565b801561446e5780601f106144435761010080835404028352916020019161446e565b820191906000526020600020905b81548152906001019060200180831161445157829003601f168201915b505050505081526020016003820180546144879061566f565b80601f01602080910402602001604051908101604052809291908181526020018280546144b39061566f565b80156145005780601f106144d557610100808354040283529160200191614500565b820191906000526020600020905b8154815290600101906020018083116144e357829003601f168201915b505050919092525050600054919250506001600160a01b031633148061452f575080516001600160a01b031633145b61454b5760405162461bcd60e51b8152600401610700906153bf565b806040015180519060200120838051906020012014158061457e5750806060015180519060200120828051906020012014155b1561200a57600084815260066020908152604090912084516145a892600290920191860190614ecc565b506000848152600660209081526040909120835161227592600390920191850190614ecc565b60006145db600b54151590565b80156145e85750600a5415155b80156145f5575060085415155b8015614602575060095415155b801561460f5750600c5415155b905090565b6000546001600160a01b0316331461462b57600080fd5b614634846149fc565b156146815760405162461bcd60e51b815260206004820152601760248201527f5573657220416c726561647920526567697374657265640000000000000000006044820152606401610700565b604080518082019091526008815267283937bb34b232b960c11b60209182015283519084012060008051602061571283398151915214156146c757611f5b848383614ae2565b60408051808201909152600881526729bab8383634b2b960c11b6020918201528351908401206000805160206156f2833981519152141561470d57611f5b848383614b9c565b60408051808201909152600c81526b26b0b73ab330b1ba3ab932b960a11b602091820152835190840120600080516020615752833981519152141561475757611f5b848383614c39565b60408051808201909152600b81526a2234b9ba3934b13aba37b960a91b60209182015283519084012060008051602061577283398151915214156147a057611f5b848383614cd6565b6040805180820190915260088152672932ba30b4b632b960c11b602091820152835190840120600080516020615732833981519152141561223457611f5b848383614d73565b600080600b54116147f657600080fd5b60015b600b54811161484f576000818152600560205260409020546001600160a01b038481169116141561483d57600090815260056020526040902060010154905061086a565b80614847816156aa565b9150506147f9565b50600092915050565b6000806008541161486857600080fd5b60015b600854811161484f576000818152600260205260409020546001600160a01b03848116911614156148af57600090815260026020526040902060010154905061086a565b806148b9816156aa565b91505061486b565b600080600954116148d157600080fd5b60015b600954811161484f576000818152600360205260409020546001600160a01b038481169116141561491857600090815260036020526040902060010154905061086a565b80614922816156aa565b9150506148d4565b600080600c541161493a57600080fd5b60015b600c54811161484f576000818152600660205260409020546001600160a01b038481169116141561498157600090815260066020526040902060010154905061086a565b8061498b816156aa565b91505061493d565b600080600a54116149a357600080fd5b60015b600a54811161484f576000818152600460205260409020546001600160a01b03848116911614156149ea57600090815260046020526040902060010154905061086a565b806149f4816156aa565b9150506149a6565b600080546001600160a01b03163314614a1457600080fd5b600080614a22600b54151590565b15614a4457614a308461386c565b90925090508015614a4457915061086a9050565b600c5415614a6957614a55846138a3565b90925090508015614a6957915061086a9050565b600a5415614a8e57614a7a846138b1565b90925090508015614a8e57915061086a9050565b60095415614ab357614a9f84613895565b90925090508015614ab357915061086a9050565b60085415614ad857614ac484613887565b90925090508015614ad857915061086a9050565b5060009392505050565b6000546001600160a01b03163314614af957600080fd5b60088054906000614b09836156aa565b9091555050604080516080810182526001600160a01b0385811682526008546020808401828152848601888152606086018890526000938452600280845296909320855181546001600160a01b03191695169490941784555160018401559051805193949293614b80938501929190910190614ecc565b5060608201518051612007916003840191602090910190614ecc565b6000546001600160a01b03163314614bb357600080fd5b60098054906000614bc3836156aa565b9091555050604080516080810182526001600160a01b03858116825260095460208084018281528486018881526060860188905260009384526003835295909220845181546001600160a01b0319169416939093178355905160018301559251805192939192614b809260028501920190614ecc565b6000546001600160a01b03163314614c5057600080fd5b600a8054906000614c60836156aa565b9091555050604080516080810182526001600160a01b038581168252600a5460208084018281528486018881526060860188905260009384526004835295909220845181546001600160a01b0319169416939093178355905160018301559251805192939192614b809260028501920190614ecc565b6000546001600160a01b03163314614ced57600080fd5b600b8054906000614cfd836156aa565b9091555050604080516080810182526001600160a01b038581168252600b5460208084018281528486018881526060860188905260009384526005835295909220845181546001600160a01b0319169416939093178355905160018301559251805192939192614b809260028501920190614ecc565b6000546001600160a01b03163314614d8a57600080fd5b600c8054906000614d9a836156aa565b9091555050604080516080810182526001600160a01b038581168252600c5460208084018281528486018881526060860188905260009384526006835295909220845181546001600160a01b0319169416939093178355905160018301559251805192939192614b809260028501920190614ecc565b604051806080016040528060006001600160a01b031681526020016000815260200160608152602001606081525090565b6040518060e0016040528060008152602001606081526020016060815260200160008152602001600081526020016000600d811115614e9057634e487b7160e01b600052602160045260246000fd5b8152602001614ec76040518060a0016040528060008152602001600081526020016000815260200160008152602001600081525090565b905290565b828054614ed89061566f565b90600052602060002090601f016020900481019282614efa5760008555614f40565b82601f10614f1357805160ff1916838001178555614f40565b82800160010185558215614f40579182015b82811115614f40578251825591602001919060010190614f25565b50614f4c929150614f50565b5090565b5b80821115614f4c5760008155600101614f51565b600082601f830112614f75578081fd5b813567ffffffffffffffff80821115614f9057614f906156db565b604051601f8301601f19908116603f01168101908282118183101715614fb857614fb86156db565b81604052838152866020858801011115614fd0578485fd5b8360208701602083013792830160200193909352509392505050565b60008060008060808587031215615001578384fd5b84356001600160a01b0381168114615017578485fd5b9350602085013567ffffffffffffffff80821115615033578485fd5b61503f88838901614f65565b94506040870135915080821115615054578384fd5b61506088838901614f65565b93506060870135915080821115615075578283fd5b5061508287828801614f65565b91505092959194509250565b600080604083850312156150a0578182fd5b823567ffffffffffffffff808211156150b7578384fd5b6150c386838701614f65565b935060208501359150808211156150d8578283fd5b506150e585828601614f65565b9150509250929050565b600060208284031215615100578081fd5b5035919050565b600e811061512557634e487b7160e01b600052602160045260246000fd5b9052565b60008151808452815b8181101561514e57602081850181015186830182015201615132565b8181111561515f5782602083870101525b50601f01601f19169290920160200192915050565b600060018060a01b038251168352602082015160208401526040820151608060408501526151a56080850182615129565b9050606083015184820360608601526151be8282615129565b95945050505050565b60006101608251845260208301518160208601526151e782860182615129565b915050604083015184820360408601526152018282615129565b915050606083015160608501526080830151608085015260a083015161522a60a0860182615107565b5060c083015161526860c086018280518252602081015160208301526040810151604083015260608101516060830152608081015160808301525050565b509392505050565b600060018060a01b0386168252846020830152608060408301526152976080830185615129565b82810360608401526152a98185615129565b979650505050505050565b6000602080830181845280855180835260408601915060408482028701019250838701855b8281101561530757603f198886030184526152f5858351615174565b945092850192908501906001016152d9565b5092979650505050505050565b6000602080830181845280855180835260408601915060408482028701019250838701855b8281101561530757603f198886030184526153558583516151c7565b94509285019290850190600101615339565b602081016153758284615107565b92915050565b60006020825261538e6020830184615129565b9392505050565b60208082526010908201526f125b9d985b1a59081858dd1bdc88125160821b604082015260600190565b60208082526021908201527f556e617574686f72697a656420746f207570646174652074686973206163746f6040820152603960f91b606082015260800190565b60208082526029908201527f5468652075736572206973206e6f7420612072656769737465726564206d616e6040820152683ab330b1ba3ab932b960b91b606082015260800190565b60208082526024908201527f5468652070726f64756374206973206e6f7420696e2074686520426c6f636b636040820152633430b4b760e11b606082015260800190565b60208082526025908201527f5468652075736572206973206e6f74206120726567697374657265642072657460408201526430b4b632b960d91b606082015260800190565b6020808252603c908201527f596f7520646f6e277420686176652074686520726967687420746f206d6f646960408201527f6679207468652070726f64756374206174207468697320737461676500000000606082015260800190565b6020808252602e908201527f4e6f206163746f7220666f756e642074686174206d617463686573207468652060408201526d73706563696669636174696f6e7360901b606082015260800190565b602080825260129082015271125b9d985b1a5908141c9bd91d58dd08125160721b604082015260600190565b60006020825261538e6020830184615174565b60006020825261538e60208301846151c7565b60006101608983528060208401526155e98184018a615129565b905082810360408401526155fd8189615129565b91505085606083015284608083015261561960a0830185615107565b825160c0830152602083015160e083015260408301516101008301526060830151610120830152608083015161014083015298975050505050505050565b6000821982111561566a5761566a6156c5565b500190565b60028104600182168061568357607f821691505b602082108114156156a457634e487b7160e01b600052602260045260246000fd5b50919050565b60006000198214156156be576156be6156c5565b5060010190565b634e487b7160e01b600052601160045260246000fd5b634e487b7160e01b600052604160045260246000fdfeb77c7d6bf62fa24fc205955093030c58325cd2d3d35fb486ede7594fb99635f5e6177e73b6c04b0318a0dc22e6d8cdee33c8c7029db9046248de998d24e170db1534e98f9dd33e3681193a0541f0c2e3d732d183dcdc630aac2b943280af42a0cec9b8e63c868f2f7f30368f1583e7aa39ae80e163d57a859fa5a90244b28ac1a19d0db335544d3c3ec35c34b9b35a51bd4861f7162de07d5af409611794db04a26469706673582212205e8da58aff439520942295806a4513f6a574ccc2b7ddbd82d8cf353734cbf6ce64736f6c63430008020033",
  "immutableReferences": {},
  "source": "// SPDX-License-Identifier: MIT\r\npragma solidity >=0.4.22 <0.9.0;\r\n\r\nimport \"../ISupplyChain.sol\";\r\n\r\n// Inherits Super Interface for a generic supply chain\r\ncontract SimpleSupplyChain is ISupplyChain{\r\n    /*\r\n    * This kind of supply chain supports only 5 operations\r\n    * Each Actor just notifies the completion of its own step\r\n    * Once the step is notified, the product goes to next stage\r\n    */\r\n    function startResourceExtraction(uint256 _productID) override(ISupplyChain) public {\r\n        // Ensure that the product ID is within the ones present in Stock (i.e., have been ordered)\r\n        require(validateProductId(_productID), \"The product is not in the Blockchain\");\r\n        // Ensure that the caller is a Provider\r\n        (uint256 _id, bool _isValid) = isProvider();\r\n        require(_isValid, \"The user is not a registered provider\");\r\n        // Ensure that the product is in correct stage\r\n        require(\r\n            Stock[_productID].phase == PHASE.Init ||\r\n            // This stage is not possible in this supply chain but it's kept for consistency\r\n            Stock[_productID].phase == PHASE.ResourceExtraction_Failed,\r\n            \"You don't have the right to modify the product at this stage\"\r\n        );\r\n        // Finally, update product stage\r\n        Stock[_productID].lastModifiedBy = _id;\r\n        Stock[_productID].requireResponseBy = 0;\r\n        Stock[_productID].phase = PHASE.ResourceExtraction_Completed;\r\n    }\r\n\r\n    function completeResourceExtraction(uint256 _productID) override(ISupplyChain) public{\r\n        // Same effect as startResourceExtraction\r\n        startResourceExtraction(_productID);\r\n    }\r\n\r\n    function startResourceSupply(uint256 _productID) override(ISupplyChain) public {\r\n        // Ensure that the product ID is within the ones present in Stock (i.e., have been ordered)\r\n        require(validateProductId(_productID), \"The product is not in the Blockchain\");\r\n        // Ensure that the caller is a Provider\r\n        (uint256 _id, bool _isValid) = isSupplier();\r\n        require(_isValid, \"The user is not a registered supplier\");\r\n        // Ensure that the product is in correct stage\r\n        require(\r\n            Stock[_productID].phase == PHASE.ResourceExtraction_Completed,\r\n            \"You don't have the right to modify the product at this stage\"\r\n        );\r\n        // Mark provider\r\n        Stock[_productID].tracking.providerID = Stock[_productID].lastModifiedBy;\r\n\r\n        // Finally, update product stage\r\n        Stock[_productID].lastModifiedBy = _id;\r\n        Stock[_productID].requireResponseBy = 0;\r\n        Stock[_productID].phase = PHASE.ResourceSupply_Completed;\r\n    }\r\n    function completeResourceSupply(uint256 _productID) override(ISupplyChain) public {\r\n        startResourceSupply(_productID);\r\n    }\r\n\r\n    function startManufacturing(uint256 _productID) override(ISupplyChain) public {\r\n        // Ensure that the product ID is within the ones present in Stock (i.e., have been ordered)\r\n        require(validateProductId(_productID), \"The product is not in the Blockchain\");\r\n        // Ensure that the caller is a Manufacturer\r\n        (uint256 _id, bool _isValid) = isManufacturer();\r\n        require(_isValid, \"The user is not a registered manufacturer\");\r\n        // Ensure that the product is in correct stage\r\n        require(\r\n            Stock[_productID].phase == PHASE.ResourceSupply_Completed,\r\n            \"You don't have the right to modify the product at this stage\"\r\n        );\r\n        // Mark supplier\r\n        Stock[_productID].tracking.supplierID = Stock[_productID].lastModifiedBy;\r\n\r\n        // Finally, update product stage\r\n        Stock[_productID].lastModifiedBy = _id;\r\n        Stock[_productID].requireResponseBy = 0;\r\n        Stock[_productID].phase = PHASE.Manufacturing_Completed;\r\n    }\r\n    function completeManufacturing(uint256 _productID) override(ISupplyChain) public {\r\n        startManufacturing(_productID);\r\n    }\r\n\r\n    function startDistribution(uint256 _productID) override(ISupplyChain) public {\r\n        // Ensure that the product ID is within the ones present in Stock (i.e., have been ordered)\r\n        require(validateProductId(_productID), \"The product is not in the Blockchain\");\r\n        // Ensure that the caller is a Manufacturer\r\n        (uint256 _id, bool _isValid) = isDistributor();\r\n        require(_isValid, \"The user is not a registered manufacturer\");\r\n        // Ensure that the product is in correct stage\r\n        require(\r\n            Stock[_productID].phase == PHASE.Manufacturing_Completed,\r\n            \"You don't have the right to modify the product at this stage\"\r\n        );\r\n        // Mark manufacturer\r\n        Stock[_productID].tracking.manufacturerID = Stock[_productID].lastModifiedBy;\r\n\r\n        // Finally, update product stage\r\n        Stock[_productID].lastModifiedBy = _id;\r\n        Stock[_productID].requireResponseBy = 0;\r\n        Stock[_productID].phase = PHASE.Distribution_Completed;\r\n\r\n    }\r\n    function completeDistribution(uint256 _productID) override(ISupplyChain) public {\r\n        startDistribution(_productID);\r\n    }\r\n\r\n}",
  "sourcePath": "/mnt/e/Projects/WebstormProjects/supply-chain-on-blockchain/contracts/implementation/examples/SimpleSupplyChain.sol",
  "compiler": {
    "name": "solc",
    "version": "0.8.2+commit.661d1103.Emscripten.clang"
  },
  "schemaVersion": "3.4.16",
  "updatedAt": "2024-01-21T17:45:05.176Z",
  "devdoc": {
    "kind": "dev",
    "methods": {},
    "version": 1
  },
  "userdoc": {
    "kind": "user",
    "methods": {},
    "version": 1
  }
}